:020000040800F2
:1020000000500020B9D700089557000897570008DE
:10201000995700089B5700089D57000800000000D2
:102020000000000000000000000000009F570008B2
:10203000A157000800000000A3570008A55700089A
:10204000FDD70008FDD70008FDD70008FDD7000820
:10205000FDD70008FDD70008FDD70008FDD7000810
:10206000FDD70008FDD70008FDD70008FDD7000800
:10207000FDD70008FDD70008FDD70008FDD70008F0
:10208000FDD70008FDD70008FDD70008D15700088C
:10209000CD570008FDD70008FDD70008FDD7000880
:1020A000FDD70008FDD70008FDD70008FDD70008C0
:1020B000FDD70008FDD70008FDD70008FDD70008B0
:1020C000FDD70008FDD70008FDD70008FDD70008A0
:1020D000FDD70008A9570008FDD70008FDD7000864
:1020E000FDD70008FDD70008A75700080000000032
:1020F00000000000000000000000000000000000E0
:0C21000000000000000000005FF808F183
:10211000174B5A6802F00C02042A04D0082A04D093
:10212000144B154A16E0154A0AE05A68596802F439
:102130007012920C023211F4803F03D1104B5A43BB
:102140000C4B07E05B6813F4003F14BF0D490B49CB
:10215000084B4A431A60064B5A68064B02F0F002DD
:1021600003EB12121968127931FA02F21A60704701
:10217000001002400000002000127A00001BB7008F
:1021800000093D00808D5B00384B82B01A6842F038
:1021900001021A605968364A01EA02025A601A6856
:1021A00022F0847222F480321A601A6822F48022AB
:1021B0001A605A6822F4FE025A604FF41F029A60B5
:1021C0000022019200921A6842F480321A60274B72
:1021D0001B6803F400330093019B01330193009BC0
:1021E0001BB9019BB3F5A06FF1D1204B1B6813F411
:1021F000003318BF01230093009B012B34D11D4BEA
:102200001A6842F010021A601A6822F003021A607B
:102210001A6842F002021A60144B5A685A605A68EF
:102220005A605A6842F480625A605A6822F47C12FA
:102230005A605A6842F4E8125A601A6842F0807292
:102240001A600A4B1A6812F0007FFAD05A6822F01E
:1022500003025A605A6842F002025A60034B5B68FC
:1022600003F00C03082BF9D102B0704700100240B4
:102270000000FFF80020024040F0BE60024B40F436
:102280002020D860704700BF00ED00E0C2780378DE
:10229000F2B1154A90F801C0D2688078D24302F4B6
:1022A000E062120AC2F104010CFA01FC0F21D140D4
:1022B000014041EA0C010D4A09019A18C9B282F89D
:1022C00000135909012203F01F0312FA03F306E079
:1022D0005909012203F01F0312FA03F32031034AC4
:1022E00042F82130704700BF00ED00E000E100E05F
:1022F00021F0604121F07F01014B0143996070475B
:1023000000ED00E019B1054B1A69104303E0034BDF
:102310001A6922EA00001861704700BF00ED00E072
:10232000044B04281A680CBF42F0040222F0040295
:102330001A60704710E000E043680A6823F47023D5
:1023400023F4807313430A7910B543EA02234360F0
:10235000CB688A6884681A43094B04EA030342EA9B
:1023600003034A7943EA420383600B7CC26A013B60
:1023700022F47002DBB242EA0353C36210BD00BF15
:10238000FDF7F1FF00230360037143718360C360B5
:1023900001330374704719B1836843F0010302E00D
:1023A000836823F001038360704719B1836843F4A5
:1023B000807302E0836823F4807383607047C9B23E
:1023C00012B14368194302E0436823EA0101416006
:1023D0007047836843F00803836070478068C008D3
:1023E00000F001007047836843F004038360704786
:1023F0008068800800F00100704719B1836843F4D9
:10240000A00302E0836823F4A00383607047806820
:10241000800D00F0010070474368013923F46043E8
:1024200043EA41334360704719B1436843F40063A2
:1024300002E0436823F4006343607047092930B524
:102440004FEA410C0ED98C44ACF11E0C072404FA5F
:102450000CF403FA0CFCC56825EA040444EA0C03F6
:10246000C3600BE08C44072404FA0CF403FA0CFC60
:10247000056925EA040444EA0C030361062A0CD822
:10248000013A02EB82021F2393409140446B24EAFD
:10249000030343EA0102426330BD0C2A4FEA820380
:1024A0000BD89A18233A1F2393409140046B24EAD7
:1024B000030343EA0102026330BD9A18413A1F2325
:1024C00093409140C46A24EA030343EA0102C262D2
:1024D00030BD19B1836843F4801302E0836823F4AC
:1024E000801383607047C06C80B27047014B1868DE
:1024F000704700BF4C24014019B1436843F4806326
:1025000002E0436823F480634360704719B1436875
:1025100043F4805302E0436823F4805343607047E0
:10252000836823F4E04341EA03038360704719B1F1
:10253000836843F4004302E0836823F4004383602C
:10254000704719B1836843F4021302E0836823F4EF
:102550000213836070478068400D00F001007047EF
:10256000092930B54FEA410C0ED98C44ACF11E0C50
:10257000072404FA0CF403FA0CFCC56825EA0404E9
:1025800044EA0C03C3600BE08C44072404FA0CF407
:1025900003FA0CFC056925EA040444EA0C03036110
:1025A000836B03F4401C6FEA1C5C62440332D2B2BA
:1025B00002EB82024FF01F0C0CFA02FC914023EA5E
:1025C0000C030B43836330BD836B013923F4401349
:1025D00043EA01538363704782B000230193019063
:1025E000019BCB180193019B1A6002B0704782B027
:1025F000002301930190019B28335B180193019BF9
:10260000186880B202B07047436823F4400323F493
:10261000007341EA0303436070474162826270477E
:10262000436823F01F0341EA03034360704720B16E
:10263000054B9A6842F4000203E0034B9A6822F4C7
:1026400000029A60704700BF0024014003681942ED
:102650000CBF002001207047C943016070474368E8
:10266000006810EA112004D0C9B219420CBF002042
:10267000012070476FEA112101607047134B10B5BC
:10268000984207D14FF40070012100F0DBFE4FF4B7
:10269000007014E00E4B984207D14FF48060012186
:1026A00000F0D0FE4FF4806009E00A4B98420BD155
:1026B0004FF40040012100F0C5FE4FF4004000211E
:1026C000BDE8104000F0BEBE10BD00BF00240140B8
:1026D00000280140003C0140014B1860704700BFDA
:1026E00004860D42014B1860704700BF00860D4202
:1026F000014B1860704700BF88860D42044A938DD5
:1027000023F460731B041B0C40EA0303938570479A
:10271000006C0040044A938D23F07F031B041B0CC4
:1027200040EA030393857047006C004082B00023A9
:102730000193044B0193019BC3180193019B196002
:1027400002B07047006C004082B000230193054B3B
:102750000193019BC3180193019B188880B202B0BA
:10276000704700BF006C0040014B1868C0B2704752
:10277000A0860D42034B9A8E92B242F001029A86D5
:10278000704700BF006C0040014B1868C0B2704732
:10279000A4860D42034B9A8E92B242F002029A86B0
:1027A000704700BF006C0040012010B500F066FECD
:1027B0000020BDE8104000F061BE00BF036823F0B8
:1027C000010303600023036043608360C360274B01
:1027D000984223D0264B984228D0264B98422DD0A1
:1027E000254B984232D0254B984204D1583B5A6829
:1027F00042F470222EE0224B984204D16C3B5A687E
:1028000042F4700226E01F4B984204D1803B5A6884
:1028100042F070621EE01C4B984204D1083B5A689B
:1028200042F00F0216E0194B984204D11C3B5A6843
:1028300042F0F0020EE0164B984204D1303B5A6849
:1028400042F4706206E0134B984205D1443B5A684B
:1028500042F470425A6070470F4B984204D1583B83
:102860005A6842F470225A60704700BF0800024064
:102870001C00024030000240440002405800024068
:102880006C00024080000240080402401C04024028
:102890003004024044040240580402408A6810B5E3
:1028A0000C6A036844EA02020C6923F4FE432243E3
:1028B0004C6923F0F00322438C692243CC69224304
:1028C0004C6A22438C6A224342EA03030360CB68CA
:1028D00043600B6883604B68C36010BD00230360D6
:1028E00043608360C360036143618361C3610362CA
:1028F00043628362704719B1036843F0010302E049
:10290000036823F001030360704712B103681943A1
:1029100002E0036823EA010101607047406880B269
:10292000704710F0805F14BF034B044B1B680342D9
:102930000CBF00200120704700040240000002404C
:1029400010F0805F14BF024B024B5860704700BF0D
:10295000000402400000024010F0805F14BF044BEE
:10296000044B1B6803420CBF00200120704700BFCE
:10297000000402400000024010F0805F14BF024BD0
:10298000024B5860704700BF000402400000024044
:10299000034B1A6802F0380240EA02021A607047DC
:1029A00000200240044B1A6822F008021A601A68DC
:1029B00040EA02021A60704700200240044B1A6885
:1029C00022F010021A601A6840EA02021A60704788
:1029D00000200240024B034A5A60034A5A60704783
:1029E0000020024023016745AB89EFCD024B034A2B
:1029F0005A60034A5A60704700200240230167452D
:102A0000AB89EFCD024B1A6942F080021A61704720
:102A100000200240024B1A6942F080021A6170479E
:102A200000200240014BD869800870470020024016
:102A3000014B186A704700BF00200240024BD86962
:102A4000400800F00100704700200240024B186867
:102A5000400900F0010070470020024019B1054B09
:102A60001A69104303E0034B1A6922EA0000186157
:102A7000704700BF002002400128064B03D1D869EF
:102A800000F001007047DB6818420CBF00200120F5
:102A9000704700BF00200240014BD860704700BF64
:102AA000002002400A4BDA6812F0010F01D0012029
:102AB0007047DA6812F0040F01D002207047D8681E
:102AC00000F01000002814BF03200420704700BF4E
:102AD000002002400A4BDA6812F0010F01D00120F9
:102AE0007047DA6812F0040F01D002207047D868EE
:102AF00000F01000002814BF03200420704700BF1E
:102B00000020024010B50446FFF7E4FF02E0FFF7A3
:102B1000E1FF013C012802D1002CF8D100E004B90A
:102B2000052010BDF8B5124E124B0446B360124B8F
:102B30004FF40050B3600D461746FFF7E3FF04283B
:102B400015D1336944F0F80443F010033361254391
:102B50000A4B2F435F804FF40050FFF7D3FF052847
:102B600005D0326941F6EF7302EA03033361F8BD21
:102B70000020024023016745AB89EFCD00F8FF1F1D
:102B800038B505464FF43020FFF7BCFF04283BD191
:102B90001E4C1F4B4FF43020A3601E4BA3602369D3
:102BA00043F020032361236943F040032361FFF7CF
:102BB000A9FF042820D1226941F6DF7302EA03034A
:102BC0002361236943F0100323611DB1124B4FF0C1
:102BD000000202E0104B4FF0A5021A804FF43020A3
:102BE000FFF790FF05280FD0084A41F6EF731169EF
:102BF00001EA0303136138BD052805D0226941F6B7
:102C0000DF7302EA0303236138BD00BF00200240E6
:102C100023016745AB89EFCD00F8FF1F10B50446CF
:102C20004FF40050FFF76EFF042842D1214B224998
:102C3000E44399602149E2B299601969FF2A41F0A1
:102C40001001196107D01E4B4FF400501A81FFF795
:102C500059FF042824D104F47F431B0AFF2B07D01B
:102C6000174A4FF400505381FFF74CFF042817D147
:102C700004F47F031B0CFF2B07D0114A4FF40050C4
:102C80009381FFF73FFF04280AD1240EFF2C01D1C6
:102C9000042007E00A4B4FF40050DC81FFF732FFBD
:102CA000052806D0034A41F6EF73116901EA0303D0
:102CB000136110BD0020024023016745AB89EFCDB1
:102CC00000F8FF1F70B504464FF400500E46FFF7A2
:102CD00019FF042815D10B4D0B4B4FF40050AB607E
:102CE0000A4BAB602B6943F010032B612680FFF782
:102CF00009FF052805D02A6941F6EF7302EA0303AC
:102D00002B6170BD0020024023016745AB89EFCDE8
:102D100070B504464FF400500E46FFF7F3FE04284A
:102D200011D1094D4FF400502B6943F001032B6181
:102D30002680FFF7E7FE052805D02A6941F6FE73D5
:102D400002EA03032B6170BD0020024073B500232B
:102D500004464FF400500E460193FFF7D3FE0428BB
:102D60001DD10F4D4FF400502B6943F001032B612F
:102D7000B3B22380FFF7C6FE042808D102340194C1
:102D8000019B360C1E804FF40050FFF7BBFE052858
:102D900005D02A6941F6FE7302EA03032B617CBD6C
:102DA0000020024038B5FFF749FE00280CBFA525DA
:102DB00000254FF43020FFF7A5FE042833D11A4C2C
:102DC0001A4B4FF43020A360194BA360236943F0E2
:102DD00020032361236943F040032361FFF792FE40
:102DE000042818D1226941F6DF7302EA0303236144
:102DF00023694FF4005043F0100323610D4B1D80F5
:102E0000FFF780FE05280ED0226941F6EF7302EA33
:102E10000303236138BD052805D0226941F6EF730D
:102E200002EA0303236138BD002002402301674505
:102E3000AB89EFCD00F8FF1F10B54FF43020FFF73E
:102E400061FE042814D10B4C4FF43020236943F069
:102E500004032361236943F040032361FFF752FE1B
:102E6000052805D0226941F6FB7302EA03032361BA
:102E700010BD00BF0020024038B505464FF4302099
:102E8000FFF740FE042815D10B4C4FF43020236986
:102E900043F0020323616561236943F0400323612A
:102EA000FFF730FE052805D0226941F6FD7302EADE
:102EB0000303236138BD00BF0020024010B5044663
:102EC000FFF708FE02E0FFF705FE013C012802D1F2
:102ED000002CF8D100E004B9052010BD10B54FF466
:102EE0003020FFF7EBFF042814D10B4C4FF43020B7
:102EF000236943F004032361236943F04003236102
:102F0000FFF7DCFF052805D0226941F6FB7302EAD2
:102F10000303236110BD00BF00200240CB78F0B551
:102F200013F0100F18BF8A78098803F00F0C18BF30
:102F30004CEA020C11F0FF0F1AD00468002201269F
:102F4000964006EA0105B5420ED196000F27B7401C
:102F50000CFA06F624EA07043443282B01D1456114
:102F600002E0482B08BF05610132082AE7D104605E
:102F7000FF291CD94468002202F108050126AE4051
:102F800006EA0105B5420ED196000F27B7400CFAAC
:102F900006F624EA07043443282B01D1456102E0F8
:102FA000482B08BF05610132082AE5D14460F0BD15
:102FB0004FF0FF33038002238370DB18C370704728
:102FC000836819420CBF002001207047806880B2DE
:102FD0007047C36819420CBF002001207047C068C9
:102FE00080B2704701617047416170470AB1016169
:102FF000704741617047C160704741F4803383611D
:1030000081618361836983697047064A10B51468DA
:103010004FF6807304EA030341EA001141EA030317
:10302000136010BD00000140014B1860704700BFE5
:103030001C0020420028194B00F4401CB4BFDB697F
:103040005B68BCF5401F30B582B207D1134C23F04A
:103050007063656825F07065656014E010F4801F8A
:1030600007D000F4702C4FEA1C4C032404FA0CFC2B
:1030700005E04FEA505C4FEA0C1C02FA0CFC23EA14
:103080000C0343F0706319B1410D09018A401343E9
:10309000024A0028B4BFD361536030BD0000014034
:1030A00001F0030230B592000F24944010FA02F2AE
:1030B000074B8908023153F8215025EA040443F8EC
:1030C000214053F8214042EA040443F8214030BD36
:1030D00000000140014B1860704700BFDC00204237
:1030E0000120014610B500F0ADF901200021BDE836
:1030F000104000F0A7B9234B10B5984205D1042029
:10310000012100F09FF9042036E01F4B984205D1C1
:103110000820012100F096F908202DE01B4B984271
:1031200005D11020012100F08DF9102024E0184B6A
:10313000984205D12020012100F084F920201BE0D5
:10314000144B984205D14020012100F07BF940202A
:1031500012E0114B984205D18020012100F072F954
:10316000802009E00D4B98420BD14FF48070012173
:1031700000F068F94FF480700021BDE8104000F0C5
:1031800061B910BD00080140000C01400010014071
:103190000014014000180140001C014000200140C3
:1031A0000D4B1A6842F001021A6059680B4A01EA95
:1031B00002025A601A6822F0847222F480321A6085
:1031C0001A6822F480221A605A6822F4FE025A60B9
:1031D0004FF41F029A607047001002400000FFF891
:1031E0000C4BB0F5803F1A6822F480321A601A68DE
:1031F00022F480221A6003D0B0F5802F09D104E0B8
:103200001A6842F480321A6070471A6842F4A022A9
:103210001A60704700100240034B1A6822F0F8024F
:1032200042EAC0021A60704700100240014B186069
:10323000704700BF00004242044B5A6822F47C12DF
:1032400040EA02020A435A60704700BF0010024081
:10325000014B1860704700BF60004242034B5A6840
:1032600022F0030240EA02025A6070470010024056
:10327000024B586800F00C00704700BF001002407D
:10328000034B5A6822F0F00240EA02025A6070478B
:1032900000100240034B5A6822F4E06240EA020246
:1032A0005A60704700100240034B5A6822F4605283
:1032B00042EAC0025A6070470010024019B1054B43
:1032C0001A78104303E0034B1A7822EA00001870C2
:1032D000704700BF09100240014B1860704700BFE3
:1032E000D8004242034B5A6822F4404240EA0202AC
:1032F0005A60704700100240064B002201281A70E5
:103300001A7002D0042804D101E018707047052219
:103310001A70704720100240014B1860704700BFC0
:1033200080044242024B1A6A40EA02021A62704763
:1033300000100240014B1860704700BF3C0442423D
:10334000254B10B55A6802F00C02042A02D0082A54
:1033500016D101E0214B14E05A68596802F470124A
:10336000920C023211F4803F01D11D4B05E05B68E5
:1033700013F4003F14BF1B4B184B5A43026001E08B
:10338000194B0360144A194B5168046801F0F001AD
:103390000909595C34FA01F14160546804F4E06CA5
:1033A0004FEA1C2C13F80C4031FA04F48460546882
:1033B00004F4605C4FEADC2C13F80CC021FA0CF129
:1033C000C160526802F4404203EB92331B7CB1FBB4
:1033D000F3F1016110BD00BF00100240001BB700F7
:1033E00000093D00808D5B0000127A00140000206F
:1033F00019B1054B5A69104303E0034B5A6922EA9D
:1034000000005861704700BF0010024019B1054B21
:103410009A69104303E0034B9A6922EA000098611D
:10342000704700BF0010024019B1054BDA69104324
:1034300003E0034BDA6922EA0000D861704700BF5D
:103440000010024019B1054BDA68104303E0034B4A
:10345000DA6822EA0000D860704700BF001002401E
:1034600019B1054B1A69104303E0034B1A6922EAAC
:1034700000001861704700BF00100240014B186047
:10348000704700BF40044242014B1860704700BFC4
:103490004C004242014B1870704700BF07100240B9
:1034A0004309012B02D1074B1B6804E0022B054B9B
:1034B0000CBF1B6A5B6A00F01F0033FA00F000F0DB
:1034C000010070470010024007B50023019331202E
:1034D000FFF7E6FF019B01330193019BB3F5A06F5A
:1034E00001D00028F3D03120FFF7DAFF003818BFF1
:1034F00001200EBD024B5A6A42F080725A62704738
:1035000000100240034B9B6818420CBF00200120B2
:10351000704700BF00100240014B1870704700BF99
:103520000A100240B1F802C00B8802884CEA03037B
:10353000B1F804C002F4415243EA0C03B1F806C0EA
:1035400043EA0C03B1F808C043EA0C03B1F80AC01F
:1035500043EA0C03B1F80CC043EA0C03B1F80EC007
:1035600043EA0C0342EA03039BB20380838B23F4F8
:1035700000631B041B0C83830B8A038270470023A8
:10358000038043808380C380038143818381C3811F
:103590004FF0070303827047002302220380438019
:1035A0008380C38082608381704721B103889BB28E
:1035B00043F0400304E0038823F040031B041B0C8A
:1035C0000380704721B1838B9BB243F4806304E096
:1035D000838B23F480631B041B0C838370470909CE
:1035E00001238B409BB21AB1828892B2134303E04D
:1035F000828892B222EA0303838070471AB18388DB
:103600009BB2194303E083889BB223EA01018180C6
:10361000704781817047808980B270474FF6FF63A1
:103620009942038804D09BB243F4807303807047AF
:1036300019400180704721B183889BB243F0040395
:1036400004E0838823F004031B041B0C8380704771
:10365000038823F400631B041B0C038003889BB2C4
:1036600041EA03030380704703889BB243F480530D
:103670000380704721B103889BB243F4005304E0F8
:10368000038823F400531B041B0C0380704701299B
:1036900002D0008B80B27047808A80B27047008A67
:1036A00080B27047B1F5804F038803D19BB243F4D9
:1036B000804303E023F480431B041B0C038070470A
:1036C000038919420CBF002001207047C94389B209
:1036D00001817047012301F00F0213FA02F2B0F8E2
:1036E00004C000891FFA8CFC80B2104006D0090982
:1036F0008B401CEA030F0CBF00200120704701F033
:103700000F0101238B40DB439BB203817047838B06
:10371000F0B523F47A6323F01F031B041B0C83838F
:103720004FF0020303848B68868B022B87B004461C
:103730000D46B6B201D1002223E001A88F88FFF721
:10374000FFFDEA88002F0CBF01270227B2F5007F9A
:10375000019BAA6803D11B0A0A214B4304E07F01A5
:10376000B3FBF7F30A277B43B3FBF2F305330A22DB
:103770009BB2B3FBF2F303F0010212025B089BB2AF
:1037800092B2991E89B2FE2928BF002228BF0223C7
:10379000E98813430B439BB223842B886A8846EA4B
:1037A000030343F400631343AA881343AA89134312
:1037B0009BB2A38307B0F0BD154B10B598420BD157
:1037C00001214FF48050FFF73DFE4FF4805000215F
:1037D000BDE81040FFF736BE0E4B984207D14FF4BC
:1037E00080400121FFF73CFE4FF4804009E00A4B86
:1037F00098420BD14FF400400121FFF731FE4FF406
:1038000000400021BDE81040FFF72ABE10BD00BFF8
:103810000030014000380040003C0040204A03884E
:1038200090429BB20ED01F4A90420BD0B0F1804F15
:1038300008D01D4A904205D01C4A904202D01C4A32
:10384000904206D14FF68F7203EA02024B8842EA99
:103850000303184A904209D0174A904206D04FF607
:10386000FF4203EA0202CB8842EA030303808B880B
:1038700083850B8803850A4B98420BD0094B9842ED
:1038800008D00E4B984205D00D4B984202D00D4BFC
:10389000984201D10B7A03864FF00103838270476F
:1038A000002C0140003401400004004000080040AA
:1038B000000C004000100040001400400040014097
:1038C0000044014000480140038C70B523F001031F
:1038D0001B041B0C0384038C4C880A8923F002030D
:1038E0001B0444EA02021B0C92B242EA03031D4A83
:1038F000B0F804C0068B90421FFA8CFCB6B20D885B
:103900000BD0194A904208D0184A904205D0184A64
:10391000904202D0174A904218D14FF6F77403EA4A
:1039200004044B898A881C434FF6FB7304EA0303A3
:103930004FF6FF440CEA04041343B1F80EC08A8921
:103940004CEA020C1FFA8CFC4CEA040C4FF68C7209
:1039500006EA02022A43A0F804C00283CA888286CB
:10396000038470BD002C0140003401400040014040
:103970000044014000480140038C70B523F010035F
:103980001B041B0C0384038CB1F808C023F0200334
:103990001B041B0C43EA0C131B4EB1F802C08288B7
:1039A000058B43EA0C13B04292B2ADB20C889BB2C5
:1039B00002D0164EB0421AD14FF67F7C03EA0C0CAF
:1039C0004B894CEA031C4FF6BF730CEA0303B1F8B2
:1039D00004C043EA0C134FF2FF3C02EA0C0C8A8944
:1039E0009BB24CEA820CCA894CEA820292B2828073
:1039F00048F6FF4205EA020242EA042292B202833A
:103A0000CA880287038470BD002C01400034014045
:103A1000038C70B523F480731B041B0C0384038C8C
:103A2000B1F808C023F400731B041B0C43EA0C23F9
:103A30001A4EB1F802C08288858B43EA0C23B0424B
:103A400092B2ADB20C889BB202D0154EB0421AD1E0
:103A50004FF2FF7C03EA0C0C4B894CEA032C4FF627
:103A6000FF330CEA0303B1F804C043EA0C234CF61D
:103A7000FF7C02EA0C0C8A899BB24CEA021CCA89C0
:103A80004CEA021292B282804FF68C7205EA020270
:103A900022438283CA888287038470BD002C014040
:103AA00000340140038C2DE9F04123F480531B04C2
:103AB0001B0C0384194D078C8488B0F81C80A84225
:103AC000BFB2A4B21FFA88F80A880E894B8802D0C8
:103AD000134DA84207D14BF6FF7504EA05058C8902
:103AE00045EA8414A4B248F6FF4C08EA0C0C4CEAF0
:103AF000022C1FFA8CFC8480A0F81CC0CA88A0F895
:103B000040204DF6FF7207EA020242EA063242EA1C
:103B100003339BB20384BDE8F08100BF002C014059
:103B2000003401404A880B8842EA03038A88134321
:103B3000CA8813430A8913434A8913438A89134362
:103B40009BB2A0F8443070474FF0FF3383800023CE
:103B50000380C38043800372704700230380438047
:103B60008380C380038143818381C38170470023A5
:103B70004FF00102038043808280C380038170473D
:103B80000023038043808380C3800381438183813A
:103B9000704721B103889BB243F0010304E003881E
:103BA00023F001031B041B0C0380704739B1B0F8EC
:103BB00044306FEA43436FEA53439BB203E0B0F8EB
:103BC00044305B045B0CA0F8443070471AB1838921
:103BD0009BB2194303E083899BB223EA01018181EF
:103BE0007047818270470A43A0F8482070471AB195
:103BF00083899BB2194303E083899BB223EA0101C5
:103C000081817047038923F007031B041B0C038188
:103C10007047B0F808C05FFA8CFC41EA0C0C42EA2D
:103C20000C0C4CEA032C1FFA8CFCA0F808C070475F
:103C300010B50446FFF7EDFF23899BB243F48043A0
:103C4000238110BD10B50446FFF7E3FF238923F05D
:103C500077031B041B0C43F07703238110BD018500
:103C600082827047038823F070031B041B0C41EA17
:103C7000030303807047038923F070031B041B0CAC
:103C800041EA03030381704710B50446FFF7F3FFD1
:103C900023899BB243F00703238110BDB0F808C00D
:103CA00030B5058B048C25F4407524F0220425F0F2
:103CB000030524042CF0070C2D04240C4FEA0C4CB3
:103CC0002D0C42EA04044FEA1C4C45F4807544EA8A
:103CD000031441EA0C0145F00105A4B201810583FA
:103CE000048430BD038B23F070031B041B0C41EADA
:103CF000030303837047038B23F4E0431B041B0C73
:103D000043EA01239BB203837047838B23F0700344
:103D10001B041B0C41EA030383837047838B23F44A
:103D2000E0431B041B0C43EA01239BB283837047CF
:103D300021B103889BB243F0800304E0038823F0A1
:103D400080031B041B0C0380704721B183889BB246
:103D500043F0040304E0838823F004031B041B0CDA
:103D60008380704721B183889BB243F0080304E04D
:103D7000838823F008031B041B0C8380704721B148
:103D800083889BB243F0010304E0838823F001039E
:103D90001B041B0C83807047038B23F008031B0458
:103DA0001B0C41EA030303837047038B23F4006376
:103DB0001B041B0C43EA01239BB203837047838BD4
:103DC00023F008031B041B0C41EA030383837047A1
:103DD000838B23F400631B041B0C43EA01239BB277
:103DE00083837047038B23F004031B041B0C41EAFD
:103DF000030303837047038B23F480631B041B0CB2
:103E000043EA01239BB203837047838B23F00403AF
:103E10001B041B0C41EA030383837047838B23F449
:103E200080631B041B0C43EA01239BB2838370470E
:103E3000038B23F080031B041B0C41EA0303038361
:103E40007047038B5B045B0C43EA01239BB2038343
:103E50007047838B23F080031B041B0C41EA030390
:103E600083837047838B5B045B0C43EA01239BB223
:103E700083837047038C23F002031B041B0C41EA6D
:103E8000030303847047038C23F008031B041B0CFB
:103E900041EA030303847047038C23F020031B04CF
:103EA0001B0C43EA01139BB203847047038C23F07D
:103EB00080031B041B0C43EA01139BB2038470476D
:103EC000038C23F400731B041B0C43EA01239BB2F5
:103ED00003847047038C23F400631B041B0C43EA28
:103EE00001239BB203847047038C23F400531B040B
:103EF0001B0C43EA01339BB20384704701238B40C0
:103F000012FA01F1B0F820C01FFA8CFC2CEA03036E
:103F10000384038C41EA03039BB2038470470423A8
:103F20008B4012FA01F1B0F820C01FFA8CFC2CEA89
:103F300003030384038C41EA03039BB203847047A9
:103F40004FF0010C0CFA01FC10B5048C00F11803C1
:103F5000A4B224EA0C0CA0F820C009B1082906D1AB
:103F60004908C85820F07000C850C85809E0043902
:103F700089B24908C858120220F4E040C850C85815
:103F800092B240EA0202CA5010BD21B103889BB22E
:103F900043F0020304E0038823F002031B041B0C1C
:103FA0000380704721B103889BB243F0040304E00F
:103FB000038823F004031B041B0C0380704721B10A
:103FC00083889BB243F0800304E0838823F080035E
:103FD0001B041B0C83807047038823F008031B0419
:103FE0001B0C038003889BB241EA030303807047E4
:103FF000838823F070031B041B0C838083889BB28F
:1040000041EA030383807047038923F007031B04FD
:104010001B0C038103899BB241EA030303817047B0
:10402000038923F080031B041B0C038103899BB2CB
:1040300041EA03030381704781847047818570479B
:10404000818670470187704781877047A0F84010CC
:104050007047038B23F00C031B041B0C0383038B9F
:104060009BB241EA030303837047038B23F440634D
:104070001B041B0C0383038B9BB243EA01239BB2FB
:1040800003837047838B23F00C031B041B0C838377
:10409000838B9BB241EA030383837047838B23F4B2
:1040A00040631B041B0C8383838B9BB243EA012375
:1040B0009BB283837047038823F440731B041B0C5B
:1040C000038003889BB241EA030303807047808E1C
:1040D00080B27047008F80B27047808F80B2704787
:1040E000B0F8400080B27047808C80B27047008D7D
:1040F00080B27047038A19420CBF0020012070472C
:10410000C94389B201827047038A828911EA030098
:1041100092B203D011420CBF002001207047C94366
:1041200089B201827047B0F820C010B52CF0010CA4
:104130004FEA0C4C4FEA1C4CA0F820C0B0F818C055
:10414000048C2CF0F30C4FEA0C4C24F002044FEAE0
:104150001C4C240442EA0C0C240C4CEA031C44F0D2
:1041600001041FFA8CFC0C43A0F818C0048410BD95
:10417000B0F820C010B52CF0100C4FEA0C4C4FEAF0
:104180001C4CA0F820C0B0F818C0048C2CF4407C63
:1041900024F020044FEA0C5C24044FEA1C5C240C3D
:1041A0004CEA022C44F010044CEA033C44EA0114AB
:1041B0001FFA8CFCA4B2A0F818C0048410BD38B556
:1041C0000D46602D0446114603D10122FFF7D0FFB2
:1041D00002E00122FFF7A7FF20462946FFF74BFD2B
:1041E00023899BB243F00703238138BD2DE9F041B9
:1041F0000C46A2884988B4F800C0054600290CBFC7
:1042000002270027012A0CBF022601262389BCF1C0
:10421000000F10D1FFF787FF2846E188FFF719FF4D
:104220002846394632462389FFF7A2FFE18828460F
:10423000BDE8F04119E7FFF79BFF2846E188FFF74B
:1042400014FF2846394632462389FFF76CFFE18880
:104250002846BDE8F041FCE60B882DE9F04705460D
:104260000C464BB94988A2882389FFF75CFFE18897
:104270002846BDE8F047ECE6042B09D14988A2881E
:104280002389FFF775FFE1882846BDE8F047ECE693
:10429000082B4F88B1F804A0B1F8088024D1068C0F
:1042A00026F480763604360C0684B0F81CC0018CE7
:1042B0002CF0F30C21F4007109044FEA0C4C090CAA
:1042C0004FEA1C4C4CEA081C41EA07211FFA8CFCFF
:1042D00089B24CEA0A0A41F48071A0F81CA001845A
:1042E000E188BDE8F047CDE6018C21F48051090456
:1042F000090C0184828B038C22F4407223F4005356
:1043000012051B04120D1B0C42EA0A2243EA073372
:1043100042EA08329BB292B243F480538283038410
:10432000E188BDE8F047B9E65A4B10B5984207D18D
:104330004FF400600121FFF785F84FF40060A2E020
:10434000B0F1804F05D101200146FFF789F8012027
:1043500007E0514B984209D102200121FFF780F874
:1043600002200021BDE81040FFF77AB84B4B98427D
:1043700005D104200121FFF773F80420F1E7484B31
:10438000984205D108200121FFF76AF80820E8E7E4
:10439000444B984205D110200121FFF761F810200D
:1043A000DFE7414B984205D120200121FFF758F863
:1043B0002020D6E73D4B984207D14FF40050012111
:1043C000FFF740F84FF400505DE0394B984207D1B9
:1043D0004FF400200121FFF735F84FF4002052E0A0
:1043E000344B984207D14FF480100121FFF72AF88F
:1043F0004FF4801047E0304B984207D14FF4001043
:104400000121FFF71FF84FF400103CE02B4B9842BE
:1044100005D140200121FFF723F84020A1E7284BD8
:10442000984205D180200121FFF71AF8802098E7F3
:10443000244B984207D14FF480700121FFF710F808
:104440004FF480708DE7204B984207D14FF48030B5
:104450000121FEF7F7FF4FF4803014E01B4B984228
:1044600007D14FF400300121FEF7ECFF4FF400308C
:1044700009E0174B98420BD14FF480200121FEF741
:10448000E1FF4FF480200021BDE81040FEF7DABFC5
:1044900010BD00BF002C0140000400400008004097
:1044A000000C0040001000400014004000340140A7
:1044B000004C0140005001400054014000180040F1
:1044C000001C00400020004000400140004401402A
:1044D000004801404FF4165303604FF00C020023D4
:1044E0008380C3800381428183817047B1F802C019
:1044F0000A88038A4CEA0202B1F804C0C98823F48E
:10450000706342EA0C021B040A431B0C92B242EA9B
:104510000303038270470023038043808380C380AA
:10452000704721B183899BB243F4005304E083892F
:1045300023F400531B041B0C83817047CBB24FF054
:10454000010C5B0901F01F0163450CFA01F101D177
:104550000C3004E0022B01D1103000E014301AB10D
:10456000036843EA010102E0036823EA01010160F4
:1045700070471AB1838A9BB2194303E0838A9BB2C6
:1045800023EA010181827047038A23F00F031B0491
:104590001B0C0382038A9BB241EA03030382704728
:1045A000838923F400631B041B0C838183899BB2E2
:1045B00041EA03038381704721B183899BB243F0B1
:1045C000020304E0838923F002031B041B0C838194
:1045D0007047038A23F020031B041B0C0382038A09
:1045E0009BB241EA03030382704721B1038A9BB265
:1045F00043F4804304E0038A23F480431B041B0C30
:1046000003827047C905C90D818070478088C00545
:10461000C00D704783899BB243F0010383817047CB
:10462000038BDBB20383038B9BB243EA0123038337
:104630007047038B03F47F430383038B9BB241EAF0
:1046400003030383704721B1838A9BB243F02003A5
:1046500004E0838A23F020031B041B0C8382704731
:1046600021B1838A9BB243F0100304E0838A23F0D4
:1046700010031B041B0C8382704721B1838A9BB2F9
:1046800043F0080304E0838A23F008031B041B0C97
:104690008382704731B183896FEA43436FEA5343A2
:1046A0009BB202E083895B045B0C8381704721B17C
:1046B000838A9BB243F4006304E0838A23F400639B
:1046C0001B041B0C83827047838A23F004031B04A2
:1046D0001B0C8382838A9BB241EA03038382704767
:1046E00021B1838A9BB243F0020304E0838A23F062
:1046F00002031B041B0C83827047038819420CBF02
:10470000002001207047C94389B2018070475FFAD9
:1047100081FC01224FEA5C1C01F01F039A40BCF1AE
:10472000010F01D1838904E0BCF1020F0CBF038AA1
:10473000838A9BB202EA0303028892B20BB918463D
:1047400070470123090A13FA01F111420CBF00203E
:1047500001207047090A01238B40DB439BB2038091
:104760007047038ACA8823F440531B041B0C13436D
:10477000038230B50D4683890989AA8823F4B05392
:1047800041EA0202698923F00C030A431B041B0C53
:1047900092B242EA03038381838AAA8923F4407395
:1047A0001B041B0C134387B00446838201A8FEF749
:1047B000C7FD184BA2899C4212B20CBF049B039BFD
:1047C000002A2A6803DA19215943520002E019210C
:1047D000594392006423B1FBF2F1B1FBF3F21201F1
:1047E000100903FB1011A08900B2002806DAC900E5
:1047F0003231B1FBF3F303F0070305E00901323175
:10480000B1FBF3F303F00F0343EA020292B22281F9
:1048100007B030BD00380140204B10B598420BD195
:1048200001214FF48040FEF70DFE4FF4804000213F
:10483000BDE81040FEF706BE194B984207D14FF471
:1048400000300121FEF70CFE4FF400301FE0154B45
:10485000984207D14FF480200121FEF701FE4FF46A
:10486000802014E0104B984207D14FF40020012122
:10487000FEF7F6FD4FF4002009E00C4B98420BD1F7
:104880004FF480100121FEF7EBFD4FF48010002162
:10489000BDE81040FEF7E4BD10BD00BF0038014088
:1048A0000044004000480040004C004000500040E0
:1048B00001F10051013201F5405110B54900520893
:1048C000002309E0C41810F803C06478013A4CEAE8
:1048D000042C21F813C00233002AF3D110BD01F1DA
:1048E0000051013201F5405149005208002305E012
:1048F00031F813C0013A20F803C00233002AF7D17F
:1049000070470000014B1860704700BF405C0040DA
:10491000014B186880B27047405C0040014B186042
:10492000704700BF445C0040014B186880B270477C
:10493000445C0040014B186880B27047485C0040FE
:10494000014B1860704700BF4C5C0040014B186879
:1049500080B270474C5C00404FF6F873024A00EAA0
:1049600003031360704700BF505C0040014B1868A0
:1049700080B27047505C0040800000F1804000F53C
:10498000B84001607047800000F1804000F5B840F9
:10499000006880B27047800000F1804000F5B840A8
:1049A000026848F68F1302EA03030B430360704763
:1049B000800000F1804000F5B840006800F4C0605D
:1049C0007047800000F1804000F5B840026848F66A
:1049D000BF7302EA030311F0100F18BF83F0100336
:1049E00011F0200F18BF83F0200343F4004343F07D
:1049F000800303607047800000F1804000F5B840FC
:104A000002684BF68F7302EA030311F4805F18BF4C
:104A100083F4805311F4005F18BF83F4005343F410
:104A2000004343F080030360704738B50D460446E9
:104A3000FFF7A9FF012D08D1A40004F1804404F57B
:104A4000B84420F48050206038BD022D07D1A40066
:104A500004F1804404F5B84420F01000206038BD13
:104A6000800000F1804000F5B840006800F03000A0
:104A70007047800000F1804000F5B840006800F405
:104A800040507047800000F1804000F5B840026857
:104A900048F6BF7302EA030383F0300343F4004394
:104AA00043F0800303607047800000F1804000F510
:104AB000B84002684BF68F7302EA030383F4405355
:104AC00043F4004343F0800303607047800000F12B
:104AD000804000F5B840026840F60F6302EA030325
:104AE00043F4004343F4C07303607047800000F157
:104AF000804000F5B840026840F60F6302EA030305
:104B000043F4004343F0800303607047800000F1EA
:104B1000804000F5B840026840F60F6302EA0303E4
:104B200043F4004343F0800303607047800000F1CA
:104B3000804000F5B840026840F60F6302EA0303C4
:104B400043F4004343F4C07303607047800000F1F6
:104B5000804000F5B840026840F60F6302EA0303A4
:104B600043F4004343F4C07303607047800000F1D6
:104B7000804000F5B840026840F60F6302EA030384
:104B800043F4004343F0800303607047800000F16A
:104B9000804000F5B840006800F03000102814BFD5
:104BA000002001207047800000F1804000F5B840EF
:104BB000006800F44050B0F5805F14BF0020012071
:104BC0007047800000F1804000F5B840026840F670
:104BD0008F7302EA030303607047800000F1804096
:104BE00000F5B840026848F60F7302EA0303036059
:104BF0007047800000F1804000F5B840026840F640
:104C00000F7302EA030343F4404343F0800303605D
:104C10007047800000F1804000F5B840026840F61F
:104C20000F7302EA030343F4004343F0C00303603D
:104C30007047800000F1804000F5B840036813F42D
:104C4000804F09D0026840F60F7302EA030343F471
:104C5000404343F0800303607047800000F18040D0
:104C600000F5B840036813F0400F09D0026840F621
:104C70000F7302EA030343F4004343F0C0030360ED
:104C80007047800000F1804000F5B840036841F4AF
:104C9000004140F60F7241F0800103EA020241EA4E
:104CA000020202607047800000F1804000F5B840C9
:104CB000006800F00F007047074B4FF6FE721B684C
:104CC00001EA02029BB203EBC00303F1005303F5B8
:104CD00040535B001A607047505C0040064B074A27
:104CE0001B689BB203EBC0039A184FF6FE73520089
:104CF00001EA030313607047505C00400430002059
:104D0000054B1B689BB203EBC00303F1005303F593
:104D100040535B0018887047505C0040044B054AC4
:104D20001B689BB203EBC0039A18520010887047AF
:104D3000505C004004300020044B054A1B689BB2C5
:104D400003EBC0039A18520011607047505C00409A
:104D5000023000203E2909D94B0911F01F0F01D163
:104D6000013B9BB29B0243F4004305E04B0811F06A
:104D7000010F18BF01339B02036070470D4B1A6887
:104D80000D4B92B2D31803EBC0035B003E2909D947
:104D90004A0911F01F0F01D1013A92B2920242F476
:104DA000004205E04A0811F0010F18BF01329202DB
:104DB0001A607047505C004006300020054B064AE0
:104DC0001B689BB203EBC0039A1852001068800561
:104DD000800D7047505C004002300020054B064AB1
:104DE0001B689BB203EBC0039A1852001068800541
:104DF000800D7047505C0040063000200D4B30B5F0
:104E00001C681B68C000A4B204199BB2C01804F14E
:104E10000054094B04F540546500C3184FF6FE7466
:104E200001EA040459004FF6FE7302EA03032C6002
:104E30000B6030BD505C004004300020074B4FF643
:104E4000FE721B6801EA02029BB203EBC00303F18E
:104E5000005303F540535B001A607047505C0040FC
:104E6000064B074A1B689BB203EBC0039A184FF628
:104E7000FE73520001EA030313607047505C004068
:104E800004300020054B1B689BB203EBC00303F109
:104E9000005303F540535B0018887047505C004096
:104EA000044B054A1B689BB203EBC0039A185200DF
:104EB00010887047505C004004300020012924D144
:104EC000254B26491B68C0009BB2591809184B0096
:104ED0003E2A09D9510912F01F0F01D1013989B2B7
:104EE000890241F4004105E0510812F0010F18BF9A
:104EF000013189021960184B1968194B89B2CB1816
:104F0000181840003E2A1FD913E0022923D1124964
:104F1000C0000B681FFA83FC104B844463445B00A1
:104F20001A600B689BB2C0180D4BC3185B001A6067
:104F30007047530912F01F0F01D1013B9BB29B0236
:104F400043F4004303607047530812F0010F18BF89
:104F500001339B0203607047505C00400230002028
:104F60000630002001291BD1134B1968134B89B25D
:104F7000CB1803EBC00040003E2A09D9530912F0B8
:104F80001F0F01D1013B9BB29B0243F4004305E09C
:104F9000530812F0010F18BF01339B0203607047E2
:104FA000022908D1044B1B689BB203EBC000034BE2
:104FB000C3185B001A607047505C0040023000204C
:104FC00001291BD1134B1968134B89B2CB1803EB82
:104FD000C00040003E2A09D9530912F01F0F01D129
:104FE000013B9BB29B0243F4004305E0530812F0DF
:104FF000010F18BF01339B0203607047022908D1DB
:10500000044B1B689BB203EBC000034BC3185B004F
:105010001A607047505C004006300020054B064A7D
:105020001B689BB203EBC0039A18520010688005FE
:10503000800D7047505C004002300020054B064A4E
:105040001B689BB203EBC0039A18520010688005DE
:10505000800D7047505C0040063000200D4BC000B2
:105060001A680D4992B28218511849000A8812F440
:105070007C4F01D0012070471B689BB2C018074BC2
:10508000C3185B0018888005800D002814BF02201B
:1050900000207047505C00400630002002300020A5
:1050A00001290FD1800000F1804000F5B84002686E
:1050B00040F60F7302EA030343F4004343F0C003D6
:1050C0000360704702290ED1800000F1804000F596
:1050D000B840026840F60F7302EA030343F440430A
:1050E00043F080030360704741EA00207047C3B279
:1050F000000A40EA0320704708B5054B00201B68F2
:105100005B68984700F0B5F800F0AEF8FCE700BF28
:10511000E4000020F8B5244B07461A680E46002A22
:1051200003DA01225A60013A9A60FB683046DB6F6D
:105130009847FB683046D3F8983098471A4CFB687C
:10514000A268054604F10C018918D3F89C3030465A
:105150002A469847FB683046D3F894300121984797
:1051600005B3A36893B9237B0F2B07D80A2B03D170
:10517000637BA27B073306E0256007E013F0800F16
:1051800004D1A27B637B03EB02232360064B9A6866
:10519000AD189D601A689968914203D31A6842F06D
:1051A00000421A600020F8BD20010020CB6810B535
:1051B0005B6C02200C46984768B9E36803305B6F6C
:1051C000984740B9E36803301B6F0449984700389B
:1051D00018BF012010BD012010BD00BF15510008EF
:1051E00073B51D4C2368002B31DA1C4B4FF4804201
:1051F0005A61204650F80C1B89B208F0A1FA184BEE
:10520000D3F81C2E32B1D3F81C2E42F00042C3F862
:105210001C2E00E02260104E0025114CB560D4F821
:105220001C3EAB420EDA06F10C030093D4F81C3E90
:105230000C489BB202216A46019305F065FC35607B
:10524000C4F81C5E054B4FF480425A6102E0012015
:1052500000F0B0F800207CBD2001002000080140D3
:10526000102300202800002008B508F063FA002071
:1052700008BD0A4B20225A61094B10B54FF48042F9
:10528000084C1A61084806F0D6FA04F15C0006F0F2
:1052900071FA2046BDE8104005F066BB000C0140E5
:1052A000000801402800002030390020072930B5CF
:1052B00002F00F0C0BD88B000F249C400CFA03FC5F
:1052C000056825EA040444EA0C0303600CE0A1F13C
:1052D00008039B000F249C400CFA03FC456825EA58
:1052E000040444EA0C03436012F0200F0BD012F0C8
:1052F000100F04D0012313FA01F1016130BD012325
:1053000013FA01F1416130BD00207047024B1A7859
:1053100001321A70704700BF30410020024B1A78EA
:105320000AB1013A1A7070473041002082B00190F2
:105330001AE0019B0F4A934298BF019A48215143BA
:105340000D4B5960196841F0010119600A4B196849
:1053500011F4803FFAD0196821F001011960002191
:105360009960019B9A1A0192019B002BE1D102B036
:10537000704700BF400D030010E000E008B5FFF7E4
:10538000D5FF002008BD4FF47A735843CEE708B527
:10539000FFF7F9FF002008BD7047704708B50448C3
:1053A000FDF7A1F841F6C8135843000B80B208BDC1
:1053B0000024014038B50F4C054663680133B3F54E
:1053C000803F636015D300236360FFF7E7FFB0F50C
:1053D000E16F208101D202F05FFD55B1054B4FF422
:1053E00000421B89B3F5E16F034B01D95A6138BD07
:1053F0001A6138BD304100200008014010B501217C
:105400004FF48040FEF702F809210B220448FFF711
:105410004DFF03480A210422BDE8104046E700BFC3
:105420000008014010B5012186B04FF40070FDF76F
:10543000EDFF1A48FDF722F9012400234FF4602202
:10544000164801A90193039204938DF808408DF842
:1054500009408DF81440FCF76FFF104808212246E0
:105460000523FCF7EBFF0D482146FCF794FF0B48A2
:10547000FCF7AFFF0948FCF7B1FF0028FAD1074855
:10548000FCF7B1FF0548FCF7B3FF0028FAD1034849
:105490000121FCF7B2FF06B010BD00BF002401409F
:1054A00070B5104DBDF81060BDF814E0E9814FF4FF
:1054B00000714FF0000C6E82E982012605F10C01AB
:1054C0000446A5F80CC0A5F810C0A5F814E02A837E
:1054D0006B83AE83FEF726F820463146BDE8704068
:1054E000FEF763B83041002037B54FF400514FF05C
:1054F0000060FCF7FDFE4FF4A060FCF7BDFE01ADBF
:105500002A2301248DF804302846283B8DF80630E4
:105510008DF805408DF80740FCF7B8FE14232846A7
:105520008DF804308DF805408DF806408DF8074061
:10553000FCF7ACFE13238DF804302846133B8DF89E
:1055400005408DF806308DF80740FCF79FFE3EBD04
:1055500070B5082104221548FFF7A8FE144C00205E
:10556000FDF7C0F84FF48046092138220F48FFF7B5
:105570009DFE20460E2103222661FFF797FE0B4D6C
:105580004FF40043236120232B6120460F21032287
:10559000FFF78CFE284605210322FFF787FE002136
:1055A00028460A466661BDE870407FE6000C01406F
:1055B0000008014010B5FDF7F3FD4FF48030FDF712
:1055C0000FFEFDF781FF0128044626D11020FDF7CC
:1055D000F5F90220FDF7DCF90020FDF751FE00206F
:1055E000FDF762FE4FF48060FDF754FE4FF480300B
:1055F0004FF48011FDF720FE2046FDF729FE3920EB
:10560000FDF74EFF0028FAD00220FDF727FEFDF738
:105610002FFE8008C0B20228F9D10020FDF75CFE01
:105620000D200121FDF7F2FE4FF400000121BDE83D
:105630001040FDF7F9BE08B5FFF7BCFF0C4801218B
:10564000FDF7F8FCFFF750FFFFF782FFFFF7EAFED8
:10565000084B00201A6822F002021A601A6842F011
:1056600004021A601A6822F001021A60986008BDEC
:105670000004300010E000E0014608B5044800F0E6
:10568000E3F8012803D0034B4FF400425A6108BDF0
:10569000C00000200008014013B52523002401A804
:1056A0008DF804308DF805408DF806408DF80740E0
:1056B000FCF7ECFD0948FFF7AFF821464FF48040B6
:1056C000FDF7A4FE092104220548FFF7EFFD044879
:1056D0000A210422FFF7EAFD1CBD00BF003801408B
:1056E00000080140F0B5044687B029481F4615461A
:1056F000FFF792F8252300268DF8143005A8243BE7
:105700008DF815608DF816608DF81730FCF7BEFD2A
:10571000012F019403D00AD3022F08D102E04FF4E5
:10572000405301E04FF40053ADF80A3001E0ADF80A
:105730000A60012D03D00CD3022D0AD102E04FF4F0
:10574000C06301E04FF48063ADF80C304FF4805338
:1057500003E04FF00003ADF80C30ADF808304FF027
:105760000C03ADF80E3001A94FF000030848ADF866
:105770001030FEF7F6FF064840F225510122FEF7F1
:10578000DDFE03480121FEF7CCFE07B0F0BD00BFEF
:10579000003801407047FEE7FEE7FEE7FEE770478E
:1057A000704770477047704710B5074840F2255161
:1057B000FEF7ADFF38B10448FEF728FFC0B2BDE8E0
:1057C0001040FFF759BF10BD0038014004F028BC5D
:1057D00004F07EBB002304E011F803C000F803C00E
:1057E0000133013AF8D2704710B5002309E0C45CD8
:1057F00011F803C00133644502D0CCEB040010BDA6
:10580000013A002AF3DC002010BDC9B2002302E0F7
:10581000C154013A0133002AFADC70470130884252
:1058200028BF002070478268C3689A4201D3D01A0B
:10583000704740681218D01A704710B50446FFF739
:10584000F2FF6368181A10BD38B504460D46FFF71D
:10585000F4FF012801D8002038BDA3682268D55480
:10586000A0686168FFF7DAFFA060012038BD38B595
:105870000446FFF7D8FF054630B1E0682368616849
:105880001D5CFFF7CBFFE060284638BD8268C36827
:105890009A4201D3D01A70474068C01A7047026814
:1058A000C368D3180B60F1E738B504460D46FFF71F
:1058B000EDFFE368A84228BF28466268C3189342F8
:1058C000E36001D10023E36038BD0023C36083603F
:1058D000704770B504460E461546FFF7A4FFE3680F
:1058E0006268A84238BF0546D21A95422168304600
:1058F00010D95918FFF76EFF6368E2682168981A9B
:10590000D21A52193018FFF765FFE2686368D31A9C
:105910005B190AE059182A46FFF75CFFE3686268E2
:10592000EB189342E36001D10023E360284670BD89
:1059300070B5154604460E46FFF77FFF854201D33A
:10594000002524E0A36862682068D21A954211D924
:1059500018183146FFF73EFFA368616820685A1A9D
:10596000C91A52197118FFF735FFA2686368D31A74
:105970005B190BE018182A463146FFF72BFFA36886
:105980006268EB189342A36001D10023A36028460C
:1059900070BD00207047002070470020704708B598
:1059A000FFF7C4FC002008BD08B5FFF7ECFC0020A1
:1059B00008BD0000003818BF01207047003818BF2C
:1059C00001207047002864D121F47E7323F007037F
:1059D000002B5ED111F0010F07D02F4B12F0010FF9
:1059E0004FF4006014BF1861586111F0020F07D026
:1059F000294B12F0020F4FF4806014BF18615861F8
:105A000011F4007F09D012F4007F03D0224B402014
:105A1000186102E0204B4020586111F4807F09D0CA
:105A200012F4807F03D01C4B1020186102E01A4B47
:105A30001020586111F0040F07D0184B12F0040F1A
:105A40004FF4007014BF1861586111F0080F07D0AF
:105A5000124B12F0080F4FF4806014BF18615861A8
:105A600011F0100F07D00C4B12F0100F4FF4005034
:105A700014BF1861586111F040000BD012F04000C3
:105A8000054B4FF4004202D01A61002070475A6162
:105A900070470120704700BF000C01400008014022
:105AA000002859D121F46A7323F00703002B53D146
:105AB00011F0010304D0294B9B68DB0A03F00103BA
:105AC00011F0020F06D02548806810F4806F18BFCF
:105AD00043F0020311F4007F06D02048806810F0E4
:105AE000400F18BF43F4007311F4807F06D01B48A9
:105AF000806810F0400F18BF43F4807311F0040F5A
:105B000006D01748806810F4007F18BF43F00403E4
:105B100011F0080F06D01248806810F4806F18BF8B
:105B200043F0080311F0200F06D00C48806810F4F1
:105B3000804F18BF43F0200311F0800F06D00849B2
:105B4000896811F4807F18BF43F080030AB91046BA
:105B5000704713600020704701207047000C01401F
:105B600000080140F8B5069E0C4615461F46002861
:105B700040F0E58021F4567323F00703134240F010
:105B8000DE8021F46A7323F00703934340F0D7804B
:105B900011F0010F20D012F0010F0BD0694B16F05D
:105BA000010F4FF4006214BF1A615A6165480B215E
:105BB00003220FE017F0010F09D016F0010F614822
:105BC00002D00B21382205E00B21282202E05D489B
:105BD0000B210422FFF76AFB14F0020F20D015F00E
:105BE000020F0BD0574B16F0020F4FF4806214BF18
:105BF0001A615A6153480A2103220FE017F0020F7D
:105C000009D016F0020F4F4802D00A21382205E0D1
:105C10000A21282202E04B480A210422FFF746FB12
:105C200014F4007F22D015F4007F0DD016F4007F0D
:105C300003D0444B40221A6102E0424B40225A6199
:105C40004048062103220FE017F4007F09D016F424
:105C5000007F3C4802D00621382205E00621282298
:105C600002E0384806210422FFF720FB14F4807F6D
:105C700015D015F4807F0DD016F4807F03D0314B02
:105C800010221A6102E02F4B10225A612D48042184
:105C9000032202E004212B480A46FFF707FB14F019
:105CA000040F13D015F0040F0BD0274B16F0040F80
:105CB0004FF4007214BF1A615A612348092103226C
:105CC00002E0214809210422FFF7F0FA14F0080F3E
:105CD00013D015F0080F0BD01B4B16F0080F4FF424
:105CE000806214BF1A615A6117480A21032202E038
:105CF00015480A210422FFF7D9FA14F0100F04D036
:105D000010480D210322FFF7D1FA14F0400F04D000
:105D10000C480F210322FFF7C9FA14F0200F04D01A
:105D200008480E210422FFF7C1FA14F0800007D0C2
:105D3000054808210422FFF7B9FA0020F8BD012028
:105D4000F8BD00BF000C01400008014010B504463A
:105D500008B1012010BD40210948FEF7CEFC012802
:105D60000CD10848FFF75FFD40B10648FFF77FFD03
:105D700001460348FEF746FC204610BD002010BD3A
:105D800000380140B000002038B50C46054690B9F7
:105D900089B10A48FFF751FD20600848FFF743FD2D
:105DA00060600748FFF749FDA0600548FFF73BFD2D
:105DB000E060284638BD012038BD00BFB00000209B
:105DC000C000002038B50D46144670B969B10848C6
:105DD000FFF729FDA04208D3054829462246FFF7D0
:105DE00078FD201A18BF012038BD012038BD00BF42
:105DF000C000002038B50D46144670B969B1084896
:105E0000FFF71BFDA04208D3054829462246FFF7AD
:105E10008FFD201A18BF012038BD012038BD00BFFA
:105E2000B000002010B5044608B1012010BD03F0F9
:105E3000030C03F060035B090846032B08BF012332
:105E40001146BCF1030F14BF62460122FFF74AFC62
:105E5000204610BD10B5044608B1012010BDFFF763
:105E60001BFC204610BD10B5044608B1012010BD32
:105E70000448FFF72AFD0448FFF727FDFFF7BEFAA5
:105E8000204610BDB0000020C000002044F24F6347
:105E9000984201D9002022E042F22733984201D9EA
:105EA00001201CE041F29313984201D9022016E030
:105EB00040F6C903984201D9032010E040F2644340
:105EC000984201D904200AE040F23223984201D9D5
:105ED000052004E0B0F58D7F2CBF06200720C00010
:105EE0007047003818BF01207047FFF71FBA2DE92F
:105EF000F74F0C46154601930746002860D100294C
:105F00005ED0002A56D15BE02F4B14F807801B7837
:105F1000002B3DD04FF0080A00262C4B18F0800FC4
:105F20004FF40042DFF8A0B014BF1A615A61DFF8E5
:105F30009C909BF80400FFF7D8FF4FF40053C9F87A
:105F400010309BF80400FFF7D0FFD9F80830DFF8D5
:105F50007890760099F8040013F4804FF6B218BFD9
:105F600046F00106FFF7C1FF184B4FF400525A618B
:105F70000AF1FF3A99F804005FFA8AFAFFF7B5FFD1
:105F8000BAF1000F14D04FEA48085FFA88F8C4E766
:105F90000F4BA3F80C800E4B1A8912F0010FFAD0A8
:105FA0009E89B6B20A4B1B8913F0800FFAD1F6B264
:105FB000EE550137019ABBB29342A5D3002000E011
:105FC0000120BDE8FE8F00BF50430020000C0140BF
:105FD0000038004010B5044608B1012010BD0C483F
:105FE000FDF7EAFB0D2104220A48FFF75FF90E21B5
:105FF00004220848FFF75AF90F2104220548FFF749
:1060000055F94FF480402146FDF70EFA204610BDA9
:1060100000380040000C01402DE9F74508B101208F
:1060200062E002F00306022E06D0032E07D0012EF6
:10603000054618BF064604E03546064601E002253F
:1060400001264FF47A7808FB01F7284B4FFA82FAC1
:10605000BAF1000FACBF4FF0800A4FF0000A9F4228
:10606000234B1DD801221A70224A234CB2FBF7F7AA
:106070005F602248FDF7A0FB4FF4005363612046A8
:106080000D210322FFF712F920460F210322FFF70B
:106090000DF920460E213822FFF708F9002023E0F1
:1060A00000241C704FF480400121FDF7BDF9124817
:1060B0000D210B22FFF7FAF80F480E210B22FFF7F4
:1060C000F5F80F210B220C48FFF7F0F8B7FBF8F0BA
:1060D000FFF7DCFE4FF482710246534607480095F5
:1060E0000196FFF7DDF92046BDE8FE85DF220200BC
:1060F0005043002090D00300000C014000380040C5
:1061000010B5054B1A8912F0010FFAD09A89034C89
:10611000A181988190B210BD00380040003001404C
:106120002DE9F04F8BB09DF854601D46F31803F035
:10613000070AA74C0733DB08844609939DF85C00E7
:10614000237808919146BDF850809DF858700690CC
:1061500033B3EA18082A617819DD09FA03F343EA30
:106160000101C9B261706368CDF810C00020984782
:106170002378C3F1080249FA02F9083BED1800231D
:1061800023705FFA89F9EDB2DDF810C008E011FA6A
:1061900005F5002345EA09095FFA89F9D5B22370AC
:1061A00049464FF00009C3462B464A464C46C5E0D7
:1061B0000EB353B1C3F1080E86487645ACBF10F854
:1061C0000E40845DAC40E4B205E0072E01D9FF2407
:1061D00001E08048845D9B19082B08DCDBB2082BAA
:1061E00002D100252E4606E01D46002603E0083BAE
:1061F00003F0FF060823B8F1000F31D0072B2FD88A
:106200000898C8B172B1101810F8014CC5F1080017
:106210000441A845E4B20DD9DDF820E01EF80200E3
:10622000A84004E0089890F800E00EFA05F040EA73
:106230000404E4B2013292B203EB0800082809DC3E
:10624000C3B2082B02D10025A84609E01D464FF035
:10625000000805E0A8F1080898441FFA88F8082308
:1062600007B3072B1ED863B15A48C3F1080E774510
:10627000ACBF10F80E00C05DA84040EA0404E4B2D0
:1062800005E0072F01D9FF2401E05248C45DD81969
:10629000082802DCC3B2002704E0083FFF1807F01B
:1062A000FF07082308EB0600C01930B9013B013095
:1062B00010FA03F343EA0101C9B2454B0592CDF848
:1062C00010C05B6820469847DDF810C0059ABCF105
:1062D000000F31D0B9F1000F2AD0BBF1000F27D049
:1062E0000999894524D3C1EB0903C0B29BB201903F
:1062F000A3B1CAF1080E00FA0EFE591ECDF81CE03B
:106300001CF801E00798CAEB0B0B1FFA8BFB40EA65
:106310000E00D34507900CF8010009D9019941FA04
:106320000AF00CF80300AAF108039B441FFA8BFB48
:1063300009F101091FFA89F900210B4608EB060053
:10634000C01907907FF434AF069A214D02F007037D
:10635000052B08D8C02111416B6889B2CDF810C057
:106360009847C4B214E0069BC026C3F1080116FA90
:1063700001F16B6889B20798CDF810C09847DDF835
:1063800018E0C4B246FA0EF16B68079889B29847D4
:10639000DDF810C0BCF1000F22D0BBF1000F1FD000
:1063A0000998C0EB09091FFA89F3ABB1CAF10801DA
:1063B00014FA01F15A1E1CF802000143D3450CF8EF
:1063C00002100DD944FA0AFA0CF803A008E000BF45
:1063D00058430020D000002044FA0AFA8CF800A0AC
:1063E0000699CC0806E0064B00205B6801469847FA
:1063F000013CE4B2002CF6D10BB0BDE8F08F00BF39
:1064000058430020003818BF0120704710B584465B
:10641000BDF8084008B1012010BD03488160C2608A
:1064200003614461604610BD58430020F8B50C4636
:10643000064608B10120F8BDD5B22F4607E00B4B48
:10644000A15D5B6800209847083FFFB20136072F27
:10645000F5D8EA086FF0070000FB0250C0B220B187
:10646000024B1870A25C00205A70F8BD58430020FF
:10647000034608B10120704702488261C161184695
:10648000704700BF58430020003818BF01207047F4
:1064900070B50C461646054638B1012070BD054B57
:1064A000615D5B68002098470135ABB2B342F6D31B
:1064B000002070BD5843002038B50C46154638B151
:1064C000012038BD044B00205B6829469847013CF9
:1064D000002CF7D1204638BD584300202DE9F84F55
:1064E0000C469DF82C909DF828109DF830B000289F
:1064F00046D1002C44D0D51DED080BB145F4004524
:1065000015F4004F01D1002608E01F4B20785B688E
:1065100098476D046D0C013DADB2012605F1FF3ABF
:106520001FFA8AFAB046374612E05B6814F8080092
:106530000021984717B13B1903F8010C08F1010835
:1065400001370AF1FF3A1FFA88F8BFB21FFA8AFA38
:106550000D4BBAF1000FE8D1AD19013DADB25B684A
:10656000605D4946984715B12B1903F8010C064B9D
:1065700000205B685946984760550020BDE8F88FB9
:106580000120BDE8F88F00BF58430020003818BF35
:1065900001207047F8B50F4616461D46044640B91F
:1065A00039B132B12BB10448056A0698A847204694
:1065B000F8BD0120F8BD00BF5843002010B52048A9
:1065C000FCF7FCF81F48FCF7F9F81F48FCF7F6F851
:1065D00001200021FCF70CFF1C4B4FF0FF32DA606A
:1065E0000D2105321A48FEF761FE0E2104221848DB
:1065F000FEF75CFE0F2104221548FEF757FE03212B
:1066000004221348FEF752FE04210A461048FEF702
:106610004DFE00214FF48050FCF7F8FE00214FF4AE
:106620008040FCF701FF01200021FCF703FD094831
:10663000FDF7C2F80848BDE81040FDF7BDB800BF3F
:10664000440002405800024030000240D0000020C8
:10665000000C0140003800400030014010B50446F5
:1066600008B1012010BDFFF7A9FF204610BD10B5ED
:10667000044608B1012010BDFFF7A0FF204610BD61
:1066800010B5044608B1012010BDFFF797FF204662
:1066900010BD38B505464FF47A740EE02DB1084BA5
:1066A0009B6813F4807F05D038BD054B9B6813F4BD
:1066B000807F04D00120FEF739FE013CEED238BDC8
:1066C00000080140F0B505468FB00C46FFF776FF95
:1066D0008B2D25D94FF480500121FCF797FE4FF404
:1066E00080400121FCF7A0FE01200146FCF7A2FC3E
:1066F0004E480D210B22FEF7D9FD4C480E210B22EE
:10670000FEF7D4FD49480F210B22FEF7CFFD474885
:1067100003210B22FEF7CAFD444804210B221AE094
:10672000424E4FF40053336130460D210322FEF7F1
:10673000BDFD30460E210422FEF7B8FD30460F2184
:106740000322FEF7B3FD304604210322FEF7AEFD1F
:10675000374808210422FEF7A9FD364B8B2DDD605A
:1067600015DD2846FFF792FB022702460126324834
:106770004FF48271802300970196FEF791FE00216D
:106780002E480A46802300970196FEF789FE15B928
:106790000120FFF77EFF64B9284B4FF07F029A81FA
:1067A000254B8B2D9C81264D8CBF264B264B6B6039
:1067B00039E0012C32D18B2D214D2CD92046214698
:1067C000FCF716FE214B802203AE039308920023B0
:1067D0004FF440521E4831460C92049305930693A1
:1067E000079309930A930B930D93FCF757F8194BF2
:1067F00019480393314610230593FCF74FF80E48D0
:1068000021462246FCF7FAFE0C4802212246FCF7FC
:10681000F5FE124B00E0124B2B6204E0084B104ACD
:106820001A62094A5A600FB0F0BD00BF000C014067
:1068300000080140D0000020003800400030014036
:1068400058430020016100089D6900080C38004091
:10685000440002400C30014030000240516A000800
:10686000D568000810B5044608B1012010BD0846DF
:106870000121FFF727FF204610BD10B5044608B1DF
:10688000012010BD08462146FFF71CFF204610BD21
:1068900010B5044608B1012010BD08462146FFF797
:1068A00011FF204610BDF7B515461E46BDF8204025
:1068B000BDF8247060B9FFF7EBFF48B929463246AE
:1068C00023460097FFF7A2FD003818BF012000E023
:1068D0000120FEBD2DE9F04704460D4616469946B7
:1068E000002753E007F007034FF0010A0AFA03FA02
:1068F0005FFA8AFABAF1010F4FEAD70802D10023F2
:1069000009F80830234B4FF400525A61224BD868E3
:1069100008B9FFF7BEFE15F808304FF400421AEA36
:10692000030F1C4B14BF1A615A6116F808301AEA9B
:10693000030F03D0174B10221A6102E0154B1022EF
:106940005A61154BDB682BB14FF4FA7090FBF3F0F2
:10695000FEF7ECFC0F4B4FF400521A619B6813F4E6
:10696000804F05D019F808304AEA030A09F808A050
:10697000094BDB6833B14FF4FA7090FBF3F0FEF78C
:10698000D5FC02E00120FFF784FE0137A742A9D31E
:10699000BDE8F087000C0140D0000020F8B5294B7D
:1069A0004FF000029F8C04460E469A840025254B2A
:1069B0009A8C52089A84244B4FF400525A61234B0C
:1069C000D86808B9FFF765FE1F4B14F0010F4FF4AC
:1069D000004214BF1A615A6116F0010F03D01A4B1E
:1069E00010221A6102E0184B10225A61174BDB6823
:1069F0002BB14FF4FA7090FBF3F0FEF797FC124BBB
:106A00004FF400521A619B6813F4804F04D00D4B71
:106A10009A8C42F080029A840C4BDB6833B14FF4BD
:106A2000FA7090FBF3F0FEF781FC02E00120FFF723
:106A300030FE0135EDB2082D02D064087608B6E7C5
:106A40003846F8BD58430020000C0140D00000201B
:106A50002DE9F047C708BFB20E4615469846002FED
:106A600034D0404B5F60C3F80C801A6842F00102DA
:106A70001A60143B5F60DD601A6842F001021A6020
:106A80000023394A118911F0020FFAD0F15C013369
:106A900091819AB2BA42F4D3344B1A6812F4005F6F
:106AA000FAD04FF400525A60304B1A6812F4007F4B
:106AB000FAD04FF400725A6044331A6822F001028F
:106AC0001A60143B1A6822F001021A6010F0070ADB
:106AD00045D0274C00212748FCF767FD4FF40053B1
:106AE000236120460D210322FEF7E0FB20460E2104
:106AF0000422FEF7DBFB20460F210322FEF7D6FB24
:106B0000204604210322FEF7D1FB08EB0703EA1914
:106B1000F1195046FFF7DEFE01211648FCF745FD4E
:106B200001211448FCF741FD20460D210B22FEF700
:106B3000BDFB20460E210B22FEF7B8FB20460F219D
:106B40000B22FEF7B3FB20460B220321FEF7AEFB20
:106B5000042120460B22BDE8F047FEF7A7BBBDE8A5
:106B6000F08700BF440002400038004000000240AF
:106B7000000C0140003001402DE9F04F89B00D4676
:106B800016469B469DF848A000284CD1294BD71D9E
:106B9000DC694FF000084FF00009FF08CDE90489D7
:106BA000ADF81E0054B10DF11E0200910197029242
:106BB0009A6A012104ABA047002834D1BDF81E30E9
:106BC0000BB92C4600E004AC00961A4E2046337AEE
:106BD00021460193337B012202930323CDF80CB0AD
:106BE000FFF79EFABAF1000F1FD0D6F818C04FF089
:106BF0000009ADF81E90BCF1000F0AD00DF11E0384
:106C000002930094019700200121B26A2B46E047CD
:106C100048B9BDF81E6046B9284621463A46FEF7F7
:106C2000D9FD304602E0012000E0002009B0BDE8B7
:106C3000F08F00BF584300202DE9F04F89B09B46EC
:106C40000E4617469DF848A0034600285AD1D41D89
:106C5000E4082F484FF000084FF00009042CCDE95C
:106C60000489836202D92830042201E028302246B8
:106C7000FEF7B0FD264B4FF00009DD69ADF81E9020
:106C80005DB10DF11E0200960194029200209A6AF5
:106C9000014604ABA847002834D1BDF81E300BB91B
:106CA000354600E004AD0097194F28463B7C294645
:106CB00001933B7D032202930423CDF80CB0FFF730
:106CC0002FFABAF1000F1FD0D7F818C04FF0000309
:106CD000ADF81E30BCF1000F0AD00DF11E03029377
:106CE0000095019400200146BA6A3346E04748B94E
:106CF000BDF81E7047B9304629462246FEF76AFDA8
:106D0000384602E0012000E0002009B0BDE8F08F25
:106D10005843002030B50C4689B00146A8B96846F2
:106D20002022FEF772FD0CE0B4F5807F8CBF4FF49B
:106D30008075E5B2694600202A46FFF777FB20B947
:106D4000641B002CF0D1204600E0012009B030BDCA
:106D5000002330B51A4624E0154C4FF40055256148
:106D60006561A4684FEADC0C14F0400F1FFA8CFC3C
:106D700003F007040BD0012515FA04F410F80C50A9
:106D8000013245EA040400F80C40D2B208E00125C3
:106D900015FA04F410F80C5025EA040400F80C402D
:106DA00001331FFA83FC8C45D6D302F0010030BDBD
:106DB000000C0140002330B51A4619E04FEADC0C04
:106DC00010F80C4003F0070C44FA0CFC1CF0010F07
:106DD00005D00B4C102501322561D2B202E0084CDF
:106DE00010256561064C4FF400552561013365613E
:106DF0001FFA83FC8C45E1D302F0010030BD00BFD7
:106E0000000C014007B5002302A840F8043D024BE6
:106E100008211B6898470EBD84430020064B20B90B
:106E2000064A5A60064A1A6070470649421E59606F
:106E300005491A811960704784430020516D00088C
:106E4000B56D00083D710008CF7000080E289CBF8A
:106E5000014B1870704700BFE0000020014B5881C3
:106E6000704700BF84430020003818BF01207047DE
:106E700038B50B46044638B931B1044918464D6857
:106E80001146A847204638BD012038BD8443002064
:106E9000F8B50D4617460646A0B999B10A4C10231D
:106EA0000322236120460421FEF700FA074B3946EE
:106EB0001B6828469847042120460A46FEF7F6F943
:106EC0003046F8BD0120F8BD000C0140844300208D
:106ED00004210A4610B50548FEF7E8F903480D21DC
:106EE0000422BDE81040FEF7E1B900BF000C0140EC
:106EF00010B5044608B1012010BDFFF7E9FF204698
:106F000010BD04210A4610B50648FEF7CFF9054822
:106F10004FF400530D2103220361BDE81040FEF73A
:106F2000C5B900BF000C014070B514461E460546A9
:106F300008B1012070BD0846FFF788FF2046FFF723
:106F40008DFF3046FFF76AFFFFF7DBFF284670BD75
:106F50002DE9F04F89B08DF80F0000F004008A464B
:106F6000029000264E4D4FF010084E4C032228464A
:106F70000421C5F81080FEF799F9236808210DF166
:106F80000F009847042128460A46FEF78FF9DAF8E1
:106F900000300DEB08071A0A8DF8112023FA08F2C9
:106FA0008DF810301B0E8DF81330029B8DF81220D7
:106FB00006A83D4A03B301926368032198476368BA
:106FC0002021384698470DF1140B81468DF81F009B
:106FD0006368012158469847019A48448DF81F007C
:106FE0001178636858469847C5F8108028460421F0
:106FF0000322FEF75BF918E01178636803319847C4
:1070000028460322C5F810800421FEF74FF92368B3
:10701000202138469847054608A800F8015D2368F6
:107020000121984740198DF81F00FFF7EBFE04215E
:107030001B480A46FEF73AF99DF812309DF81120D8
:107040001B0443EA02233A78069813439DF8132061
:1070500000F0070043EA02630228CAF800300690F5
:107060000FD0042802D0012814D101E0842013E0BD
:107070009DF81F0000F0010000280CBF0120112026
:107080000AE0084B01365B89B6B2B3423FF66AAFFD
:10709000422001E040F0200009B0BDE8F08F00BFC1
:1070A000000C014084430020E000002038B51C465D
:1070B000054650B94AB108461146FFF749FF0CB9D9
:1070C000204638BD2070284638BD012038BD2DE946
:1070D000F0470025044689462E4623E0DB08E25CA3
:1070E00005F0070352FA03F313F0010F05D0114B1B
:1070F000102201361A61F6B202E00E4B10225A61DC
:10710000DFF834A00B4FBAF808004FF40058FEF730
:107110000DF9C7F81080BAF80800FEF707F9013535
:10712000C7F81480ABB24B45D8D306F00100BDE8D8
:10713000F08700BF000C0140844300202DE9F04798
:107140000025044689462E462EE01B4F1B4B4FF46C
:10715000005A1889C7F810A0FEF7E8F8C7F814A07D
:10716000BB684FEAD80813F0400F1FFA88F805F003
:1071700007030BD0012212FA03F314F8082001369A
:1071800042EA030304F80830F6B208E0012212FADA
:1071900003F314F8082022EA030304F80830074B2D
:1071A00001351889FEF7C2F81FFA85F8C845CCD317
:1071B00006F00100BDE8F087000C01408443002088
:1071C0004C4B2DE9F04F1C885F88B3F804B00833AE
:1071D000494D01F103082E6801F1FF3926F001063F
:1071E0002E60464EC5F80480EE602E685FFA89F97D
:1071F00046F001064FF0000C2E6023F8044B5FFAB6
:1072000089F6654614E04FFA89FACCEB0A0A40FA8F
:107210000AFA1AF0010F04D0013523F8027CEDB20E
:1072200001E023F8024C013EF6B20CF1010C0233EE
:1072300016F0800FA3F1020AE5D015F0010F18BF78
:10724000BC462F4D14BFAAF800C0AAF800404FF06A
:10725000010C4FF0000AA3F800A0A5F814C0294DB6
:107260002E6826F001062E60274EC5F80480EE60D9
:107270002E6846F001062E60244D2E6816F4001F7D
:10728000FAD04FF400166E60214E204D2D6815F493
:10729000005F01D1013EF8D11C4D4FF4005CC5F8F0
:1072A00004C04435D5F800C02CF0010CC5F800C06E
:1072B0004FF00A0CC5F804C0DFF838C00CF1220802
:1072C000C5F80C80D5F8008048F00108C5F80080AA
:1072D0006EB10CEB4105B5F824C0DC4502D80020A6
:1072E000BDE8F08F1AB1013A023392B270E7012083
:1072F000BDE8F08F9043002044000240B0430020DE
:10730000000400406C00024098430020000002404E
:10731000FFFF0F00003818BF0120704708B508B103
:10732000012008BD03211422FFF74AFF003818BFCF
:10733000012008BD2DE9F347894614461D4606463F
:1073400000284CD1002A4AD0002944D147E0A71B8D
:10735000FF2F01DDFF2700E0FFB201AB2A0A8DF805
:1073600004505A702A0C9A702A0EDA7002201422E5
:107370000321FFF725FF024688BB38460821FFF7A7
:107380001FFF024658BB9DF806000821FFF718FFB3
:10739000024620BB9DF805000821FFF711FF0246B9
:1073A000E8B99DF804000821FFF70AFF8046B0B94C
:1073B00009EB060A0AE01AF8010B08211422FFF76C
:1073C000FFFE60B908F101085FFA88F8B845F2D30A
:1073D000BE19ED19B6B2A642B9D3002000E00120D3
:1073E000BDE8FC872DE9F04F0D4685B014461E46DA
:1073F0000746002840F0B480002A00F0B180002940
:1074000040F0A980ACE0C7EB0408B8F1FF0FCCBF97
:107410004FF0FF085FFA88F803AB320A8DF80C6072
:107420005A70320C9A70320EDA7001201422032145
:10743000FFF7C6FE0246002840F092804046082131
:10744000FFF7BEFE0246002840F08A809DF80E003D
:107450000821FFF7B5FE0246002840F081809DF824
:107460000D000821FFF7ACFE0246002878D19DF8F8
:107470000C000821FFF7A4FE002871D13A4BB3F8A5
:1074800004C05B880193EB1960E0384A3849096809
:1074900011F4005F01D1013AF8D135494FF4005A97
:1074A000C1F804A000211970002A59D02E4A518C2D
:1074B000614555D202F1200A51460722B1F80490E5
:1074C000E14509D24FF0010B0BFA02FB93F8009053
:1074D0004BEA090983F80090013A0231B2F1FF3F0B
:1074E000ECD1244A116821F0010111600B21516097
:1074F000C2F80CA011684FF0000A41F001011160C0
:107500001949019AA1F80AA00A811B4A4FF0010A01
:10751000A2F814A0194A0831D2F800A02AF0010AF2
:10752000C2F800A04FF0020AC2F804A0D1601168AE
:1075300041F0010111600E4A116811F4001FFAD0E8
:107540004FF4001101305160C0B2013340459CD36B
:1075500047444644BFB2A742FFF455AF002000E0C5
:10756000012005B0BDE8F08F90430020FFFF0F0021
:107570000000024044000240000400406C00024051
:1075800010B5002856D1482393FBF1F398B24B4332
:10759000C3F14803B3EB510F274BC8BF01301A6842
:1075A000022122F001021A60244A596002F12004EB
:1075B000DC601C68C00144F001041C60204B441CCA
:1075C000A4B2B3F82CC09C854FF001049C821081BA
:1075D0004FF0000050819C821A4B083218681FFA45
:1075E0008CFC20F0010018605960DA601A6842F0E3
:1075F00001021A60144B1A6812F4001FFAD04FF4FB
:1076000000125A60114B104A126812F4005F01D147
:10761000013BF8D10C4A4FF400515160084A4FF039
:107620000101A2F82CC0918223B1044B00205A8C96
:107630001A8710BD012010BD440002409043002075
:10764000000400406C00024000000240FFFF0F00F9
:107650002DE9F04704468EB008B10120DCE0704D02
:107660004FF08008288701200146FBF7C1FE012169
:107670000420FBF7D9FE6B48FBF7A0F86846FBF740
:107680002DF9694B4FF480674FF480794FF4005A1D
:10769000644869460093029403940494CDF81480DE
:1076A000CDF8189007970894CDF824A00A94FBF71A
:1076B000F5F801215B48FBF71EF95C48FBF77EF803
:1076C0006846FBF70BF95A4B5848694600930BAED6
:1076D000029403940494CDF81480CDF81890079781
:1076E0000894CDF824A00A94FBF7D8F801214F485C
:1076F000FBF701F93046FCF73AFA4FF00403ADF816
:107700002C304C484FF002033146ADF83030ADF824
:107710002E40ADF83240ADF83440FCF767FD502103
:107720004448FCF7A8FA04214248FCF76DFC4148A4
:107730004146FCF775FC01223E483946FCF757FAF2
:1077400001223C484FF40071FCF751FA01223948FC
:107750002146FCF784FA37480121FCF71AFA314B2D
:1077600020351A68344822F001021A600A225A6051
:10777000DD601A6842F001021A604023436106216D
:107780000322FDF793FD4FF47A70FDF7CFFD06213C
:1077900038222948FDF78AFD4FF4FA70FDF7C6FD3F
:1077A000254840234361062103220134FDF77EFD75
:1077B000E4B24FF4FA70FDF7B9FD042CE7D10025CF
:1077C000062138221C48FDF771FD1B4CFA20FDF7FD
:1077D000ADFD402306210322636120460135FDF7FC
:1077E00065FDEDB2FA20FDF7A1FD042DE8D120469C
:1077F00006213822FDF75AFD1048114B1B6813F47F
:10780000005F01D10138F8D10D4B4FF400525A609E
:10781000D0F1010038BF00200EB0BDE8F08700BFF6
:107820009043002044000240380800400800024015
:107830003408004000080040000C0140FFFF0F002A
:10784000000002402DE9F0470C4692B015469846DC
:1078500008B10120BEE0614B93F83AA0BAF1000FE5
:1078600076D1012683F83A6030463146FBF7C0FDF9
:1078700031460220FBF7D8FD5948FAF79FFF6846CA
:10788000FBF72CF8574B1027009380230593DB1848
:1078900006934FF48063079351484FF48053694631
:1078A00009930DF13C090297CDF80CA0CDF810A07A
:1078B000CDF820A0CDF828A0FAF7F0FF31464848CF
:1078C000FBF719F84846FCF73FF9494646480DF1E1
:1078D0002C09ADF83CA0ADF83EA0ADF840A0ADF845
:1078E00042A08DF844A0FBF799FF4846FCF735F914
:1078F0004FF060004FF00203ADF82C0049463A48C3
:10790000ADF83430ADF82E60ADF832A0FBF7DCFFF7
:1079100035480821FCF740FA33483146FCF708FAAD
:10792000324631484FF40071FCF761F92E48314678
:10793000FCF72FF92C483146FCF738F92B48314633
:10794000FBF778FB2A48042107610F22FDF7AEFC04
:10795000224B1B8F5BB9482292FBF4F293B2624335
:10796000C2F14802B2EB540FA8BF0133DB015D4303
:10797000002D2946B8BF05F17F01C911174A05F04E
:107980007F0589B23F2D118001DD0131118008FB97
:1079900003F8B8F1000F4246B8BF08F17F02D211D8
:1079A0000E4B08F07F0892B2B8F13F0F5A8001DD0C
:1079B00001325A80094B59881A888A1892B202EB10
:1079C000D200094980B2888552084FF001008882B0
:1079D0009A80002012B0BDE8F08700BF90430020DD
:1079E0006C000240340400400004004000081A000B
:1079F000000C014010B5044608B1012010BD04215F
:107A00000A461548FDF752FC21461448FBF712FBC5
:107A10001348FCF789FC21460220FBF705FD1148BD
:107A2000FAF7CCFE21460120FBF7E2FC0E48FCF7FA
:107A30007BFC21460420FBF7F7FC0C48FAF7BEFE5E
:107A40000B48FAF7BBFE01202146FBF7D1FC094B9E
:107A5000204683F83A4010BD000C014000081A008F
:107A6000000400406C000240000800404400024056
:107A70000800024090430020003818BF01207047E2
:107A800070B5049C844608B1012070BD059DED08C9
:107A90001CE01BB113F8016B0E48868109B908463A
:107AA00001E011F8010B0C4EB0810B48008910F079
:107AB000800FFAD11CB10748808904F8010B1AB174
:107AC0000548808902F8010B0CF1010CAC45E0D3AC
:107AD000002070BD003001400038004010B51E4845
