:020000040800F2
:102000000050002079D10008BD560008BF560008D6
:10201000C1560008C3560008C5560008000000005D
:10202000000000000000000000000000C75600088B
:10203000C956000800000000CB560008CD56000825
:10204000BDD10008BDD10008BDD10008BDD1000838
:10205000BDD10008BDD10008BDD10008BDD1000828
:10206000BDD10008BDD10008BDD10008BDD1000818
:10207000BDD10008BDD10008BDD10008BDD1000808
:10208000BDD10008BDD10008BDD10008CF56000861
:10209000D3560008BDD10008BDD10008BDD100084D
:1020A000BDD10008BDD10008BDD10008BDD10008D8
:1020B000BDD10008BDD10008BDD10008BDD10008C8
:1020C000BDD10008BDD10008BDD10008BDD10008B8
:1020D000BDD10008D9560008BDD10008BDD1000807
:1020E000BDD10008BDD10008D7560008000000008F
:1020F00000000000000000000000000000000000E0
:0C21000000000000000000005FF808F183
:10211000384B82B01A6842F001021A605968364A98
:1021200001EA02025A601A6822F0847222F48032B4
:102130001A601A6822F480221A605A6822F4FE0299
:102140005A604FF41F029A600022019200921A68AE
:1021500042F480321A60274B1A6802F4003200926F
:10216000019A01320192009A1AB9019AB2F5A06F50
:10217000F1D11B6813F4003318BF01230093009BB7
:10218000012B34D11D4B1A6842F010021A601A68F4
:1021900022F003021A601A6842F002021A60154B1C
:1021A0005A685A605A685A605A6842F480625A60A3
:1021B0005A6822F47C125A605A6842F4E8125A6053
:1021C0001A6842F080721A600A4B1A6812F0007F97
:1021D000FAD05A6822F003025A605A6842F00202AA
:1021E0005A60044B5B6803F00C03082BF9D102B072
:1021F000704700BF001002400000FFF800200240BE
:10220000164A174B516801F00C01042903D0082924
:1022100004D0144A00E0144A1A6012E05168506871
:1022200001F47011890C023110F4803F01D10F4A82
:1022300005E0526812F4003F14BF0D4A0A4A5143A8
:102240001960064A1968526802F0F00203EB121294
:10225000127931FA02F21A60704700BF0010024092
:102260000000002000127A00001BB70000093D00AA
:10227000808D5B0040F0BE60024B40F42020D860AF
:10228000704700BF00ED00E0C37810B5EBB1154B0F
:102290004178DB688478DB4303F4E0631B0AC3F115
:1022A000040291400F22DA4022400A430E4B01788B
:1022B0001201CB18D2B283F8002303780122590906
:1022C00003F01F0312FA03F307E003780122590910
:1022D00003F01F0312FA03F32031034A42F82130BE
:1022E00010BD00BF00ED00E000E100E021F0604122
:1022F00021F07F01014B01439960704700ED00E040
:10230000044B11B11A69104302E01A6922EA000075
:102310001861704700ED00E0044B04281A680CBFF8
:1023200042F0040222F004021A60704710E000E05C
:10233000134B10B5984207D14FF40070012101F002
:1023400069F84FF4007014E00E4B984207D14FF437
:102350008060012101F05EF84FF4806009E00A4BD3
:1023600098420BD14FF40040012101F053F84FF493
:1023700000400021BDE8104001F04CB810BD00BF86
:102380000024014000280140003C014043680A68E5
:1023900023F4702323F4807313430A7910B543EABE
:1023A000022343608A68CB6884681A43094B04EAB5
:1023B000030342EA03034A7943EA420383600B7C46
:1023C000C26A013B22F47002DBB242EA0353C362E9
:1023D00010BD00BFFDF7F1FF0023036003714371DF
:1023E0008360C36001330374704719B1836843F09D
:1023F000010302E0836823F001038360704719B191
:10240000836843F4807302E0836823F480738360FD
:102410007047C9B212B14368194302E0436823EA26
:10242000010141607047836843F00803836070478F
:102430008068C0F3C0007047836843F00403836082
:1024400070478068C0F38000704719B1836843F417
:10245000A00302E0836823F4A003836070478068D0
:10246000C0F3805070474368013923F4604343EA66
:1024700041334360704719B1436843F4006302E09D
:10248000436823F4006343607047092970B54FEA3D
:1024900041040BD964181E3C0725A540A340C6681B
:1024A00026EA050545EA0304C4600AE06418072526
:1024B000A54013FA04F4066926EA050545EA040373
:1024C0000361062A0CD8013A02EB82021F239340D3
:1024D0009140446B24EA030343EA0102426370BD66
:1024E0000C2A4FEA82030BD89A18233A1F239340F1
:1024F0009140046B24EA030343EA0102026370BDC6
:102500009A18413A1F2393409140C46A24EA030376
:1025100043EA0102C26270BD19B1836843F48013BB
:1025200002E0836823F4801383607047C06C80B23C
:102530007047014B186870474C24014019B143683B
:1025400043F4806302E0436823F480634360704790
:1025500019B1436843F4805302E0436823F4805385
:1025600043607047836823F4E04341EA03038360D8
:10257000704719B1836843F4004302E0836823F491
:1025800000438360704719B1836843F4021302E08B
:10259000836823F40213836070478068C0F340505F
:1025A0007047092970B54FEA41040BD964181E3CE5
:1025B0000725A540A340C66826EA050545EA0304A9
:1025C000C4600AE064180725A54013FA04F40669FC
:1025D00026EA050545EA04030361836B03F440140E
:1025E0006FEA145412190332D2B202EB82021F2492
:1025F0009440914023EA04030B43836370BD836BD3
:10260000013923F4401343EA01538363704782B0D6
:10261000002301930190019BCB180193019B1A6049
:1026200002B0704782B0002301930190019B2833D0
:102630005B180193019B186880B202B07047436831
:1026400023F4400323F4007341EA0303436070471B
:10265000416282627047436823F01F0341EA03032B
:1026600043607047054B18B19A6842F4000202E0DB
:102670009A6822F400029A60704700BF002401406B
:10268000036819420CBF002001207047C943016054
:1026900070474368006810EA112004D0C9B219429B
:1026A0000CBF0020012070476FEA112101607047C4
:1026B000012010B500F0C6FE0020BDE8104000F07B
:1026C000C1BE014B1860704704860D42014B186073
:1026D000704700BF00860D42014B1860704700BF75
:1026E00088860D42044A938D23F460731B041B0CEF
:1026F00040EA030393857047006C0040044A938DC1
:1027000023F07F031B041B0C40EA030393857047EF
:10271000006C004082B000230193044B0193019BA5
:10272000C3180193019B196002B07047006C004010
:1027300082B000230193054B0193019BC3180193C1
:10274000019B188880B202B0704700BF006C004047
:10275000014B1868C0B27047A0860D42034B9A8E99
:1027600092B242F001029A86704700BF006C0040AE
:10277000014B1868C0B27047A4860D42034B9A8E75
:1027800092B242F002029A86704700BF006C00408D
:10279000036823F001030360002303604360836048
:1027A000C3602E4B984229D02D4B984230D02D4BF0
:1027B000984237D02C4B98423ED02C4B984206D1B1
:1027C00053F8542C42F4702243F8542C7047284B91
:1027D000984206D153F8682C42F4700243F8682CF2
:1027E0007047244B984206D153F87C2C42F070621B
:1027F00043F87C2C7047204B984206D153F8042CA8
:1028000042F00F0243F8042C70471C4B984206D14B
:1028100053F8182C42F0F00243F8182C7047184B6C
:10282000984206D153F82C2C42F4706243F82C2CB9
:102830007047144B984206D153F8402C42F4704232
:1028400043F8402C7047104B984205D153F8542C54
:1028500042F4702243F8542C704700BF0800024035
:102860001C00024030000240440002405800024078
:102870006C00024080000240080402401C04024038
:102880003004024044040240580402408A6810B5F3
:102890000C6A036844EA02020C6923F4FE432243F3
:1028A0004C6923F0F00322438C692243CC69224314
:1028B0004C6A22438C6A224342EA03030360CB68DA
:1028C00043600B6883604B68C36010BD00230360E6
:1028D00043608360C360036143618361C3610362DA
:1028E00043628362704719B1036843F0010302E059
:1028F000036823F001030360704712B103681943B2
:1029000002E0036823EA010101607047406880B279
:10291000704710F0805F14BF034B044B1B680342E9
:102920000CBF00200120704700040240000002405C
:1029300010F0805F14BF024B024B5860704700BF1D
:10294000000402400000024010F0805F14BF044BFE
:10295000044B1B6803420CBF00200120704700BFDE
:10296000000402400000024010F0805F14BF024BE0
:10297000024B5860704700BF000402400000024054
:10298000034B1A6802F0380240EA02021A607047EC
:1029900000200240044B1A6822F008021A601A68EC
:1029A00040EA02021A60704700200240044B1A6895
:1029B00022F010021A601A6840EA02021A60704798
:1029C00000200240024B034A5A60034A5A60704793
:1029D0000020024023016745AB89EFCD024B034A3B
:1029E0005A60034A5A60704700200240230167453D
:1029F000AB89EFCD024B1A6942F080021A61704731
:102A000000200240024B1A6942F080021A617047AE
:102A100000200240014BD869800870470020024026
:102A2000014B186A704700BF00200240024BD86972
:102A3000C0F34000704700BF00200240024B1868FE
:102A4000C0F34010704700BF00200240044B11B19A
:102A50001A69104302E01A6922EA000018617047FF
:102A6000002002400128064B03D1D86900F0010084
:102A70007047DB6818420CBF00200120704700BF80
:102A800000200240014BD860704700BF0020024088
:102A90000A4BDA6812F0010F0BD1DA6812F0040F5A
:102AA00009D1D86800F0100000280CBF04200320D2
:102AB0007047012070470220704700BF002002408D
:102AC0000A4BDA6812F0010F0BD1DA6812F0040F2A
:102AD00009D1D86800F0100000280CBF04200320A2
:102AE0007047012070470220704700BF002002405D
:102AF00010B50446FFF7E4FF012805D100E0013CD2
:102B0000002CFCD1052010BD002C08BF052010BDF5
:102B1000F8B5124E124B0446B360124B4FF40050FE
:102B2000B3600D461746FFF7E3FF042815D133695C
:102B300044F0F80443F01003336125430A4B2F435C
:102B40005F804FF40050FFF7D3FF052805D03269AE
:102B500041F6EF7302EA03033361F8BD002002403F
:102B600023016745AB89EFCD00F8FF1F38B5054657
:102B70004FF43020FFF7BCFF042838D11C4C1D4B0C
:102B80004FF43020A3601C4BA360236943F0200363
:102B90002361236943F040032361FFF7A9FF042861
:102BA0001DD1226941F6DF7302EA03032361236921
:102BB00043F010032361114B0DB1002200E0A52268
:102BC0001A804FF43020FFF793FF05280FD0084AF2
:102BD00041F6EF73116901EA0303136138BD05285B
:102BE00005D0226941F6DF7302EA0303236138BD91
:102BF0000020024023016745AB89EFCD00F8FF1F9D
:102C000010B504464FF40050FFF772FF042842D17C
:102C1000214B2249E44399602149E2B29960196944
:102C2000FF2A41F01001196107D01E4B4FF40050EC
:102C30001A81FFF75DFF042822D104F47F431B0AA9
:102C4000FF2B07D0174A4FF400505381FFF750FF76
:102C5000042815D104F47F031B0CFF2B07D0114A65
:102C60004FF400509381FFF743FF042808D1240E4E
:102C7000FF2C08D00B4B4FF40050DC81FFF738FFDE
:102C8000052801D110BD0420034A41F6EF731169F4
:102C900001EA0303136110BD0020024023016745D0
:102CA000AB89EFCD00F8FF1F70B504464FF400501C
:102CB0000E46FFF71DFF042815D10B4D0B4B4FF4AB
:102CC0000050AB600A4BAB602B6943F010032B61E3
:102CD0002680FFF70DFF052805D02A6941F6EF731E
:102CE00002EA03032B6170BD002002402301674507
:102CF000AB89EFCD70B504464FF400500E46FFF798
:102D0000F7FE042811D1094D4FF400502B6943F010
:102D100001032B612680FFF7EBFE052805D02A6909
:102D200041F6FE7302EA03032B6170BD00200240EE
:102D300073B5002304464FF400500E460193FFF78D
:102D4000D7FE04281DD10F4D4FF400502B6943F0DE
:102D500001032B61B3B22380FFF7CAFE042808D118
:102D600002340194019B360C1E804FF40050FFF793
:102D7000BFFE052805D02A6941F6FE7302EA030367
:102D80002B617CBD0020024038B5FFF74FFE0028C4
:102D90000CBFA52500254FF43020FFF7A9FE04281D
:102DA00033D11A4C1A4B4FF43020A360194BA36057
:102DB000236943F020032361236943F04003236127
:102DC000FFF796FE042818D1226941F6DF7302EA64
:102DD0000303236123694FF4005043F01003236180
:102DE0000D4B1D80FFF784FE05280ED0226941F6A9
:102DF000EF7302EA0303236138BD052805D0226979
:102E000041F6EF7302EA0303236138BD002002405C
:102E100023016745AB89EFCD00F8FF1F10B54FF4D4
:102E20003020FFF765FE042814D10B4C4FF43020FE
:102E3000236943F004032361236943F040032361C2
:102E4000FFF756FE052805D0226941F6FB7302EA1A
:102E50000303236110BD00BF0020024038B50546C2
:102E60004FF43020FFF744FE042815D10B4C4FF4EB
:102E70003020236943F0020323616561236943F035
:102E800040032361FFF734FE052805D0226941F68F
:102E9000FD7302EA0303236138BD00BF0020024036
:102EA00010B50446FFF70CFE012805D100E0013CF7
:102EB000002CFCD1052010BD002C08BF052010BD42
:102EC00010B54FF43020FFF7EBFF042814D10B4C62
:102ED0004FF43020236943F004032361236943F056
:102EE00040032361FFF7DCFF052805D0226941F686
:102EF000FB7302EA0303236110BD00BF0020024000
:102F0000234B10B5984205D10420012100F082FA2C
:102F1000042036E01F4B984205D10820012100F023
:102F200079FA08202DE01C4B984205D11020012190
:102F300000F070FA102024E0184B984205D12020B0
:102F4000012100F067FA20201BE0154B984205D1C3
:102F50004020012100F05EFA402012E0114B98421F
:102F600005D18020012100F055FA802009E00E4BA8
:102F700098420BD14FF48070012100F04BFA4FF4CE
:102F800080700021BDE8104000F044BA10BD00BFC1
:102F900000080140000C01400010014000140140F5
:102FA00000180140001C01400020014001200146A2
:102FB00010B500F02FFA01200021BDE8104000F00C
:102FC00029BACB78F0B513F0100F03F00F020E887A
:102FD0001CBF8B781A4316F0FF0F1DD00468002326
:102FE00001279F4007EA0605BD4211D19F004FF01F
:102FF0000F0C0CFA07FC12FA07F724EA0C043C4306
:10300000CF78282F01D1456102E0482F08BF056124
:103010000133082BE4D104600E88FF2E1FD94468C9
:10302000002303F108050127AF4007EA0605BD426A
:1030300011D19F004FF00F0C0CFA07FC12FA07F7A2
:1030400024EA0C043C43CF78282F01D1456102E0EB
:10305000482F08BF05610133082BE2D14460F0BD61
:103060004FF0FF33038002238370DB18C370704777
:10307000836819420CBF002001207047806880B22D
:103080007047C36819420CBF002001207047C06818
:1030900080B2704701617047416170470AB10161B8
:1030A000704741617047C160704741F4803383616C
:1030B0008161836183698369704710B5054A4FF662
:1030C0008073146841EA001104EA030341EA030330
:1030D000136010BD00000140014B1860704700BF35
:1030E0001C00204230B50028174B00F44014B4BF38
:1030F000DB695B68B4F5401F82B207D1124C23F044
:103100007063656825F07065656011E010F4801FDC
:1031100006D000F47024240C032515FA04F403E00F
:10312000440D240112FA04F423EA040343F070630B
:1031300019B1410D09018A401343034A0028B4BF65
:10314000D361536030BD00BF0000014001F00302B5
:1031500030B592000F24944010FA02F2074B890810
:10316000023153F8215025EA040443F8214053F872
:10317000214042EA040443F8214030BD00000140F0
:10318000014B1860704700BFDC0020420D4B1A68ED
:1031900042F001021A6059680B4A01EA02025A60C1
:1031A0001A6822F0847222F480321A601A6822F4BB
:1031B00080221A605A6822F4FE025A604FF41F02FD
:1031C0009A607047001002400000FFF80C4BB0F509
:1031D000803F1A6822F480321A601A6822F4802232
:1031E0001A6003D0B0F5802F09D104E01A6842F4C8
:1031F00080321A6070471A6842F4A0221A60704741
:1032000000100240034B1A6822F0F80242EAC002A2
:103210001A60704700100240014B1860704700BFF1
:1032200000004242044B5A6822F47C1240EA020237
:103230000A435A60704700BF00100240014B1860FB
:10324000704700BF60004242034B5A6822F00302FD
:1032500040EA02025A60704700100240024B586870
:1032600000F00C00704700BF00100240034B5A688A
:1032700022F0F00240EA02025A6070470010024059
:10328000034B5A6822F4E06240EA02025A60704737
:1032900000100240034B5A6822F4605242EAC00216
:1032A0005A60704700100240044B11B11A78104365
:1032B00002E01A7822EA00001870704709100240F4
:1032C000014B1860704700BFD8004242034B5A6858
:1032D00022F4404240EA02025A6070470010024065
:1032E000064B002201281A701A7002D0042804D15B
:1032F00001E01870704705221A70704720100240D4
:10330000014B1860704700BF80044242024B1A6AAA
:1033100040EA02021A62704700100240014B186036
:10332000704700BF3C04424210B5224B5A6802F07D
:103330000C02042A03D0082A04D01F4B00E01F4BC4
:10334000036012E05A68596802F47012920C02325B
:1033500011F4803F01D11A4B05E05B6813F4003F84
:1033600014BF184B154B5A430260124A164B516852
:10337000046801F0F0010909595C34FA01F1416077
:10338000546804F4E064240A1C5D31FA04F4846097
:10339000546804F46054E40A1C5DE140C160526862
:1033A00002F4404203EB92331B7CB1FBF3F1016169
:1033B00010BD00BF0010024000127A00001BB700D1
:1033C00000093D00808D5B0014000020044B11B10A
:1033D0005A69104302E05A6922EA000058617047B6
:1033E00000100240044B11B19A69104302E09A693F
:1033F00022EA00009861704700100240044B11B1AE
:10340000DA69104302E0DA6922EA0000D861704705
:1034100000100240044B11B1DA68104302E0DA6890
:1034200022EA0000D860704700100240044B11B13E
:103430001A69104302E01A6922EA00001861704715
:1034400000100240014B1860704700BF4004424228
:10345000014B1860704700BF4C004242014B18708E
:10346000704700BF071002404309012B074A01D1F2
:10347000136803E0022B0CBF136A536A00F01F00AD
:1034800033FA00F000F00100704700BF0010024066
:1034900007B5002301933120FFF7E6FF019B0133BD
:1034A0000193019BB3F5A06F01D00028F3D0312028
:1034B000FFF7DAFF003818BF01200EBD024B5A6A31
:1034C00042F080725A62704700100240034B9B68C2
:1034D00018420CBF00200120704700BF00100240BE
:1034E000014B1870704700BF0A100240154B10B511
:1034F00098420BD101214FF48050FFF78BFF4FF41E
:1035000080500021BDE81040FFF784BF0E4B984269
:1035100007D14FF480400121FFF788FF4FF480402E
:1035200009E00A4B98420BD14FF400400121FFF70C
:103530007DFF4FF400400021BDE81040FFF776BF4B
:1035400010BD00BF0030014000380040003C00408A
:103550000B8810B54C88028844EA03038C8802F477
:1035600041522343CC8823430C8923434C89234372
:103570008C892343CC89234342EA03039BB2038013
:10358000838B23F400631B041B0C83830B8A03824D
:1035900010BDF0B5838B87B023F47A6323F01F034B
:1035A0001B041B0C8383022303848B68868B022BF2
:1035B00004460D46B6B223D001A88F88FFF7B4FEAB
:1035C000EB88002F14BF02270127B3F5007F019A73
:1035D0004FF00A0301D1120A02E07F01B2FBF7F2B9
:1035E0005343A9680A22B3FBF1F305339BB2B3FB43
:1035F000F2F303F0010212025B089BB292B200E008
:103600000022991E89B2FE2928BF0022E98828BF1E
:10361000022313430B439BB223842B886A8846EA18
:10362000030343F400631343AA881343AA89134393
:103630009BB2A38307B0F0BD002303804380838047
:10364000C380038143818381C38107230382704741
:1036500000230222038043808380C38082608381B1
:10366000704721B103889BB243F0400304E0038814
:1036700023F040031B041B0C0380704721B1838B94
:103680009BB243F4806304E0838B23F480631B04C8
:103690001B0C83837047090901238B409BB21AB12D
:1036A000828892B2134303E0828892B222EA030333
:1036B000838070471AB183889BB2194303E08388E3
:1036C0009BB223EA01018180704781817047808924
:1036D00080B270474FF6FF63994204D003889BB2D3
:1036E00043F4807304E0038823F480731B041B0CF1
:1036F0000380704721B183889BB243F0040304E048
:10370000838823F004031B041B0C83807047038809
:1037100023F400631B041B0C038003889BB241EA63
:1037200003030380704703889BB243F480530380F4
:10373000704721B103889BB243F4005304E003882F
:1037400023F400531B041B0C03807047012902D093
:10375000008B80B27047808A80B27047008A80B246
:103760007047B1F5804F04D103889BB243F4804386
:1037700004E0038823F480431B041B0C0380704780
:10378000038919420CBF002001207047C94389B248
:1037900001817047012301F00F0213FA02F210B504
:1037A00084880089A4B280B2104005D009098B40FA
:1037B0001C420CBF0020012010BD01F00F010123AD
:1037C0008B40DB439BB20381704700BF30B5048C54
:1037D00024F001042404240C0484048B058C24F0BC
:1037E000F304240425F00205240C2D0442EA040409
:1037F0002D0C44EA031445F00105A4B20D430483E3
:10380000058430BD30B5048C24F010042404240C4D
:103810000484048B058C24F4407425F020052405D1
:103820002D04240D2D0C44EA022445F0100544EA31
:10383000033445EA0115A4B2ADB20483058430BD5A
:103840005A4B10B5984207D14FF400600121FFF7A1
:10385000E1FD4FF40060A2E0B0F1804F05D10120FE
:103860000146FFF7E3FD012007E0514B984209D1E3
:1038700002200121FFF7DAFD02200021BDE81040FF
:10388000FFF7D4BD4B4B984205D104200121FFF72F
:10389000CDFD0420F1E7484B984205D108200121D5
:1038A000FFF7C4FD0820E8E7444B984205D11020FB
:1038B0000121FFF7BBFD1020DFE7414B984205D106
:1038C00020200121FFF7B2FD2020D6E73D4B984292
:1038D00007D14FF400500121FFF79CFD4FF4005039
:1038E0005DE0394B984207D14FF400200121FFF7EA
:1038F00091FD4FF4002052E0344B984207D14FF431
:1039000080100121FFF786FD4FF4801047E0304B17
:10391000984207D14FF400100121FFF77BFD4FF4CF
:1039200000103CE02B4B984205D140200121FFF7CD
:103930007DFD4020A1E7284B984205D18020012140
:10394000FFF774FD802098E7244B984207D14FF48D
:1039500080700121FFF76AFD4FF480708DE7204BE6
:10396000984207D14FF480300121FFF753FD4FF407
:10397000803014E01B4B984207D14FF400300121F6
:10398000FFF748FD4FF4003009E0174B98420BD188
:103990004FF480200121FFF73DFD4FF480200021EE
:1039A000BDE81040FFF736BD10BD00BF002C014040
:1039B0000004004000080040000C004000100040DF
:1039C0000014004000340140004C01400050014010
:1039D0000054014000180040001C0040002000403E
:1039E000004001400044014000480140204A038853
:1039F00090429BB20ED01F4A90420BD0B0F1804F44
:103A000008D01D4A904205D01C4A904202D01C4A60
:103A1000904206D14FF68F7203EA02024B8842EAC7
:103A20000303184A904209D0174A904206D04FF635
:103A3000FF4203EA0202CB8842EA030303808B8839
:103A400083850B8803850A4B98420BD0094B98421B
:103A500008D00E4B984205D00D4B984202D00D4B2A
:103A6000984201D10B7A038601238382704700BFFD
:103A7000002C0140003401400004004000080040D8
:103A8000000C0040001000400014004000400140C5
:103A90000044014000480140038C70B523F001034D
:103AA0001B041B0C0384038C8488028B0D8822F07A
:103AB00073021204120C2A434E880D8923F002036C
:103AC0001B0446EA05051B0CADB245EA0303164D7F
:103AD000A4B2A8420BD0154DA84208D0144DA8425C
:103AE00005D0144DA84202D0134DA84215D14FF66F
:103AF000F77503EA05054B89CE891D434FF6FB7325
:103B000005EA03038D882B434FF6FF4504EA0505BC
:103B10008C8946EA0404A4B22C4384800283CA88B8
:103B20008286038470BD00BF002C01400034014038
:103B3000004001400044014000480140038C30B582
:103B400023F010031B041B0C0384038C8288048B5A
:103B50000D8824F4E6442404240C23F0200344EAD2
:103B600005241B040D891B0C43EA05134D8892B2F2
:103B700043EA0513134DA4B2A8429BB202D0124DE2
:103B8000A84219D14FF67F7503EA05054B8945EA2E
:103B900003154FF6BF7305EA03038D8843EA051347
:103BA0004FF2FF3502EA05058A899BB245EA820594
:103BB000CA8945EA820292B28280CA880483028757
:103BC000038430BD002C014000340140038C30B52B
:103BD00023F480731B041B0C0384038C8288848B66
:103BE0000D8824F073042404240C23F400731B04B4
:103BF0002C430D891B0C43EA05234D8892B243EAFE
:103C00000523134D9BB2A84202D0124DA84219D1F0
:103C10004FF2FF7503EA05054B8945EA03254FF688
:103C2000FF3305EA03038D8843EA05234CF6FF754D
:103C300002EA05058A899BB245EA0215CA8945EA66
:103C4000021292B28280CA8884838287038430BD44
:103C5000002C014000340140038C30B523F4805324
:103C60001B041B0C0384038C8488828B0D8822F434
:103C7000E6421204120C23F4005342EA05221B040C
:103C80000D891B0C43EA05334D88A4B243EA053382
:103C90000B4D92B2A8429BB202D00A4DA84207D166
:103CA0004BF6FF7504EA05058C8945EA8414A4B235
:103CB00084808283CA88A0F84020038430BD00BF7E
:103CC000002C0140003401404A880B8842EA03037B
:103CD0008A881343CA8813430A8913434A891343C2
:103CE0008A8913439BB2A0F8443070474FF0FF33EA
:103CF000838000230380C3804380037270470023C6
:103D0000038043808380C380038143818381C38197
:103D1000704700230122038043808280C380038197
:103D200070470023038043808380C38003814381E5
:103D30008381704721B103889BB243F0010304E003
:103D4000038823F001031B041B0C0380704739B167
:103D5000B0F844306FEA43436FEA53439BB203E049
:103D6000B0F844305B045B0CA0F8443070471AB1E3
:103D700083899BB2194303E083899BB223EA010143
:103D800081817047818270470A43A0F848207047BC
:103D90001AB183899BB2194303E083899BB223EA5A
:103DA000010181817047038923F007031B041B0C69
:103DB0000381704710B50489E4B241EA040442EA81
:103DC000040444EA0324A4B2048110BD10B50446DF
:103DD000FFF7F0FF23899BB243F48043238110BD9A
:103DE00010B50446FFF7E6FF238923F077031B0491
:103DF0001B0C43F07703238110BD0185828270473D
:103E0000038823F070031B041B0C41EA03030380A7
:103E10007047038923F070031B041B0C41EA030362
:103E20000381704738B50D46602D0446114603D115
:103E30000122FFF7E7FC02E00122FFF7C7FC204662
:103E40002946FFF7E6FF23899BB243F0070323814E
:103E500038BD10B50446FFF7DCFF23899BB243F061
:103E60000703238110BD70B50489068B058C26F4E9
:103E7000407625F0220526F003062D0424F00704E1
:103E800036042D0C2404360C42EA0505240C46F4B5
:103E9000807645EA0315214346F00106ADB2018163
:103EA0000683058470BD038B23F070031B041B0C79
:103EB00041EA030303837047038B23F4E0431B04AD
:103EC0001B0C43EA01239BB203837047838B23F0CF
:103ED00070031B041B0C41EA030383837047838B2D
:103EE00023F4E0431B041B0C43EA01239BB28383AE
:103EF000704721B103889BB243F0800304E003883C
:103F000023F080031B041B0C0380704721B18388BE
:103F10009BB243F0040304E0838823F004031B04F2
:103F20001B0C8380704721B183889BB243F0080348
:103F300004E0838823F008031B041B0C8380704774
:103F400021B183889BB243F0010304E0838823F00E
:103F500001031B041B0C83807047038B23F00803B1
:103F60001B041B0C41EA030303837047038B23F4F8
:103F700000631B041B0C43EA01239BB203837047BD
:103F8000838B23F008031B041B0C41EA0303838388
:103F90007047838B23F400631B041B0C43EA01234B
:103FA0009BB283837047038B23F004031B041B0C19
:103FB00041EA030303837047038B23F480631B04EC
:103FC0001B0C43EA01239BB203837047838B23F0CE
:103FD00004031B041B0C41EA030383837047838B98
:103FE00023F480631B041B0C43EA01239BB28383ED
:103FF0007047038B23F080031B041B0C41EA03036F
:1040000003837047038B5B045B0C43EA01239BB281
:1040100003837047838B23F080031B041B0C41EA4E
:10402000030383837047838B5B045B0C43EA0123A8
:104030009BB283837047038C23F002031B041B0C89
:1040400041EA030303847047038C23F008031B0435
:104050001B0C41EA030303847047038C23F0200305
:104060001B041B0C43EA01139BB203847047038CAF
:1040700023F080031B041B0C43EA01139BB203844F
:104080007047038C23F400731B041B0C43EA0123C9
:104090009BB203847047038C23F400631B041B0C46
:1040A00043EA01239BB203847047038C23F400533B
:1040B0001B041B0C43EA01339BB2038470470123AA
:1040C0008B4012FA01F110B5048CA4B224EA030368
:1040D0000384038C41EA03039BB2038410BD0423D1
:1040E0008B4012FA01F110B5048CA4B224EA030348
:1040F0000384038C41EA03039BB2038410BD30B5F3
:1041000001248C40058C00F11803ADB225EA0404AB
:10411000048409B1082906D14908C85820F0700064
:10412000C850C85809E0043989B24908C858120271
:1041300020F4E040C850C85892B240EA0202CA5087
:1041400030BD21B103889BB243F0020304E0038831
:1041500023F002031B041B0C0380704721B103886A
:104160009BB243F0040304E0038823F004031B0420
:104170001B0C0380704721B183889BB243F08003FE
:1041800004E0838823F080031B041B0C83807047AA
:10419000038823F008031B041B0C038003889BB2D5
:1041A00041EA030303807047838823F070031B04F4
:1041B0001B0C838083889BB241EA03038380704792
:1041C000038923F007031B041B0C038103899BB2A3
:1041D00041EA030303817047038923F080031B0432
:1041E0001B0C038103899BB241EA030303817047DF
:1041F0008184704781857047818670470187704749
:1042000081877047A0F840107047038B23F00C03A0
:104210001B041B0C0383038B9BB241EA0303038340
:104220007047038B23F440631B041B0C0383038B35
:104230009BB243EA01239BB2038370472DE9F0410F
:104240000C46A2884988B4F800E0054600290CBF56
:1042500002270027012A14BF012602262389BEF166
:10426000000F10D1FFF7B2FA2846E188FFF7CDFF23
:104270002846394632462389FFF7C4FAE1882846A2
:10428000BDE8F041CDE7FFF7BDFA2846E188FFF72A
:10429000C8FF2846394632462389FFF797FAE18856
:1042A0002846BDE8F041B0E7838B23F00C031B04E4
:1042B0001B0C8383838B9BB241EA03038383704788
:1042C000838B23F440631B041B0C8383838B9BB27F
:1042D00043EA01239BB2838370470B882DE9F041A9
:1042E0000D4604464988AA883BB92B89FFF76EFA28
:1042F000E9882046BDE8F04187E7042B07D12B89E8
:10430000FFF780FAE9882046BDE8F04189E7082BED
:10431000B5F8088023D1B0F820C02CF4807C4FEA97
:104320000C4C4FEA1C4CA0F820C0878B068C27F061
:10433000F30726F400763F0436043F0C360C47EAB8
:10434000081746EA0121BFB289B247EA020241F4E6
:10435000807182830184E988BDE8F041A4E7078C7D
:1043600027F480573F043F0C0784868B038C26F488
:10437000407623F4005336051B04360D1B0C46EA29
:10438000022243EA013342EA08329BB2E98892B240
:1043900043F4805382830384BDE8F04190E70388AF
:1043A00023F440731B041B0C038003889BB241EA77
:1043B000030303807047808E80B27047008F80B205
:1043C0007047808F80B27047B0F8400080B270476D
:1043D000808C80B27047008D80B27047038A19428A
:1043E0000CBF002001207047C94389B20182704789
:1043F000038A828911EA030092B203D011420CBFF2
:10440000002001207047C94389B20182704700BF74
:10441000204B10B598420BD101214FF48040FEF79C
:10442000F9FF4FF480400021BDE81040FEF7F2BFD5
:10443000194B984207D14FF400300121FEF7F6FFE7
:104440004FF400301FE0154B984207D14FF4802005
:104450000121FEF7EBFF4FF4802014E0104B98424F
:1044600007D14FF400200121FEF7E0FF4FF40020B8
:1044700009E00C4B98420BD14FF480100121FEF75C
:10448000D5FF4FF480100021BDE81040FEF7CEBFED
:1044900010BD00BF0038014000440040004800400B
:1044A000004C00400050004030B5038ACA8823F415
:1044B00040531B041B0C134303820D468389098957
:1044C000AA8823F4B05341EA0202698923F00C035D
:1044D0000A431B041B0C92B242EA03038381838AC2
:1044E000AA8923F440731B041B0C87B013430446B2
:1044F000838201A8FEF718FF184BA2899C4212B2D2
:104500000CBF049B039B002A4FF019012A6802DAB2
:104510005943520001E0594392006423B1FBF2F188
:10452000B1FBF3F21201100903FB1011A08900B2D4
:10453000002806DAC9003231B1FBF3F303F00703B8
:1045400005E009013231B1FBF3F303F00F0343EA55
:10455000020292B2228107B030BD00BF0038014094
:104560004FF4165303600C2200238380C380038121
:104570004281838170470A8810B54C88038A44EAD7
:1045800002028C88C98823F4706322431B040A4307
:104590001B0C92B242EA0303038210BD0023038086
:1045A00043808380C380704721B183899BB243F4E9
:1045B000005304E0838923F400531B041B0C838104
:1045C0007047CBB210B55B09012401F01F0114FA4A
:1045D00001F1A34201D10C3004E0022B01D11030D3
:1045E00000E014301AB1036843EA010102E00368F5
:1045F00023EA0101016010BD1AB1838A9BB21943FD
:1046000003E0838A9BB223EA010181827047038A17
:1046100023F00F031B041B0C0382038A9BB241EAA5
:10462000030303827047838923F400631B041B0C7C
:10463000838183899BB241EA03038381704721B15F
:1046400083899BB243F0020304E0838923F00203D1
:104650001B041B0C83817047038A23F020031B0477
:104660001B0C0382038A9BB241EA03030382704757
:1046700021B1038A9BB243F4804304E0038A23F40C
:1046800080431B041B0C03827047C905C90D818040
:1046900070478088C005C00D704783899BB243F086
:1046A000010383817047038BDBB20383038B9BB2CF
:1046B00043EA012303837047038B03F47F4303839F
:1046C000038B9BB241EA03030383704721B1838AC2
:1046D0009BB243F0200304E0838A23F020031B04F1
:1046E0001B0C8382704721B1838A9BB243F0100375
:1046F00004E0838A23F010031B041B0C83827047A1
:1047000021B1838A9BB243F0080304E0838A23F03B
:1047100008031B041B0C8382704731B183896FEA45
:1047200043436FEA53439BB202E083895B045B0C13
:104730008381704721B1838A9BB243F4006304E014
:10474000838A23F400631B041B0C83827047838AD3
:1047500023F004031B041B0C8382838A9BB241EA6F
:1047600003038382704721B1838A9BB243F0020323
:1047700004E0838A23F002031B041B0C838270472E
:10478000038819420CBF002001207047C94389B239
:104790000180704710B5CCB20122640901F01F03FB
:1047A0009A40012C01D1838903E0022C0CBF038ABB
:1047B000838A9BB202EA0303028892B243B1090AD8
:1047C000012313FA01F111420CBF0020012010BD9A
:1047D000184610BD090A01238B40DB439BB20380BE
:1047E000704700BF01F10051013201F5405110B591
:1047F0004900520808E010F8014C10F8023C013A58
:1048000043EA042321F8043C02300431002AF2D1A7
:1048100010BD01F10051013201F54051490052082B
:1048200004E051F8043B013A20F8023B002AF8D199
:1048300070470000014B1860704700BF405C0040AB
:10484000014B186880B27047405C0040014B186013
:10485000704700BF445C0040014B186880B270474D
:10486000445C0040014B186880B27047485C0040CF
:10487000014B1860704700BF4C5C0040014B18684A
:1048800080B270474C5C00404FF6F873024A00EA71
:1048900003031360704700BF505C0040014B186871
:1048A00080B27047505C0040800000F1804000F50D
:1048B000B84001607047800000F1804000F5B840CA
:1048C000006880B27047800000F1804000F5B84079
:1048D000026848F68F1302EA03030B430360704734
:1048E000800000F1804000F5B840006800F4C0602E
:1048F0007047800000F1804000F5B840026848F63B
:10490000BF7302EA030301F0100292B20AB183F00E
:10491000100301F0200189B209B183F0200343F4B0
:10492000004343F0800303607047800000F1804043
:1049300000F5B84002684BF68F7302EA030301F4F6
:10494000805292B20AB183F4805301F4005189B2CB
:1049500009B183F4005343F4004343F08003036040
:10496000704738B50D460446FFF7A5FF012D08D165
:10497000A40004F1804404F5B84420F48050206081
:1049800038BD022D07D1A40004F1804404F5B844D9
:1049900020F01000206038BD800000F1804000F55C
:1049A000B840006800F030007047800000F180409F
:1049B00000F5B840006800F440507047800000F1F6
:1049C000804000F5B840026848F6BF7302EA03036E
:1049D00083F0300343F4004343F0800303607047E7
:1049E000800000F1804000F5B84002684BF68F73FC
:1049F00002EA030383F4405343F4004343F080038B
:104A000003607047800000F1804000F5B840026804
:104A100040F60F6302EA030343F4004343F4C07318
:104A200003607047800000F1804000F5B8400268E4
:104A300040F60F6302EA030343F4004343F08003AC
:104A400003607047800000F1804000F5B8400268C4
:104A500040F60F6302EA030343F4004343F080038C
:104A600003607047800000F1804000F5B8400268A4
:104A700040F60F6302EA030343F4004343F4C073B8
:104A800003607047800000F1804000F5B840026884
:104A900040F60F6302EA030343F4004343F4C07398
:104AA00003607047800000F1804000F5B840026864
:104AB00040F60F6302EA030343F4004343F080032C
:104AC00003607047800000F1804000F5B840006846
:104AD00000F03000A0F11003584240EB0300704793
:104AE000800000F1804000F5B840006800F44050BC
:104AF000A0F58052504240EB02007047800000F168
:104B0000804000F5B840026840F68F7302EA030364
:104B100003607047800000F1804000F5B8400268F3
:104B200048F60F7302EA030303607047800000F148
:104B3000804000F5B840026840F60F7302EA0303B4
:104B400043F4404343F0800303607047800000F16A
:104B5000804000F5B840026840F60F7302EA030394
:104B600043F4004343F0C00303607047800000F14A
:104B7000804000F5B840036813F4804F09D0026804
:104B800040F60F7302EA030343F4404343F080030B
:104B900003607047800000F1804000F5B840036872
:104BA00013F0400F09D0026840F60F7302EA0303C6
:104BB00043F4004343F0C00303607047800000F1FA
:104BC000804000F5B840036841F4004140F60F72A0
:104BD00041F0800103EA020241EA020202607047EA
:104BE000800000F1804000F5B840006800F00F0040
:104BF0007047084B4FF6FE721B6801EA02029BB237
:104C000003EBC00303F1005303F540535B001A604C
:104C1000704700BF505C0040064B074A1B689BB2C0
:104C200003EBC0039A184FF6FE73520001EA030328
:104C300013607047505C004004300020054B1B6837
:104C40009BB203EBC00303F1005303F540535B0039
:104C500018887047505C0040044B054A1B689BB2A3
:104C600003EBC0039A18520010887047505C004054
:104C700004300020044B054A1B689BB203EBC003C1
:104C80009A18520011607047505C004002300020BA
:104C90003E2909D94B0911F01F0F01D1013B9BB2ED
:104CA0009B0243F4004305E04B0811F0010F18BFCD
:104CB00001339B02036070470D4B1A680D4B92B293
:104CC000D31803EBC0035B003E2909D94A0911F050
:104CD0001F0F01D1013A92B2920242F4004205E064
:104CE0004A0811F0010F18BF013292021A60704792
:104CF000505C004006300020054B064A1B689BB202
:104D000003EBC0039A18520010688005800D7047AD
:104D1000505C004002300020054B064A1B689BB2E5
:104D200003EBC0039A18520010688005800D70478D
:104D3000505C0040063000200D4B30B51C681B68ED
:104D4000C0009BB2A4B20419C0180A4B04F100546D
:104D5000C3184FF6FE7501EA050504F540545900E5
:104D60004FF6FE73640002EA030325600B6030BD5A
:104D7000505C004004300020074B4FF6FE721B6869
:104D800001EA02029BB203EBC00303F1005303F5F7
:104D900040535B001A607047505C0040064B074A66
:104DA0001B689BB203EBC0039A184FF6FE735200C8
:104DB00001EA030313607047505C00400430002098
:104DC000054B1B689BB203EBC00303F1005303F5D3
:104DD00040535B0018887047505C0040044B054A04
:104DE0001B689BB203EBC0039A18520010887047EF
:104DF000505C004004300020012910B524D1254B1F
:104E000025491B68C0009BB2591809184B003E2A5F
:104E100009D9510912F01F0F01D1013989B2890254
:104E200041F4004105E0510812F0010F18BF0131B3
:104E300089021960174B1968184B89B2CB181818DA
:104E400040003E2A1ED912E0022922D11149C00099
:104E50000C68114BA4B20419E3185B001A600B68CC
:104E60009BB2C0180D4BC3185B001A6010BD5309EC
:104E700012F01F0F01D1013B9BB29B0243F4004390
:104E8000036010BD530812F0010F18BF01339B02DD
:104E9000036010BD505C004002300020063000204E
:104EA00001291BD1134B1968134B89B2CB1803EBA3
:104EB000C00040003E2A09D9530912F01F0F01D14A
:104EC000013B9BB29B0243F4004305E0530812F000
:104ED000010F18BF01339B0203607047022908D1FC
:104EE000044B1B689BB203EBC000034BC3185B0071
:104EF0001A607047505C00400230002001291BD12D
:104F0000134B1968134B89B2CB1803EBC000400058
:104F10003E2A09D9530912F01F0F01D1013B9BB260
:104F20009B0243F4004305E0530812F0010F18BF41
:104F300001339B0203607047022908D1044B1B68B0
:104F40009BB203EBC000034BC3185B001A607047B1
:104F5000505C004006300020054B064A1B689BB29F
:104F600003EBC0039A18520010688005800D70474B
:104F7000505C004002300020054B064A1B689BB283
:104F800003EBC0039A18520010688005800D70472B
:104F9000505C0040063000200D4BC0001A680D49DF
:104FA00092B28218511849000A8812F47C4F0DD130
:104FB0001B689BB2C018084BC3185B00188880059B
:104FC000800D002814BF0220002070470120704788
:104FD000505C0040063000200230002001290FD133
:104FE000800000F1804000F5B840026840F60F7381
:104FF00002EA030343F4004343F0C0030360704735
:1050000002290ED1800000F1804000F5B84002680E
:1050100040F60F7302EA030343F4404343F0800376
:105020000360704741EA00207047C3B2000A40EABB
:105030000320704708B5054B00201B681B68984784
:1050400000F0BCF800F0D2F8FCE700BFE40000205C
:105050002DE9F041274D80462B680F46002B03DADF
:1050600001236B60013BAB60D8F80C303846DB6F36
:105070009847D8F80C303846D3F8983098471D4CEC
:10508000AA68D8F80C30064604F10C018918D3F848
:105090009C30384632469847D8F80C303846D3F81A
:1050A0009430012198470EB3A3689BB9237B0F2B43
:1050B00008D80A2B04D1627BA37B07321B0207E0CE
:1050C000266007E013F0800F04D1A37B627B1B02F4
:1050D0009B182360AA68074BB618AE602A68A968B7
:1050E000914203D31A6842F000421A600020BDE8E2
:1050F000F08100BF1C010020CB6810B55B6C022062
:105100000C46984768B9E36803305B6F984750B91D
:10511000E36803301B6F05499847003818BF01202A
:1051200010BD012010BD012010BD00BF515000086E
:1051300073B51D4C1D4E2368002B17DA1C4B4FF422
:1051400080425A61204650F80C1B89B207F0D4FF08
:10515000D6F81C3E33B1D6F81C3E43F00043C6F8E7
:105160001C3E00E023600023A36002E0012000F069
:1051700053FAD6F81C3E0D4D002B0EDA0D4B0E489F
:105180000093D5F81C3E02216A46ADF8043005F0C4
:1051900085FC00232360C5F81C3E054B4FF480427C
:1051A0001A6100207CBD00BF1C0100200C230020E0
:1051B000000801402801002028000020084B202280
:1051C00010B55A61074C084B4FF480421A6104F144
:1051D0005C0006F07DF82046BDE8104005F07EBB7F
:1051E000000C0140280000200008014008B507F02D
:1051F000BDFF002008BD00BF70B507294FF00F05A7
:1052000002EA050409D88B009D409C40066826EA06
:10521000050545EA040303600AE0A1F108039B00C9
:105220009D409C40466826EA050545EA0403436024
:1052300012F0200F0BD012F0100F4FF0010303D02B
:1052400013FA01F1016170BD13FA01F1416170BD02
:1052500010B501214FF48040FEF7C4F809210B225C
:105260000448FFF7C9FF03480A210422BDE81040A3
:10527000C2E700BF0008014013B52523002401A8A0
:105280008DF804308DF805408DF806408DF8074004
:10529000FCF7FAFF0948FFF7BBF821464FF48040BE
:1052A000FEF7A0F8092104220548FFF7A5FF0448EE
:1052B0000A210422FFF7A0FF1CBD00BF00380140F7
:1052C00000080140F0B5044687B027481F46154640
:1052D000FFF79EF8252300268DF8143005A8243BFF
:1052E0008DF815608DF816608DF81730FCF7CCFF3F
:1052F000012F019403D00AD3022F08D102E04FF40A
:10530000405301E04FF40053ADF80A3001E0ADF82E
:105310000A60012D03D00CD3022D0AD102E04FF414
:10532000C06301E04FF48063ADF80C304FF480535C
:1053300002E00023ADF80C30ADF808300C23ADF8D6
:105340000E3001A900230848ADF81030FFF7ACF883
:10535000054840F225510122FFF733F902480121A7
:10536000FFF722F907B0F0BD00380140014608B54B
:10537000044800F0FBF9012803D0034B4FF400422E
:105380005A6108BDC000002000080140002070479D
:1053900010B5FDF7FBFE4FF48030FDF717FFFEF769
:1053A00077F80128044626D11020FDF7FFFA0220E5
:1053B000FDF7E6FA0020FDF759FF0020FDF76AFF30
:1053C0004FF48060FDF75CFF4FF480304FF48011A4
:1053D000FDF728FF2046FDF731FF3920FEF744F89E
:1053E0000028FAD00220FDF72FFFFDF737FF8008D5
:1053F000C0B20228F9D10020FDF762FF0D20012183
:10540000FDF7F0FF4FF400000121BDE81040FDF76B
:10541000F5BF70B5082104221548FFF7EDFE154CC5
:105420000020FDF753F94FF4804609213822104837
:10543000FFF7E2FE20460E2103222661FFF7DCFE85
:105440000B4D4FF40043236120232B6120460F2195
:105450000322FFF7D1FE284605210322FFF7CCFEE9
:10546000002128460A466661BDE87040C4E600BFD8
:10547000000C01400008014013B54FF400514FF0FB
:105480000060FCF733FF4FF4A060FCF7F3FE2A2323
:1054900001248DF8043001A8283B8DF806308DF8E2
:1054A00005408DF80740FCF7EFFE142301A88DF8A6
:1054B00004308DF805408DF806408DF80740FCF764
:1054C000E3FE13238DF8043001A8133B8DF805404B
:1054D0008DF806308DF80740FCF7D6FE1CBD2DE98F
:1054E000F0410E4D0026BDF818E0BDF81C70698033
:1054F0004FF400712E80AE80698101362946044642
:10550000A5F806E02F81AA81EB812E82FEF720F814
:1055100020463146BDE8F041FEF7A3B82C410020FB
:1055200010B5012186B04FF40070FDF75BFF1A48FB
:10553000FCF7FEFE012400234FF46022164801A967
:105540000193039204938DF808408DF809408DF87B
:105550001440FCF71BFF1048082122460523FCF7E6
:1055600094FF0D482146FCF740FF0B48FCF75BFF1A
:105570000948FCF75DFF0028FAD10748FCF75CFFFB
:105580000548FCF75EFF0028FAD103480121FCF72B
:105590005CFF06B010BD00BF0024014008B5FFF756
:1055A000F7FE0D480121FDF79DFDFFF765FFFFF7B1
:1055B00030FFFFF7B5FF094B00201A6822F0020206
:1055C0001A601A6842F004021A601A6822F0010296
:1055D0001A60986008BD00BF0004300010E000E0D1
:1055E000024B9A7C01329A74704700BF2C41002014
:1055F000024B9A7C0AB1013A9A7470472C41002000
:1056000008B50448FCF792FF41F6C8135843000B55
:1056100080B208BD0024014038B50F4C05466369CF
:105620000133B3F5803F636114D300236361FFF757
:10563000E7FFB0F5E16F208301D202F097FB4DB197
:10564000238B4FF40042B3F5E16F044B01D95A614B
:1056500038BD1A6138BD00BF2C4100200008014050
:1056600082B001901AE0019B0F4A934298BF019AC1
:10567000482151430D4B5960196841F001011960EF
:105680000A4B196811F4803FFAD0196821F0010122
:10569000196000219960019B9A1A0192019B002BCD
:1056A000E1D102B0704700BF400D030010E000E000
:1056B0004FF47A735843D3E7704770477047FEE75B
:1056C000FEE7FEE7FEE7704770477047704704F05B
:1056D00007BE04F03BBE704710B5074840F22551A5
:1056E000FFF758F838B10448FEF7D3FFC0B2BDE861
:1056F0001040FFF73BBE10BD0038014010B5034617
:1057000003E011F8014B03F8014B013AF9D210BD47
:1057100030B5002307E0C55CCC5C0133A54201D065
:10572000281B30BD013A002AF5DC002030BDC9B28B
:10573000034602E003F8011B013A002AFADC704735
:105740000130884228BF002070478268C3689A42AF
:1057500001D3D01A704740681218D01A704710B59C
:105760000446FFF7F2FF6368181A10BD38B5044607
:105770000D46FFF7F4FF012809D9A3682268D55424
:10578000A0686168FFF7DCFFA060012038BD002041
:1057900038BD70B5154604460E46FFF7E0FF85425A
:1057A00025D2A36862682068D21A954211D9C01820
:1057B0003146FFF7A3FFA368616820685A1AC91A27
:1057C00052197118FFF79AFFA2686368D31A5B1920
:1057D0000BE0C0182A463146FFF790FFA3686268C5
:1057E000EB189342A36003D10023A36000E00025DF
:1057F000284670BD70B5044615460E46FFF7A5FF56
:10580000E3686268A84238BF0546D21A954221680B
:1058100011D9C9183046FFF771FF6368E268216843
:10582000981AD21A52193018FFF768FFE2686368B5
:10583000D31A5B190BE0C9182A463046FFF75EFF02
:10584000E3686268EB189342E36001D10023E360F0
:10585000284670BD38B50446FFF777FF38B1E068D9
:10586000236861681D5CFFF76BFFE06000E00546A0
:10587000284638BD8268C3689A4236BF4068C3EB89
:105880000200C3EB000070470268C368D3180B60C6
:10589000F0E738B504460D46FFF7ECFFE368A84291
:1058A00028BF28466268C3189342E36001D10023F1
:1058B000E36038BD0023C3608360704700207047F9
:1058C000002070470020704708B5FFF7C9FE002090
:1058D00008BD08B5FFF7ECFE002008BD003818BF72
:1058E00001207047003818BF01207047F8B5069EA8
:1058F0000C4615461F46002840F0E48021F45673FC
:1059000023F00703134240F0DD8021F46A7323F093
:105910000703934340F0D88011F0010F21D012F01B
:10592000010F0BD0694B16F0010F4FF4006214BF4A
:105930001A615A6165480B21032210E017F0010F2C
:105940000AD016F0010F03D060480B21382206E080
:105950005E480B21282202E05C480B210422FFF75D
:105960004BFC14F0020F21D015F0020F0BD0574B57
:1059700016F0020F4FF4806214BF1A615A61534847
:105980000A21032210E017F0020F0AD016F0020FCE
:1059900003D04E480A21382206E04C480A2128222A
:1059A00002E04A480A210422FFF726FC14F4007F93
:1059B00021D015F4007F0BD0444B16F4007F4FF03C
:1059C000400214BF1A615A6140480621032210E0C8
:1059D00017F4007F0AD016F4007F03D03B4806215D
:1059E000382206E039480621282202E037480621FD
:1059F0000422FFF701FC14F4807F13D015F4807F9C
:105A00000BD0324B16F4807F4FF0100214BF1A6196
:105A10005A612E480421032202E004212B480A4641
:105A2000FFF7EAFB14F0040F13D015F0040F0BD0AE
:105A3000274B16F0040F4FF4007214BF1A615A611D
:105A400023480921032202E0214809210422FFF70B
:105A5000D3FB14F0080F13D015F0080F0BD01C4B1C
:105A600016F0080F4FF4806214BF1A615A6118488B
:105A70000A21032202E016480A210422FFF7BCFB98
:105A800014F0100F04D011480D210322FFF7B4FBCE
:105A900014F0400F04D00D480F210322FFF7ACFB98
:105AA00014F0200F04D009480E210422FFF7A4FBB4
:105AB00014F0800009D0064808210422FFF79CFB5F
:105AC0000020F8BD0120F8BD0120F8BD000C014008
:105AD0000008014010B5002860D121F47E7323F046
:105AE0000703002B5CD111F0010F07D02D4B12F0F2
:105AF000010F4FF4006014BF1861586111F0020FDC
:105B000007D0284B12F0020F4FF4806014BF1861C9
:105B1000586111F4007F07D0224B12F4007F4FF040
:105B2000400014BF1861586111F4807F07D01D4BED
:105B300012F4807F4FF0100014BF1861586111F00B
:105B4000040F07D0184B12F0040F4FF4007014BF6D
:105B50001861586111F0080F07D0134B12F0080FAD
:105B60004FF4806014BF1861586111F0100F07D016
:105B70000C4B12F0100F4FF4005014BF1861586115
:105B800011F040000DD012F04000064B4FF40044DD
:105B900002D01C61002010BD5C6110BD012010BD51
:105BA000012010BD000C014000080140002856D122
:105BB00021F46A7323F00703002B50D111F0010385
:105BC00003D0294B9B68C3F3C02311F0020F06D00A
:105BD0002548806810F4806F18BF43F0020311F469
:105BE000007F06D02048806810F0400F18BF43F4B3
:105BF000007311F4807F06D01B48806810F0400FBE
:105C000018BF43F4807311F0040F06D01748806862
:105C100010F4007F18BF43F0040311F0080F06D002
:105C20001248806810F4806F18BF43F0080311F029
:105C3000200F06D00C48806810F4804F18BF43F046
:105C4000200311F0800F06D00849896811F4807F85
:105C500018BF43F0800322B1136000207047012079
:105C600070471046704700BF000C0140000801401B
:105C700010B5044648B90648FFF71CFE0548FFF773
:105C800019FEFFF7E5FA204610BD012010BD00BF48
:105C9000B0000020C000002010B5044618B9FFF77E
:105CA000EBFA204610BD012010BD38B5154604465C
:105CB0001A469DF8103028B908462946FFF702FB1E
:105CC000204638BD012038BD38B50D46144670B9A0
:105CD00069B10948FFF743FDA0420AD306482946A7
:105CE0002246FFF756FD201A18BF012038BD0120BB
:105CF00038BD012038BD00BFB000002038B50D46CA
:105D0000144670B969B10948FFF71FFDA0420AD3D4
:105D1000064829462246FFF76DFD201A18BF0120CC
:105D200038BD012038BD012038BD00BFC0000020B3
:105D300038B50C46054690B999B10B48FFF70FFDF1
:105D400020600948FFF701FD60600848FFF707FD84
:105D5000A0600648FFF7F9FCE060284638BD012046
:105D600038BD012038BD00BFB0000020C0000020B9
:105D700010B5044690B940210A48FEF701FD0128FC
:105D80000ED10948FFF7E1FC58B10748FFF762FD63
:105D900001460448FEF779FC204610BD012010BDE5
:105DA000204610BD00380140B0000020FFF758BC6D
:105DB00044F24F63984219D842F22733984217D8D9
:105DC00041F29313984215D840F6C903984213D86C
:105DD00040F26443984211D840F2322398420FD8DF
:105DE000B0F58D7F34BF072006200AE0002008E0D0
:105DF000012006E0022004E0032002E0042000E08D
:105E00000520C0007047003818BF0120704710B54A
:105E10000446C0B90D48FDF769FB0D480D21042269
:105E2000FFF7EAF90A480E210422FFF7E5F90848CE
:105E30000F210422FFF7E0F94FF480402146FDF7DF
:105E4000DDFA204610BD012010BD00BF0038004023
:105E5000000C01402DE9F74398469DF82870044650
:105E6000002855D14FF47A7606FB01F52A4B12F043
:105E700020097FB218BF4FF00209002FACBF802766
:105E800000279D42254B1CD801221A70244A254820
:105E9000B2FBF5F55D60244DFDF728FB4FF4005390
:105EA0006B6128460D210322FFF7A6F928460F2132
:105EB0000322FFF7A1F928460E213822FFF79CF9AB
:105EC00024E0187001214FF48040FDF797FA16483E
:105ED0000D210B22FFF790F913480E210B22FFF73B
:105EE0008BF90F210B221048FFF786F9B5FBF6F06E
:105EF000FFF75EFFC8F380130246019309484FF491
:105F000082713B46CDF80090FFF7E9FA204600E0A9
:105F10000120BDE8FE8300BFDF22020048430020CD
:105F200090D0030000380040000C01402DE9F74FED
:105F30000C46019300285BD1002959D0002A57D084
:105F4000924606464EE02C4BA75D1A789846002AEA
:105F500037D04FF008090025284B17F0800F4FF479
:105F6000004214BF1A615A6198F80400DFF88CB03F
:105F7000FFF71CFF4FF40053CBF8103098F80400E3
:105F8000FFF714FFDBF808306D0098F8040013F4F5
:105F9000804FEDB218BF45F00105FFF707FF174B23
:105FA0004FF400525A6109F1FF3998F804005FFA82
:105FB00089F9FFF7FBFEB9F1000F10D07F00FFB2A7
:105FC000CAE70F4B9F810E4B1A8912F0010FFAD0CE
:105FD0009D89EDB20A4B1B8913F0800FFAD10AF8A4
:105FE000015B0136019AB3B29342ACD3002000E0CA
:105FF0000120BDE8FE8F00BF48430020000C014097
:106000000038004010B5054B1A8912F0010FFAD084
:106010009A89034CA181988190B210BD003800404C
:10602000003001402DE9F04F8DB09DF85C601446C2
:10603000984A06EB030B84461D469DF864000BF05E
:10604000070A13780BF1070B4FEADB0B0A91BDF837
:1060500058909DF860700890CDF82CB090464BB3E6
:10606000EA18082A98F801101BDD14FA03F343EA32
:106070000101C9B2D8F8043088F801100020CDF829
:1060800014C0984798F80030C3F108021441083B47
:10609000ED18002388F80030E4B2EDB2DDF814C04A
:1060A00008E011FA05F5002345EA0404E4B2D5B28C
:1060B00088F800304FF0000B50462146CDF81CB058
:1060C0005C465A462B46CA468346C4E0FEB14BB1F5
:1060D000C3F108047048A642ACBF045D845DAC40C7
:1060E000E4B204E0072E9ABF6B48845DFF249B193D
:1060F000082B05DCDBB2082B07D01D46002606E086
:10610000083B03F0FF06082301E000252E46B9F105
:10611000000F38D0072B36D80A9800B3079880B103
:106120000A9C04EB000E1EF8014CC5F10800044166
:10613000A945E4B20DD90A98DDF81CE010F80EE08C
:1061400002E00A9890F800E00EFA05F040EA040434
:10615000E4B2079800F1010E1FFA8EF0079003EBEE
:106160000900082806DCC3B2082B0AD01D464FF0F0
:10617000000908E0A9F1080999441FFA89F90823E0
:1061800001E00025A946FFB1072B1DD863B14248A5
:10619000C3F1080E7745ACBF10F80E00C05DA840F3
:1061A00040EA0404E4B204E0072F9ABF3A48C45D11
:1061B000FF24D819082802DCC3B2002704E0083FF6
:1061C000FF1807F0FF07082309EB0600C01930B9D4
:1061D000013B013010FA03F343EA0101C9B2D8F8D8
:1061E000043020460692CDF814C09847DDF814C05C
:1061F000069ABCF1000F2CD04AB3BAF1000F26D09A
:106200000B998A4223D3531AC0B29BB20190A3B117
:10621000CBF1080E00FA0EFE591ECDF824E01CF852
:1062200001E00998CBEB0A0A1FFA8AFA40EA0E004D
:10623000DA4509900CF8010009D9019941FA0BF0EF
:106240000CF80300ABF108039A441FFA8AFA0132F2
:1062500092B200210B4609EB0600C01909907FF4A9
:1062600035AF089C5B46934652469A4604F00703B6
:10627000052B4FF0C00511D855FA04F1D8F80430B9
:1062800089B20692CDF814C09847069AC4B2DDF8D8
:1062900014C01DE050430020D0000020DDF820E0B5
:1062A000D8F80430CEF1080115FA01F10692CDF8C4
:1062B00014C089B209989847C4B20898D8F8043035
:1062C00055FA00F1099889B29847DDF814C0069A8A
:1062D000BCF1000F1CD0DAB10B99C1EB0B0B1FFA0C
:1062E0008BF38BB1CAF1080014FA00F0591E1CF8A8
:1062F0000150524540EA05000CF8010008D944FA63
:106300000AFA0CF803A003E044FA0AFA8CF800A099
:10631000089BDC0806E00020D8F8043001469847C6
:10632000013CE4B2002CF6D10DB0BDE8F08F10B501
:106330001F48FCF72DFA1F48FCF72AFA1E48FCF705
:1063400027FA01200021FDF741F81C4B4FF0FF32E6
:10635000DA600D2105321A48FEF74EFF0E210422A5
:106360001748FEF749FF0F2104221548FEF744FFA6
:10637000032104221248FEF73FFF04210A46104879
:10638000FEF73AFF00214FF48050FDF72BF8002173
:106390004FF48040FDF732F801200021FCF7A2FE07
:1063A0000848FDF7A3F80848BDE81040FDF79EB87F
:1063B000440002405800024030000240D00000205B
:1063C000000C0140003800400030014038B505465F
:1063D0004FF47A740DE0084B25B19B6813F4807F6D
:1063E00004D038BD9B6813F4807F04D00120FFF7F0
:1063F00037F9013CEFD238BD00080140F0B5054641
:106400008FB00C46FFF793FF8B2D25D94FF48050AA
:106410000121FCF7E7FF4FF480400121FCF7EEFF7C
:1064200001200146FCF75EFE4B480D210B22FEF7D2
:10643000E3FE49480E210B22FEF7DEFE46480F21FF
:106440000B22FEF7D9FE444803210B22FEF7D4FEAF
:10645000414804210B221AE03F4E4FF400533361B0
:1064600030460D210322FEF7C7FE30460E210422DE
:10647000FEF7C2FE30460F210322FEF7BDFE304676
:1064800004210322FEF7B8FE344808210422FEF757
:10649000B3FE334B8B2DDD6015DD2846FFF788FCFE
:1064A0000227024601262F484FF48271802300976D
:1064B0000196FFF714F800212B480A468023009725
:1064C0000196FFF70CF815B90120FFF77FFF274E63
:1064D00044B9254B7F229A81224B8B2D9C8136D942
:1064E000234B35E0012C30D18B2D2BD92046214672
:1064F000FCF76CFF1F4B80220393089200234FF49C
:1065000040521D4803A90C920493059306930793E8
:1065100009930A930B930D93FCF7B8F9174B18489E
:10652000039303A910230593FCF7B0F90D48214606
:106530002246FDF7BFF80C4802212246FDF7BAF8C3
:10654000104B00E0104BB36003E00F4BB3600F4BF8
:1065500073600FB0F0BD00BF000C014000080140A7
:10656000D00000200038004000300140504300209F
:10657000056000080C380040440002400C30014027
:10658000300002400D670008916500085966000858
:106590002DE9F84F04460D4616469A46002752E06C
:1065A00007F007034FF0010909FA03F95FFA89F9C7
:1065B000B9F1010F4FEAD70802D100230AF80830D9
:1065C000234B4FF40052DFF88CB05A61DBF80C001B
:1065D00008B9FFF7FBFE15F808304FF4004219EA3E
:1065E000030F1B4B14BF1A615A6116F808301022B2
:1065F00019EA030F164B14BF1A615A61DBF80C300D
:106600002BB14FF4FA7090FBF3F0FFF729F8104B21
:106610004FF400521A619B6813F4804F05D01AF8AA
:10662000083049EA03090AF80890DBF80C3033B166
:106630004FF4FA7090FBF3F0FFF712F802E001203C
:10664000FFF7C4FE0137A742AAD3BDE8F88F00BF09
:10665000000C0140D00000202DE9F843284D002314
:10666000B5F80C9004460F46AB810826AB894FF471
:1066700000525B08AB81234BDFF88C805A61D8F85D
:106680000C0008B9FFF7A2FE1E4B14F0010F4FF4E7
:10669000004214BF1A615A611A4B17F0010F4FF0F4
:1066A000100214BF1A615A61D8F80C302BB14FF4A4
:1066B000FA7090FBF3F0FEF7D3FF124B4FF4005249
:1066C0001A619B6813F4804F03D0AB8943F08003B9
:1066D000AB81D8F80C3033B14FF4FA7090FBF3F083
:1066E000FEF7BEFF02E00120FFF770FE013EF6B2AA
:1066F00016B164087F08B9E74846BDE8F88300BFD3
:1067000050430020000C0140D00000202DE9F0474C
:10671000C708BFB20E4615469846002F35D0404BED
:106720005F60C3F80C801A6842F001021A6043F8F7
:10673000107C43F8085C53F8142C42F0010243F833
:10674000142C0023374A118911F0020FFAD0F15CA2
:10675000013391819AB2BA42F4D3334B1A6812F4DE
:10676000005FFAD04FF400525A602F4B1A6812F4AF
:10677000007FFAD04FF400725A605A6C22F0010286
:106780005A641A6B22F001021A6310F0070945D00F
:10679000264C00212648FCF764FF4FF40053236188
:1067A00020460D210322FEF727FD20460E2104225C
:1067B000FEF722FD20460F210322FEF71DFD204695
:1067C00004210322FEF718FD08EB0703EA194846E7
:1067D000F119FFF7DDFE01211548FCF742FF012109
:1067E0001348FCF73EFF20460D210B22FEF704FD67
:1067F00020460E210B22FEF7FFFC20460F210B2224
:10680000FEF7FAFC204603210B22FEF7F5FC20469A
:1068100004210B22BDE8F047FEF7EEBCBDE8F0878F
:10682000440002400038004000000240000C0140DB
:1068300000300140003818BF0120704710B50446F1
:1068400018B9FFF774FD204610BD012010BD10B52A
:10685000044628B908462146FFF7D0FD204610BD62
:10686000012010BD30B5BDF80C4028B9034D296199
:106870006A61AB61EC6130BD012030BD5043002046
:10688000F7B515461E46BDF82040BDF8247060B926
:10689000FFF7DDFF48B92946324623460097FFF748
:1068A000E1FF003818BF012000E00120FEBDF8B56F
:1068B0000C46D0B9D5B22E460F4607E00C4B00204F
:1068C0005B6817F8011B9847083EF6B2072EF5D80B
:1068D000EA086FF0070000FB0250C0B230B1044B71
:1068E0001870A25C00205A70F8BD0120F8BD00BFEE
:1068F0005043002030B50C4689B00146A8B968461F
:106900002022FEF714FF0CE0B4F5807F94BFE5B2BF
:106910004FF48075694600202A46FFF7C8FF20B96A
:10692000641B002CF0D1204600E0012009B030BDEE
:1069300018B9034B1A62596270470120704700BFB3
:10694000504300202DE9F047904688B09A46002237
:1069500000230F469DF84090CDE90423002858D12C
:1069600008F10704E4082E4E042CB06203D906F1A6
:106970002800042202E006F128002246FEF7BEFEAF
:10698000756A0023ADF81E3065B10DF11E03029348
:10699000234B0097019400209A6A014604ABA84754
:1069A000002836D1BDF81E300BB104AD00E03D46E5
:1069B000CDF80080337E28460193337F2946029329
:1069C00003220423DFF85880CDF80CA0FFF72AFB40
:1069D000B9F1000F1BD0D8F820600022ADF81E20BE
:1069E0005EB10DF11E030293009501940020014653
:1069F000D8F828203B46B04758B9BDF81E6056B9B4
:106A0000384629462246FEF779FE304604E04846DD
:106A100002E0012000E0002008B0BDE8F08700BFE0
:106A2000504300202DE9F047174688B09A460022CF
:106A300000230D469DF84090CDE9042300284AD15B
:106A4000284BFE1D5C6AF608ADF81E00984654B14E
:106A50000DF11E020091019602929A6A012104AB87
:106A6000A047002837D1BDF81E300BB104AC00E0C0
:106A70002C46009798F810302046019398F814306F
:106A80002146029301220323164FCDF80CA0FFF7F5
:106A9000C9FAB9F1000F1CD0D7F820C00023ADF817
:106AA0001E30BCF1000F0AD00DF11E0302930094BA
:106AB000019600200121BA6A2B46E04758B9BDF87B
:106AC0001E7057B9284621463246FEF717FE384653
:106AD00004E0484602E0012000E0002008B0BDE8E4
:106AE000F08700BF50430020003818BF01207047D6
:106AF00010B5044618B9FFF71AFC204610BD012056
:106B000010BD10B5044628B908462146FFF776FCAB
:106B1000204610BD012010BD70B5164670B90D4657
:106B2000044607E0064B00205B6815F8011B9847F8
:106B30000134A4B2B442F5D3002070BD012070BD71
:106B40005043002038B50C46154630B109E0064BDD
:106B500000205B6829469847013C002CF7D120466D
:106B600038BD012038BD00BF504300202DE9F84F4B
:106B70000C469DF82CA09DF828109DF830B00028F8
:106B800040D1002C41D0D51DED080BB145F4004596
:106B900015F4004F1E4F09D06D046D0C7B682078F2
:106BA000013D9847ADB24FF0010801E04FF00008F9
:106BB00005F1FF391FFA89F946460DE07B68A05DB3
:106BC0000021984716B1A31903F8010C013609F109
:106BD000FF39B6B21FFA89F9B9F1000FEED1454479
:106BE000013DADB27B68605D5146661998470DB1B5
:106BF00006F8010C7B680020594698476055002034
:106C0000BDE8F88F0120BDE8F88F0120BDE8F88FBE
:106C100050430020003818BF0120704710B50446CB
:106C200018B9FFF784FB204610BD012010BD10B538
:106C3000044628B908460121FFF7E0FB204610BDB5
:106C4000012010BDF8B50F4616461D46044640B952
:106C500039B132B13BB1054885680698A84720464E
:106C6000F8BD0120F8BD0120F8BD00BF5043002051
:106C7000002370B51A461FE0124C4FF400562661EF
:106C80006661A468ED0814F0400F03F007040AD011
:106C9000012616FA04F4ADB2465D013246EA040458
:106CA0004455D2B207E0012616FA04F4ADB2465DAF
:106CB00026EA0404445501339DB28D42DCD302F030
:106CC000010070BD000C0140002330B51A4616E0EB
:106CD000E408055D03F0070455FA04F414F0010F0D
:106CE0004FF01005094C03D001322561D2B200E00B
:106CF0006561064C4FF400552561013365619CB216
:106D00008C42E5D302F0010030BD00BF000C014011
:106D10002DE9F047002504468A462E4622E0DB088E
:106D2000E25C05F0070352FA03F313F0010F4FF092
:106D30001002104B03D001361A61F6B200E05A611E
:106D4000DFF834900B4FB9F800004FF40058FEF70D
:106D500087FCC7F81080B9F80000FEF781FC013508
:106D6000C7F81480ABB25345D9D306F00100BDE893
:106D7000F08700BF000C01407C4300202DE9F84F54
:106D8000002504468B462E4632E01D4FDFF87490F6
:106D90004FF4005AC7F810A0B9F80000FEF760FCE5
:106DA000C7F814A0BB684FEAD80813F0400F05F0ED
:106DB00007030DD0012212FA03F31FFA88F814F822
:106DC0000820013642EA030304F80830F6B20AE06C
:106DD000012212FA03F31FFA88F814F8082022EAB5
:106DE000030304F80830B9F80000FEF739FC013558
:106DF0001FFA85F8D845C8D306F00100BDE8F88F22
:106E0000000C01407C43002007B5002302A840F895
:106E1000043D024B08215B6898470EBD7C4300206F
:106E20002DE9F04F00F0040B87B088468DF807007D
:106E30005FFA8BFB00264C4D10274C4C0322284652
:106E400004212F61FEF7D8F9636808210DF10700CE
:106E5000984704210A462846FEF7CEF9D8F80030B4
:106E6000DFF80C911A0A8DF8092033FA07F28DF831
:106E700008301B0E8DF80A208DF80B30BBF1000F87
:106E80001ED0A36803210DEB07009847A3682021BB
:106E900002A89847A36882468DF81700012103A82D
:106EA000984750448DF8170099F80010A36803A87C
:106EB00098472F61284604210322FEF79DF919E027
:106EC00099F80010A368033104A8984728460322C4
:106ED0002F610421FEF790F96368202102A89847EA
:106EE000054606A800F8015D63680121984740192E
:106EF0008DF81700FFF788FF04211B480A46FEF7AC
:106F00007BF99DF80A309DF809201B0443EA02230F
:106F10009DF80820049813439DF80B2000F007000B
:106F200043EA02630228C8F8003004900CD0042819
:106F300015D0012810D19DF8170000F0010000289D
:106F400014BF112001200BE00136A389B6B2B34271
:106F50003FF671AF422003E040F0200000E08420C3
:106F600007B0BDE8F08F00BF000C01407C4300205B
:106F7000E000002004210A4610B50648FEF73CF95F
:106F800004484FF400530D2103220361BDE8104073
:106F9000FEF732B9000C014004210A4610B505483D
:106FA000FEF72AF903480D210422BDE81040FEF740
:106FB00023B900BF000C0140064B20B9064A9A6075
:106FC000064A5A607047064A01389A60054A188096
:106FD0005A6070477C430020716C0008C96C00083F
:106FE0007D6D0008116D00080E289CBF014B1870C4
:106FF000704700BFE0000020014B9881704700BF40
:107000007C430020003818BF0120704710B50446AB
:1070100018B9FFF7C1FF204610BD012010BD70B5A3
:1070200014461E46054660B90846FFF7DDFF2046B8
:10703000FFF7E2FF3046FFF7BFFFFFF79BFF284651
:1070400070BD012070BDF8B50E4617460546A0B9C3
:10705000A9B10C4C10230322236120460421FEF722
:10706000CBF8094B39465B683046984704212046E7
:107070000A46FEF7C1F82846F8BD0120F8BD0120F8
:10708000F8BD00BF000C01407C43002038B50B4622
:10709000044638B941B1054918468D681146A847DC
:1070A000204638BD012038BD012038BD7C4300207A
:1070B00038B51C46054640B93AB108461146FFF7B7
:1070C000AFFE24B12070284638BD012038BD2046CF
:1070D00038BD00BF464B2DE9F04FB3F81AC01D8BE9
:1070E000B3F81CB0434C01F1030A266801F1FF38E4
:1070F00026F001062660404EC4F804A0E66026682B
:107100005FFA88F846F001062660002423F8045B45
:107110004746264613E04FFA88F9C4EB090940FABE
:1071200009F919F0010F04D0013623F802CCF6B2A8
:1071300001E023F8025C013FFFB20134023317F093
:10714000800FA3F10209E6D0002406F001061C809E
:10715000002E0CBF2E466646284C23F8026C0126F2
:10716000A682274C266826F001062660204EC4F829
:1071700004A0E660266846F001062660214C2668D9
:1071800016F4001FFAD04FF4001666601E4E1D4C18
:10719000276817F4005F01D1013EF8D14FF4005782
:1071A0006760144C276827F0010727600A2767608B
:1071B0000F4F07F12008C4F80C80D4F8008048F085
:1071C0000108C4F800804EB107EB41077C8C5C4598
:1071D00007D94AB1013A023392B283E70120BDE8F0
:1071E000F08F0020BDE8F08F0120BDE8F08F00BFD8
:1071F0008C43002044000240AA43002000040040C9
:107200006C00024000000240FFFF0F00003818BF72
:107210000120704710B5044600282CD104210A46ED
:107220001648FDF7E9FF21461548FBF75BFF1548B7
:10723000FCF706FB21460220FCF7E0F81248FBF7BA
:10724000A7FA21460120FCF7C1F81048FCF7F8FA2C
:1072500021460420FCF7D2F80D48FBF799FA0D48B7
:10726000FBF796FA01202146FCF7B0F80A4B2046BE
:1072700083F8364010BD012010BD00BF000C014056
:1072800000081A00000400406C00024000080040A2
:1072900044000240080002408C4300202DE9F047E2
:1072A0000C4692B015469946002840F0BA805F4FD0
:1072B00097F836A0BAF1000F73D101263046314657
:1072C00087F83660FCF782F831460220FCF796F822
:1072D0005748FBF75DFA6846FBF7F8FA554B4FF055
:1072E0001008009380230593DB1806934FF4806306
:1072F00007934F484FF4805369460993CDF80880AF
:10730000CDF80CA0CDF810A0CDF820A0CDF828A085
:10731000FBF7BCFA31464648FBF7E5FA0FA8FCF745
:10732000E5FC0FA94448ADF83CA0ADF83EA0ADF88F
:1073300040A0ADF842A08DF844A0FCF757FB0BA885
:10734000FCF7DDFC60210223ADF82C103A480BA9B4
:10735000ADF83430ADF82E60ADF832A0FCF79CFBF0
:1073600035480821FCF7F9FD33483146FCF7C1FDEB
:10737000324631484FF40071FCF70AFD2E48314681
:10738000FCF7D8FC2C483146FCF7E1FC2B48314691
:10739000FBF7A8FE2A480421C0F810800F22FDF751
:1073A0002BFF3B8F5BB9482292FBF4F293B262430E
:1073B000C2F14802B2EB540FA8BF0133DB015D43B9
:1073C000002D2A46B8BF05F17F02D21105F07F05D6
:1073D00092B23F2D3A8302DD144901320A8309FB40
:1073E00003F9B9F1000F4B46B8BF09F17F03DB1178
:1073F00009F07F099BB2B9F13F0F7B8302DD0B4A95
:10740000013353837A8B3B8B0020D3189BB203EB61
:10741000D301094A89B291855B0801219182BB831E
:1074200000E0012012B0BDE8F08700BF8C430020CF
:107430006C000240340400400004004000081A00C0
:10744000000C014008B538B903211422FFF742FEB1
:10745000003818BF012008BD012008BD2DE9F34701
:107460008A4614461D46002853D1002A51D00029CF
:107470004FD0064649E0A71BFF2FD4BFFFB2FF271E
:107480002B0A8DF805302B0C8DF8063014222B0EAC
:10749000022003218DF804508DF80730FFF71AFE03
:1074A0000246002835D138460821FFF713FE024670
:1074B00078BB9DF806000821DDF80480FFF70AFE7E
:1074C000024630BB4FEA1820C0B20821FFF702FE87
:1074D0000246F0B95FFA88F00821FFF7FBFDC0B95A
:1074E00006F1FF39D14480460AE019F8010F08215E
:1074F0001422FFF7EFFD60B908F101085FFA88F880
:10750000B845F2D3BE19ED19B6B2A642B3D30020E6
:1075100000E00120BDE8FC872DE9F04F0D4685B065
:1075200014461E46002840F0AA80002A00F0A780DA
:10753000002900F0A48007469CE0C7EB0408B8F1DE
:10754000FF0FD4BF5FFA88F84FF0FF08330A8DF8B9
:107550000D30330C8DF80E301422330E0120032130
:107560008DF80C608DF80F30FFF7B4FD024600284F
:1075700040F0858040460821FFF7ACFD0246002818
:107580007DD19DF80E000821DDF80C90FFF7A2FDDB
:107590000246002873D14FEA1920C0B20821FFF734
:1075A00099FD024600286AD15FFA89F00821FFF7A9
:1075B00091FD002863D1344BEA19598BB3F81CC0F4
:1075C0000191A24650E03149314CD4F8009019F4B1
:1075D000005F01D10139F7D14FF40059C4F804908C
:1075E000002402F8014B002949D0198C614546D28C
:1075F000284C072134F8029FE14509D24FF0010BD6
:107600000BFA01FB12F8019C4BEA090902F8019CF4
:107610000139EFD220490C6824F001040C600B24DE
:107620004C601E4CCC600C6844F001040C60019C62
:10763000002159801A491C8001248C8219490C6848
:1076400024F001040C6002244C60CB600C6844F010
:1076500001040C600E490C6814F4001FFAD04FF4BA
:10766000001401304C60C0B24045ACD3474454468E
:107670004644BFB2A742FFF460AF002000E0012003
:1076800005B0BDE8F08F00BF8C430020FFFF0F0066
:1076900000000240AC43002044000240AA43002006
:1076A000000400406C00024030B500284DD1482352
:1076B00093FBF1F398B24B43C3F14803B3EB510F83
:1076C000244BC8BF01301A68022122F001021A605F
:1076D000214A596002F11E04DC601C68C00144F0BC
:1076E00001041C60451C1D4BADB29C8D9D85012580
:1076F0009D821080002050809D82194BA4B2186892
:1077000020F0010018605960DA60196841F0010149
:107710001960144B196811F4001FFAD04FF40011CE
:107720005960114B0F49086810F4005F01D1013B0B
:10773000F8D14FF400504860084901258C858D82AE
:107740002BB1108C1087002030BD012030BD0120EE
:1077500030BD00BF440002408C43002000040040C4
:107760006C00024000000240FFFF0F002DE9F043D3
:1077700004468FB0002840F0D8806E4D80272887BF
:1077800001200146FBF722FE01210420FBF736FE13
:107790006948FAF7FDFF6846FBF798F8674B4FF426
:1077A00080664FF480794FF400586348694600932F
:1077B00002940394049408940A940597CDF81890C1
:1077C0000796CDF82480FBF761F801215A48FBF7B2
:1077D0008AF85B48FAF7DCFF6846FBF777F8594B05
:1077E00057486946009302940394049408940A94B9
:1077F0000597CDF818900796CDF82480FBF746F84A
:1078000001214F48FBF76FF80BA8FCF782FA04231D
:10781000ADF82C304C4802230BA9ADF83030ADF850
:107820002E40ADF83240ADF83440FCF707FD502152
:107830004548FCF7EEFA04214348FCF7C1FC4248F6
:107840003946FCF7C9FC01223F483146FCF7A0FA53
:1078500001223D484FF40071FCF79AFA01222146BB
:107860003948FCF7CAFA01213748FCF763FA324B72
:1078700036481A6822F001021A600A221E355A6040
:10788000DD601A68062142F001021A60402343615C
:107890000322FDF7B1FC4FF47A70FDF7E1FE0434EA
:1078A000062138222948FDF7A7FC4FF4FA70FDF7AE
:1078B000D7FE26484023436106210322013CFDF701
:1078C0009BFCE4B24FF4FA70FDF7CAFE002CE7D13E
:1078D0000425062138221D48FDF78EFC1B4CFA209A
:1078E000FDF7BEFE40236361204606210322013DD1
:1078F000FDF782FCEDB2FA20FDF7B2FE002DE8D1D3
:10790000204606213822FDF777FC1148114B1A68F2
:1079100012F4005F01D10138F8D14FF40052D0F1D8
:1079200001005A6038BF002000E001200FB0BDE820
:10793000F08300BF8C430020440002403808004020
:10794000080002403408004000080040000C0140DC
:10795000FFFF0F000000024010B51E48FAF718FFA5
:107960001D48FAF715FF1D48FAF712FF0120002104
:10797000FBF72CFD0D2104221948FDF73DFC0E21DB
:1079800004221748FDF738FC0F2104221448FDF7A4
:1079900033FC032104221248FDF72EFC04210A4681
:1079A0000F48FDF729FC00214FF48050FBF71AFD2A
:1079B00000214FF48040FBF721FD01200021FBF75F
:1079C00091FB0848FBF792FD0748BDE81040FBF724
:1079D0008DBD00BF4400024058000240300002400C
:1079E000000C01400038004000300140003818BF52
:1079F0000120704710B5044618B9FFF7ADFF2046C7
:107A000010BD012010BD2DE9F34188469DF820707E
:107A1000044630BB12F0200618BF022603F04005D2
:107A2000FFF79AFF1FFA88F0FEF7C2F97FB2002F26
:107A3000ACBF80270027003D18BF012502464FF448
:107A4000827109482B4600970196FDF748FD0748CB
:107A5000214622462B4600970196FDF740FD204621
:107A600000E00120BDE8FC8100380040003001400A
:107A7000F0B5059C10BB069EF6081BE01BB113F881
:107A8000017B0F4DAF8111B111F8015B00E00D4694
:107A90000C4FBD810B4D2D8915F0800FFAD11CB113
:107AA000074DAD8904F8015B1AB1064DAD8902F8A6
:107AB000015B0130B042E1D30020F0BD0120F0BDF8
:107AC0000030014000380040044B4FF480621978C8
:107AD000034B09B11A6170475A617047C6430020D1
