:020000040800F2
:102000000050002099D10008855C0008875C00081A
:10201000895C00088B5C00088D5C000800000000F3
:102020000000000000000000000000008F5C0008BD
:10203000915C000800000000935C0008955C0008BB
:10204000DDD10008DDD10008DDD10008DDD10008B8
:10205000DDD10008DDD10008DDD10008DDD10008A8
:10206000DDD10008DDD10008DDD10008DDD1000898
:10207000DDD10008DDD10008DDD10008DDD1000888
:10208000DDD10008DDD10008DDD10008975C000833
:102090009B5C0008DDD10008DDD10008DDD100081F
:1020A000DDD10008DDD10008DDD10008DDD1000858
:1020B000DDD10008DDD10008DDD10008DDD1000848
:1020C000DDD10008DDD10008DDD10008DDD1000838
:1020D000DDD10008A15C0008DDD10008DDD10008D9
:1020E000DDD10008DDD100089F5C00080000000081
:1020F00000000000000000000000000000000000E0
:0C21000000000000000000005FF808F183
:10210C00384B82B01A6842F001021A605968364A9C
:10211C0001EA02025A601A6822F0847222F48032B8
:10212C001A601A6822F480221A605A6822F4FE029D
:10213C005A604FF41F029A600022019200921A68B2
:10214C0042F480321A60274B1A6802F40032009273
:10215C00019A01320192009A1AB9019AB2F5A06F54
:10216C00F1D11B6813F4003318BF01230093009BBB
:10217C00012B34D11D4B1A6842F010021A601A68F8
:10218C0022F003021A601A6842F002021A60154B20
:10219C005A685A605A685A605A6842F480625A60A7
:1021AC005A6822F47C125A605A6842F4E8125A6057
:1021BC001A6842F080721A600A4B1A6812F0007F9B
:1021CC00FAD05A6822F003025A605A6842F00202AE
:1021DC005A60044B5B6803F00C03082BF9D102B076
:1021EC00704700BF001002400000FFF800200240C2
:1021FC00164A174B516801F00C01042903D0082929
:10220C0004D0144A00E0144A1A6012E05168506875
:10221C0001F47011890C023110F4803F01D10F4A86
:10222C0005E0526812F4003F14BF0D4A0A4A5143AC
:10223C001960064A1968526802F0F00203EB121298
:10224C00127931FA02F21A60704700BF0010024096
:10225C000000002000127A00001BB70000093D00AE
:10226C00808D5B0040F0BE60024B40F42020D860B3
:10227C00704700BF00ED00E0C37810B5EBB1154B13
:10228C004178DB688478DB4303F4E0631B0AC3F119
:10229C00040291400F22DA4022400A430E4B01788F
:1022AC001201CB18D2B283F800230378012259090A
:1022BC0003F01F0312FA03F307E003780122590914
:1022CC0003F01F0312FA03F32031034A42F82130C2
:1022DC0010BD00BF00ED00E000E100E021F0604126
:1022EC0021F07F01014B01439960704700ED00E044
:1022FC00044B11B11A69104302E01A6922EA00007A
:10230C001861704700ED00E0044B04281A680CBFFC
:10231C0042F0040222F004021A60704710E000E060
:10232C00134B10B5984207D14FF40070012101F006
:10233C00D7F84FF4007014E00E4B984207D14FF4CD
:10234C008060012101F0CCF84FF4806009E00A4B69
:10235C0098420BD14FF40040012101F0C1F84FF429
:10236C0000400021BDE8104001F0BAB810BD00BF1C
:10237C000024014000280140003C014043680A68E9
:10238C0023F4702323F4807313430A7910B543EAC2
:10239C00022343608A68CB6884681A43094B04EAB9
:1023AC00030342EA03034A7943EA420383600B7C4A
:1023BC00C26A013B22F47002DBB242EA0353C362ED
:1023CC0010BD00BFFDF7F1FF0023036003714371E3
:1023DC008360C36001330374704719B1836843F0A1
:1023EC00010302E0836823F001038360704719B195
:1023FC00836843F4807302E0836823F48073836002
:10240C007047C9B212B14368194302E0436823EA2A
:10241C00010141607047836843F008038360704793
:10242C008068C0F3C0007047836843F00403836086
:10243C0070478068C0F38000704719B1836843F41B
:10244C00A00302E0836823F4A003836070478068D4
:10245C00C0F3805070474368013923F4604343EA6A
:10246C0041334360704719B1436843F4006302E0A1
:10247C00436823F4006343607047092970B54FEA41
:10248C0041040BD964181E3C0725A540A340C6681F
:10249C0026EA050545EA0304C4600AE0641807252A
:1024AC00A54013FA04F4066926EA050545EA040377
:1024BC000361062A0CD8013A02EB82021F239340D7
:1024CC009140446B24EA030343EA0102426370BD6A
:1024DC000C2A4FEA82030BD89A18233A1F239340F5
:1024EC009140046B24EA030343EA0102026370BDCA
:1024FC009A18413A1F2393409140C46A24EA03037B
:10250C0043EA0102C26270BD19B1836843F48013BF
:10251C0002E0836823F4801383607047C06C80B240
:10252C007047014B186870474C24014019B143683F
:10253C0043F4806302E0436823F480634360704794
:10254C0019B1436843F4805302E0436823F4805389
:10255C0043607047836823F4E04341EA03038360DC
:10256C00704719B1836843F4004302E0836823F495
:10257C0000438360704719B1836843F4021302E08F
:10258C00836823F40213836070478068C0F3405063
:10259C007047092970B54FEA41040BD964181E3CE9
:1025AC000725A540A340C66826EA050545EA0304AD
:1025BC00C4600AE064180725A54013FA04F4066900
:1025CC0026EA050545EA04030361836B03F4401412
:1025DC006FEA145412190332D2B202EB82021F2496
:1025EC009440914023EA04030B43836370BD836BD7
:1025FC00013923F4401343EA01538363704782B0DB
:10260C00002301930190019BCB180193019B1A604D
:10261C0002B0704782B0002301930190019B2833D4
:10262C005B180193019B186880B202B07047436835
:10263C0023F4400323F4007341EA0303436070471F
:10264C00416282627047436823F01F0341EA03032F
:10265C0043607047054B18B19A6842F4000202E0DF
:10266C009A6822F400029A60704700BF002401406F
:10267C00036819420CBF002001207047C943016058
:10268C0070474368006810EA112004D0C9B219429F
:10269C000CBF0020012070476FEA112101607047C8
:1026AC00012010B500F034FF0020BDE8104000F010
:1026BC002FBF014B1860704704860D42014B186008
:1026CC00704700BF00860D42014B1860704700BF79
:1026DC0088860D42044A938D23F460731B041B0CF3
:1026EC0040EA030393857047006C0040044A938DC5
:1026FC0023F07F031B041B0C40EA030393857047F4
:10270C00006C004082B000230193044B0193019BA9
:10271C00C3180193019B196002B07047006C004014
:10272C0082B000230193054B0193019BC3180193C5
:10273C00019B188880B202B0704700BF006C00404B
:10274C00014B1868C0B27047A0860D42034B9A8E9D
:10275C0092B242F001029A86704700BF006C0040B2
:10276C00014B1868C0B27047A4860D42034B9A8E79
:10277C0092B242F002029A86704700BF006C004091
:10278C00036823F00103036000230360436083604C
:10279C00C3602E4B984229D02D4B984230D02D4BF4
:1027AC00984237D02C4B98423ED02C4B984206D1B5
:1027BC0053F8542C42F4702243F8542C7047284B95
:1027CC00984206D153F8682C42F4700243F8682CF6
:1027DC007047244B984206D153F87C2C42F070621F
:1027EC0043F87C2C7047204B984206D153F8042CAC
:1027FC0042F00F0243F8042C70471C4B984206D150
:10280C0053F8182C42F0F00243F8182C7047184B70
:10281C00984206D153F82C2C42F4706243F82C2CBD
:10282C007047144B984206D153F8402C42F4704236
:10283C0043F8402C7047104B984205D153F8542C58
:10284C0042F4702243F8542C704700BF0800024039
:10285C001C0002403000024044000240580002407C
:10286C006C00024080000240080402401C0402403C
:10287C003004024044040240580402408A6810B5F7
:10288C000C6A036844EA02020C6923F4FE432243F7
:10289C004C6923F0F00322438C692243CC69224318
:1028AC004C6A22438C6A224342EA03030360CB68DE
:1028BC0043600B6883604B68C36010BD00230360EA
:1028CC0043608360C360036143618361C3610362DE
:1028DC0043628362704719B1036843F0010302E05D
:1028EC00036823F001030360704712B103681943B6
:1028FC0002E0036823EA010101607047406880B27E
:10290C00704710F0805F14BF034B044B1B680342ED
:10291C000CBF002001207047000402400000024060
:10292C0010F0805F14BF024B024B5860704700BF21
:10293C00000402400000024010F0805F14BF044B02
:10294C00044B1B6803420CBF00200120704700BFE2
:10295C00000402400000024010F0805F14BF024BE4
:10296C00024B5860704700BF000402400000024058
:10297C00034B1A6802F0380240EA02021A607047F0
:10298C0000200240044B1A6822F008021A601A68F0
:10299C0040EA02021A60704700200240044B1A6899
:1029AC0022F010021A601A6840EA02021A6070479C
:1029BC0000200240024B034A5A60034A5A60704797
:1029CC000020024023016745AB89EFCD024B034A3F
:1029DC005A60034A5A607047002002402301674541
:1029EC00AB89EFCD024B1A6942F080021A61704735
:1029FC0000200240024B1A6942F080021A617047B3
:102A0C0000200240014BD86980087047002002402A
:102A1C00014B186A704700BF00200240024BD86976
:102A2C00C0F34000704700BF00200240024B186802
:102A3C00C0F34010704700BF00200240044B11B19E
:102A4C001A69104302E01A6922EA00001861704703
:102A5C00002002400128064B03D1D86900F0010088
:102A6C007047DB6818420CBF00200120704700BF84
:102A7C0000200240014BD860704700BF002002408C
:102A8C000A4BDA6812F0010F0BD1DA6812F0040F5E
:102A9C0009D1D86800F0100000280CBF04200320D6
:102AAC007047012070470220704700BF0020024091
:102ABC000A4BDA6812F0010F0BD1DA6812F0040F2E
:102ACC0009D1D86800F0100000280CBF04200320A6
:102ADC007047012070470220704700BF0020024061
:102AEC0010B50446FFF7E4FF012805D100E0013CD6
:102AFC00002CFCD1052010BD002C08BF052010BDFA
:102B0C00F8B5124E124B0446B360124B4FF4005002
:102B1C00B3600D461746FFF7E3FF042815D1336960
:102B2C0044F0F80443F01003336125430A4B2F4360
:102B3C005F804FF40050FFF7D3FF052805D03269B2
:102B4C0041F6EF7302EA03033361F8BD0020024043
:102B5C0023016745AB89EFCD00F8FF1F38B505465B
:102B6C004FF43020FFF7BCFF042838D11C4C1D4B10
:102B7C004FF43020A3601C4BA360236943F0200367
:102B8C002361236943F040032361FFF7A9FF042865
:102B9C001DD1226941F6DF7302EA03032361236925
:102BAC0043F010032361114B0DB1002200E0A5226C
:102BBC001A804FF43020FFF793FF05280FD0084AF6
:102BCC0041F6EF73116901EA0303136138BD05285F
:102BDC0005D0226941F6DF7302EA0303236138BD95
:102BEC000020024023016745AB89EFCD00F8FF1FA1
:102BFC0010B504464FF40050FFF772FF042842D181
:102C0C00214B2249E44399602149E2B29960196948
:102C1C00FF2A41F01001196107D01E4B4FF40050F0
:102C2C001A81FFF75DFF042822D104F47F431B0AAD
:102C3C00FF2B07D0174A4FF400505381FFF750FF7A
:102C4C00042815D104F47F031B0CFF2B07D0114A69
:102C5C004FF400509381FFF743FF042808D1240E52
:102C6C00FF2C08D00B4B4FF40050DC81FFF738FFE2
:102C7C00052801D110BD0420034A41F6EF731169F8
:102C8C0001EA0303136110BD0020024023016745D4
:102C9C00AB89EFCD00F8FF1F70B504464FF4005020
:102CAC000E46FFF71DFF042815D10B4D0B4B4FF4AF
:102CBC000050AB600A4BAB602B6943F010032B61E7
:102CCC002680FFF70DFF052805D02A6941F6EF7322
:102CDC0002EA03032B6170BD00200240230167450B
:102CEC00AB89EFCD70B504464FF400500E46FFF79C
:102CFC00F7FE042811D1094D4FF400502B6943F015
:102D0C0001032B612680FFF7EBFE052805D02A690D
:102D1C0041F6FE7302EA03032B6170BD00200240F2
:102D2C0073B5002304464FF400500E460193FFF791
:102D3C00D7FE04281DD10F4D4FF400502B6943F0E2
:102D4C0001032B61B3B22380FFF7CAFE042808D11C
:102D5C0002340194019B360C1E804FF40050FFF797
:102D6C00BFFE052805D02A6941F6FE7302EA03036B
:102D7C002B617CBD0020024038B5FFF74FFE0028C8
:102D8C000CBFA52500254FF43020FFF7A9FE042821
:102D9C0033D11A4C1A4B4FF43020A360194BA3605B
:102DAC00236943F020032361236943F0400323612B
:102DBC00FFF796FE042818D1226941F6DF7302EA68
:102DCC000303236123694FF4005043F01003236184
:102DDC000D4B1D80FFF784FE05280ED0226941F6AD
:102DEC00EF7302EA0303236138BD052805D022697D
:102DFC0041F6EF7302EA0303236138BD0020024061
:102E0C0023016745AB89EFCD00F8FF1F10B54FF4D8
:102E1C003020FFF765FE042814D10B4C4FF4302002
:102E2C00236943F004032361236943F040032361C6
:102E3C00FFF756FE052805D0226941F6FB7302EA1E
:102E4C000303236110BD00BF0020024038B50546C6
:102E5C004FF43020FFF744FE042815D10B4C4FF4EF
:102E6C003020236943F0020323616561236943F039
:102E7C0040032361FFF734FE052805D0226941F693
:102E8C00FD7302EA0303236138BD00BF002002403A
:102E9C0010B50446FFF70CFE012805D100E0013CFB
:102EAC00002CFCD1052010BD002C08BF052010BD46
:102EBC0010B54FF43020FFF7EBFF042814D10B4C66
:102ECC004FF43020236943F004032361236943F05A
:102EDC0040032361FFF7DCFF052805D0226941F68A
:102EEC00FB7302EA0303236110BD00BF0020024004
:102EFC00234B10B5984205D10420012100F0F0FAC3
:102F0C00042036E01F4B984205D10820012100F027
:102F1C00E7FA08202DE01C4B984205D11020012126
:102F2C0000F0DEFA102024E0184B984205D1202046
:102F3C00012100F0D5FA20201BE0154B984205D159
:102F4C004020012100F0CCFA402012E0114B9842B5
:102F5C0005D18020012100F0C3FA802009E00E4B3E
:102F6C0098420BD14FF48070012100F0B9FA4FF464
:102F7C0080700021BDE8104000F0B2BA10BD00BF57
:102F8C0000080140000C01400010014000140140F9
:102F9C0000180140001C01400020014001200146A6
:102FAC0010B500F09DFA01200021BDE8104000F0A2
:102FBC0097BACB78F0B513F0100F03F00F020E8810
:102FCC001CBF8B781A4316F0FF0F1DD0046800232A
:102FDC0001279F4007EA0605BD4211D19F004FF023
:102FEC000F0C0CFA07FC12FA07F724EA0C043C430A
:102FFC00CF78282F01D1456102E0482F08BF056129
:10300C000133082BE4D104600E88FF2E1FD94468CD
:10301C00002303F108050127AF4007EA0605BD426E
:10302C0011D19F004FF00F0C0CFA07FC12FA07F7A6
:10303C0024EA0C043C43CF78282F01D1456102E0EF
:10304C00482F08BF05610133082BE2D14460F0BD65
:10305C004FF0FF33038002238370DB18C37070477B
:10306C00836819420CBF002001207047806880B231
:10307C007047C36819420CBF002001207047C0681C
:10308C0080B2704701617047416170470AB10161BC
:10309C00704741617047C160704741F48033836170
:1030AC008161836183698369704710B5054A4FF666
:1030BC008073146841EA001104EA030341EA030334
:1030CC00136010BD00000140014B1860704700BF39
:1030DC001C00204230B50028174B00F44014B4BF3C
:1030EC00DB695B68B4F5401F82B207D1124C23F048
:1030FC007063656825F07065656011E010F4801FE1
:10310C0006D000F47024240C032515FA04F403E013
:10311C00440D240112FA04F423EA040343F070630F
:10312C0019B1410D09018A401343034A0028B4BF69
:10313C00D361536030BD00BF0000014001F00302B9
:10314C0030B592000F24944010FA02F2074B890814
:10315C00023153F8215025EA040443F8214053F876
:10316C00214042EA040443F8214030BD00000140F4
:10317C00014B1860704700BFDC00204230BF704725
:10318C00012110B54FF0805000F0B6F94FF080508F
:10319C000021BDE8104000F0AFB9014B186070473A
:1031AC0020000E42014B1860704700BF10000E4209
:1031BC00034B1A6822F0E00240EA02021A607047E0
:1031CC0000700040014B1860704700BFA0000E4219
:1031DC0010B50C4B01291A6822F0030240EA0202D6
:1031EC001A60094B1A681C4642F004021A6002D19C
:1031FC00FFF7C4FF00E020BF236823F00403236023
:10320C0010BD00BF0070004010ED00E0074B1A68C5
:10321C0042F004021A601A6842F002021A60044B6F
:10322C001A6842F004021A60A8E700BF0070004060
:10323C0010ED00E0034B5B6818420CBF002001202E
:10324C00704700BF00700040024B1A6842EA8002CF
:10325C001A607047007000400D4B1A6842F0010272
:10326C001A6059680B4A01EA02025A601A6822F085
:10327C00847222F480321A601A6822F480221A6056
:10328C005A6822F4FE025A604FF41F029A6070478B
:10329C00001002400000FFF80C4BB0F5803F1A689C
:1032AC0022F480321A601A6822F480221A6003D049
:1032BC00B0F5802F09D104E01A6842F480321A600C
:1032CC0070471A6842F4A0221A607047001002403E
:1032DC00034B1A6822F0F80242EAC0021A607047E7
:1032EC0000100240014B1860704700BF00004242C2
:1032FC00044B5A6822F47C1240EA02020A435A60D8
:10330C00704700BF00100240014B1860704700BFAF
:10331C0060004242034B5A6822F0030240EA020268
:10332C005A60704700100240024B586800F00C00C5
:10333C00704700BF00100240034B5A6822F0F002A5
:10334C0040EA02025A60704700100240034B5A6870
:10335C0022F4E06240EA02025A6070470010024018
:10336C00034B5A6822F4605242EAC0025A6070471A
:10337C0000100240044B11B11A78104302E01A7885
:10338C0022EA00001870704709100240014B1860C7
:10339C00704700BFD8004242034B5A6822F44042A7
:1033AC0040EA02025A60704700100240064B0022AD
:1033BC0001281A701A7002D0042804D101E0187088
:1033CC00704705221A70704720100240014B18609C
:1033DC00704700BF80044242024B1A6A40EA020264
:1033EC001A62704700100240014B1860704700BF12
:1033FC003C04424210B5224B5A6802F00C02042ADB
:10340C0003D0082A04D01F4B00E01F4B036012E0CE
:10341C005A68596802F47012920C023211F4803F0F
:10342C0001D11A4B05E05B6813F4003F14BF184B35
:10343C00154B5A430260124A164B5168046801F04E
:10344C00F0010909595C34FA01F14160546804F443
:10345C00E064240A1C5D31FA04F48460546804F4BA
:10346C006054E40A1C5DE140C160526802F44042C1
:10347C0003EB92331B7CB1FBF3F1016110BD00BF78
:10348C000010024000127A00001BB70000093D003A
:10349C00808D5B0014000020044B11B15A6910435D
:1034AC0002E05A6922EA000058617047001002409D
:1034BC00044B11B19A69104302E09A6922EA0000A8
:1034CC009861704700100240044B11B1DA69104347
:1034DC0002E0DA6922EA0000D8617047001002406D
:1034EC00044B11B1DA68104302E0DA6822EA0000FA
:1034FC00D860704700100240044B11B11A69104398
:10350C0002E01A6922EA00001861704700100240BC
:10351C00014B1860704700BF40044242014B1860D9
:10352C00704700BF4C004242014B1870704700BFFF
:10353C00071002404309012B074A01D1136803E02D
:10354C00022B0CBF136A536A00F01F0033FA00F011
:10355C0000F00100704700BF0010024007B50023C7
:10356C0001933120FFF7E6FF019B01330193019B8F
:10357C00B3F5A06F01D00028F3D03120FFF7DAFFAC
:10358C00003818BF01200EBD024B5A6A42F08072FF
:10359C005A62704700100240034B9B6818420CBFE4
:1035AC0000200120704700BF00100240014B187032
:1035BC00704700BF0A100240154B10B598420BD152
:1035CC0001214FF48050FFF78BFF4FF48050002106
:1035DC00BDE81040FFF784BF0E4B984207D14FF463
:1035EC0080400121FFF788FF4FF4804009E00A4B2F
:1035FC0098420BD14FF400400121FFF77DFF4FF4AF
:10360C0000400021BDE81040FFF776BF10BD00BFA1
:10361C000030014000380040003C00400B8810B5E1
:10362C004C88028844EA03038C8802F441522343F9
:10363C00CC8823430C8923434C8923438C89234313
:10364C00CC89234342EA03039BB20380838B23F48C
:10365C0000631B041B0C83830B8A038210BDF0B523
:10366C00838B87B023F47A6323F01F031B041B0C9A
:10367C008383022303848B68868B022B04460D46BE
:10368C00B6B223D001A88F88FFF7B4FEEB88002FC9
:10369C0014BF02270127B3F5007F019A4FF00A03EC
:1036AC0001D1120A02E07F01B2FBF7F25343A96881
:1036BC000A22B3FBF1F305339BB2B3FBF2F303F035
:1036CC00010212025B089BB292B200E00022991E2A
:1036DC0089B2FE2928BF0022E98828BF02231343A0
:1036EC000B439BB223842B886A8846EA030343F47A
:1036FC0000631343AA881343AA8913439BB2A38381
:10370C0007B0F0BD0023038043808380C380038116
:10371C0043818381C38107230382704700230222E4
:10372C00038043808380C38082608381704721B192
:10373C0003889BB243F0400304E0038823F040036A
:10374C001B041B0C0380704721B1838B9BB243F489
:10375C00806304E0838B23F480631B041B0C838342
:10376C007047090901238B409BB21AB1828892B22F
:10377C00134303E0828892B222EA030383807047EA
:10378C001AB183889BB2194303E083889BB223EA66
:10379C0001018180704781817047808980B27047B8
:1037AC004FF6FF63994204D003889BB243F48073B5
:1037BC0004E0038823F480731B041B0C0380704704
:1037CC0021B183889BB243F0040304E0838823F087
:1037DC0004031B041B0C83807047038823F40063D1
:1037EC001B041B0C038003889BB241EA0303038078
:1037FC00704703889BB243F480530380704721B118
:10380C0003889BB243F4005304E0038823F4005371
:10381C001B041B0C03807047012902D0008B80B263
:10382C007047808A80B27047008A80B27047B1F5C9
:10383C00804F04D103889BB243F4804304E0038897
:10384C0023F480431B041B0C03807047038919422B
:10385C000CBF002001207047C94389B20181704719
:10386C00012301F00F0213FA02F210B584880089CB
:10387C00A4B280B2104005D009098B401C420CBF89
:10388C000020012010BD01F00F0101238B40DB4310
:10389C009BB20381704700BF30B5048C24F0010447
:1038AC002404240C0484048B058C24F0F3042404D9
:1038BC0025F00205240C2D0442EA04042D0C44EAE4
:1038CC00031445F00105A4B20D430483058430BDF7
:1038DC0030B5048C24F010042404240C0484048BD0
:1038EC00058C24F4407425F0200524052D04240DAA
:1038FC002D0C44EA022445F0100544EA033445EA51
:10390C000115A4B2ADB20483058430BD5A4B10B579
:10391C00984207D14FF400600121FFF7E1FD4FF40D
:10392C000060A2E0B0F1804F05D101200146FFF705
:10393C00E3FD012007E0514B984209D102200121FF
:10394C00FFF7DAFD02200021BDE81040FFF7D4BDDF
:10395C004B4B984205D104200121FFF7CDFD0420EB
:10396C00F1E7484B984205D108200121FFF7C4FD2F
:10397C000820E8E7444B984205D110200121FFF7BD
:10398C00BBFD1020DFE7414B984205D120200121DF
:10399C00FFF7B2FD2020D6E73D4B984207D14FF4FC
:1039AC0000500121FFF79CFD4FF400505DE0394BB6
:1039BC00984207D14FF400200121FFF791FD4FF4FD
:1039CC00002052E0344B984207D14FF48010012173
:1039DC00FFF786FD4FF4801047E0304B984207D13B
:1039EC004FF400100121FFF77BFD4FF400103CE079
:1039FC002B4B984205D140200121FFF77DFD402043
:103A0C00A1E7284B984205D180200121FFF774FDD6
:103A1C00802098E7244B984207D14FF48070012105
:103A2C00FFF76AFD4FF480708DE7204B984207D169
:103A3C004FF480300121FFF753FD4FF4803014E038
:103A4C001B4B984207D14FF400300121FFF748FD82
:103A5C004FF4003009E0174B98420BD14FF4802003
:103A6C000121FFF73DFD4FF480200021BDE81040FF
:103A7C00FFF736BD10BD00BF002C01400004004014
:103A8C0000080040000C00400010004000140040F2
:103A9C0000340140004C01400050014000540140F2
:103AAC0000180040001C0040002000400040014075
:103ABC000044014000480140204A038890429BB2D8
:103ACC000ED01F4A90420BD0B0F1804F08D01D4A47
:103ADC00904205D01C4A904202D01C4A904206D11A
:103AEC004FF68F7203EA02024B8842EA0303184A2C
:103AFC00904209D0174A904206D04FF6FF4203EA93
:103B0C000202CB8842EA030303808B8883850B88EF
:103B1C0003850A4B98420BD0094B984208D00E4BA8
:103B2C00984205D00D4B984202D00D4B984201D1D2
:103B3C000B7A038601238382704700BF002C01405F
:103B4C00003401400004004000080040000C00401C
:103B5C0000100040001400400040014000440140AF
:103B6C0000480140038C70B523F001031B041B0CAF
:103B7C000384038C8488028B0D8822F07302120458
:103B8C00120C2A434E880D8923F002031B0446EACB
:103B9C0005051B0CADB245EA0303164DA4B2A842B1
:103BAC000BD0154DA84208D0144DA84205D0144D89
:103BBC00A84202D0134DA84215D14FF6F77503EA6F
:103BCC0005054B89CE891D434FF6FB7305EA0303AC
:103BDC008D882B434FF6FF4504EA05058C8946EA90
:103BEC000404A4B22C4384800283CA888286038492
:103BFC0070BD00BF002C014000340140004001406A
:103C0C000044014000480140038C30B523F0100300
:103C1C001B041B0C0384038C8288048B0D8824F4F6
:103C2C00E6442404240C23F0200344EA05241B045A
:103C3C000D891B0C43EA05134D8892B243EA051318
:103C4C00134DA4B2A8429BB202D0124DA84219D176
:103C5C004FF67F7503EA05054B8945EA03154FF6C8
:103C6C00BF7305EA03038D8843EA05134FF2FF3552
:103C7C0002EA05058A899BB245EA8205CA8945EAAA
:103C8C00820292B28280CA8804830287038430BD88
:103C9C00002C014000340140038C30B523F48073B8
:103CAC001B041B0C0384038C8288848B0D8824F0EA
:103CBC0073042404240C23F400731B042C430D897B
:103CCC001B0C43EA05234D8892B243EA0523134D9E
:103CDC009BB2A84202D0124DA84219D14FF2FF75E7
:103CEC0003EA05054B8945EA03254FF6FF3305EA40
:103CFC0003038D8843EA05234CF6FF7502EA05059C
:103D0C008A899BB245EA0215CA8945EA021292B227
:103D1C008280CA8884838287038430BD002C014052
:103D2C0000340140038C30B523F480531B041B0C6E
:103D3C000384038C8488828B0D8822F4E64212045F
:103D4C00120C23F4005342EA05221B040D891B0CB0
:103D5C0043EA05334D88A4B243EA05330B4D92B2C6
:103D6C00A8429BB202D00A4DA84207D14BF6FF7570
:103D7C0004EA05058C8945EA8414A4B28480828304
:103D8C00CA88A0F84020038430BD00BF002C01403D
:103D9C00003401404A880B8842EA03038A881343A3
:103DAC00CA8813430A8913434A8913438A891343E4
:103DBC009BB2A0F8443070474FF0FF338380002350
:103DCC000380C380438003727047002303804380C9
:103DDC008380C380038143818381C3817047002327
:103DEC000122038043808280C380038170470023BB
:103DFC00038043808380C380038143818381704728
:103E0C0021B103889BB243F0010304E0038823F043
:103E1C0001031B041B0C0380704739B1B0F844300C
:103E2C006FEA43436FEA53439BB203E0B0F844306C
:103E3C005B045B0CA0F8443070471AB183899BB2C9
:103E4C00194303E083899BB223EA01018181704706
:103E5C00818270470A43A0F8482070471AB18389C1
:103E6C009BB2194303E083899BB223EA0101818150
:103E7C007047038923F007031B041B0C0381704755
:103E8C0010B50489E4B241EA040442EA040444EAA9
:103E9C000324A4B2048110BD10B50446FFF7F0FF53
:103EAC0023899BB243F48043238110BD10B5044693
:103EBC00FFF7E6FF238923F077031B041B0C43F069
:103ECC007703238110BD018582827047038823F01C
:103EDC0070031B041B0C41EA030303807047038926
:103EEC0023F070031B041B0C41EA0303038170478E
:103EFC0038B50D46602D0446114603D10122FFF75B
:103F0C00E7FC02E00122FFF7C7FC20462946FFF739
:103F1C00E6FF23899BB243F00703238138BD10B51C
:103F2C000446FFF7DCFF23899BB243F00703238190
:103F3C0010BD70B50489068B058C26F4407625F0EF
:103F4C00220526F003062D0424F0070436042D0C5C
:103F5C002404360C42EA0505240C46F4807645EA26
:103F6C000315214346F00106ADB201810683058499
:103F7C0070BD038B23F070031B041B0C41EA03037D
:103F8C0003837047038B23F4E0431B041B0C43EAAD
:103F9C0001239BB203837047838B23F070031B04B4
:103FAC001B0C41EA030383837047838B23F4E043A8
:103FBC001B041B0C43EA01239BB28383704721B182
:103FCC0003889BB243F0800304E0038823F0800352
:103FDC001B041B0C0380704721B183889BB243F0F8
:103FEC00040304E0838823F004031B041B0C83806C
:103FFC00704721B183889BB243F0080304E08388A7
:10400C0023F008031B041B0C8380704721B18388A9
:10401C009BB243F0010304E0838823F001031B04EB
:10402C001B0C83807047038B23F008031B041B0CB1
:10403C0041EA030303837047038B23F400631B04DF
:10404C001B0C43EA01239BB203837047838B23F041
:10405C0008031B041B0C41EA030383837047838B07
:10406C0023F400631B041B0C43EA01239BB28383E0
:10407C007047038B23F004031B041B0C41EA03035E
:10408C0003837047038B23F480631B041B0C43EAEC
:10409C0001239BB203837047838B23F004031B041F
:1040AC001B0C41EA030383837047838B23F48063E7
:1040BC001B041B0C43EA01239BB283837047038BC5
:1040CC0023F080031B041B0C41EA0303038370479A
:1040DC00038B5B045B0C43EA01239BB203837047A5
:1040EC00838B23F080031B041B0C41EA03038383A3
:1040FC007047838B5B045B0C43EA01239BB2838385
:10410C007047038C23F002031B041B0C41EA0303CE
:10411C0003847047038C23F008031B041B0C41EA37
:10412C00030303847047038C23F020031B041B0C34
:10413C0043EA01139BB203847047038C23F0800382
:10414C001B041B0C43EA01139BB203847047038CC2
:10415C0023F400731B041B0C43EA01239BB203845E
:10416C007047038C23F400631B041B0C43EA0123EC
:10417C009BB203847047038C23F400531B041B0C69
:10418C0043EA01339BB20384704701238B4012FA3C
:10419C0001F110B5048CA4B224EA03030384038C4C
:1041AC0041EA03039BB2038410BD04238B4012FA33
:1041BC0001F110B5048CA4B224EA03030384038C2C
:1041CC0041EA03039BB2038410BD30B501248C403B
:1041DC00058C00F11803ADB225EA0404048409B17E
:1041EC00082906D14908C85820F07000C850C85892
:1041FC0009E0043989B24908C858120220F4E04099
:10420C00C850C85892B240EA0202CA5030BD21B11F
:10421C0003889BB243F0020304E0038823F00203FB
:10422C001B041B0C0380704721B103889BB243F025
:10423C00040304E0038823F004031B041B0C038019
:10424C00704721B183889BB243F0800304E08388DC
:10425C0023F080031B041B0C83807047038823F01E
:10426C0008031B041B0C038003889BB241EA030365
:10427C0003807047838823F070031B041B0C83801E
:10428C0083889BB241EA030383807047038923F040
:10429C0007031B041B0C038103899BB241EA030334
:1042AC0003817047038923F080031B041B0C0381DB
:1042BC0003899BB241EA03030381704781847047F1
:1042CC008185704781867047018770478187704769
:1042DC00A0F840107047038B23F00C031B041B0C3D
:1042EC000383038B9BB241EA030303837047038B65
:1042FC0023F440631B041B0C0383038B9BB243EA24
:10430C0001239BB2038370472DE9F0410C46A28830
:10431C004988B4F800E0054600290CBF02270027A5
:10432C00012A14BF012602262389BEF1000F10D1E9
:10433C00FFF7B2FA2846E188FFF7CDFF2846394649
:10434C0032462389FFF7C4FAE1882846BDE8F041DC
:10435C00CDE7FFF7BDFA2846E188FFF7C8FF2846EE
:10436C00394632462389FFF797FAE1882846BDE89B
:10437C00F041B0E7838B23F00C031B041B0C8383ED
:10438C00838B9BB241EA030383837047838B23F4B3
:10439C0040631B041B0C8383838B9BB243EA012376
:1043AC009BB2838370470B882DE9F0410D46044680
:1043BC004988AA883BB92B89FFF76EFAE988204611
:1043CC00BDE8F04187E7042B07D12B89FFF780FA72
:1043DC00E9882046BDE8F04189E7082BB5F808804C
:1043EC0023D1B0F820C02CF4807C4FEA0C4C4FEA5F
:1043FC001C4CA0F820C0878B068C27F0F30726F402
:10440C0000763F0436043F0C360C47EA081746EAA0
:10441C000121BFB289B247EA020241F48071828362
:10442C000184E988BDE8F041A4E7078C27F48057A4
:10443C003F043F0C0784868B038C26F4407623F4D0
:10444C00005336051B04360D1B0C46EA022243EAC8
:10445C00013342EA08329BB2E98892B243F48053AA
:10446C0082830384BDE8F04190E7038823F4407312
:10447C001B041B0C038003889BB241EA03030380DB
:10448C007047808E80B27047008F80B27047808FEB
:10449C0080B27047B0F8400080B27047808C80B218
:1044AC007047008D80B27047038A19420CBF002000
:1044BC0001207047C94389B201827047038A8289FF
:1044CC0011EA030092B203D011420CBF002001206C
:1044DC007047C94389B20182704700BF204B10B5A9
:1044EC0098420BD101214FF48040FEF7F9FF4FF4B5
:1044FC0080400021BDE81040FEF7F2BF194B9842F6
:10450C0007D14FF400300121FEF7F6FF4FF40030D5
:10451C001FE0154B984207D14FF480200121FEF784
:10452C00EBFF4FF4802014E0104B984207D14FF46E
:10453C0000200121FEF7E0FF4FF4002009E00C4BB6
:10454C0098420BD14FF480100121FEF7D5FF4FF4A8
:10455C0080100021BDE81040FEF7CEBF10BD00BF9B
:10456C00003801400044004000480040004C00402E
:10457C000050004030B5038ACA8823F440531B0412
:10458C001B0C134303820D4683890989AA8823F4E3
:10459C00B05341EA0202698923F00C030A431B045D
:1045AC001B0C92B242EA03038381838AAA8923F407
:1045BC0040731B041B0C87B013430446838201A871
:1045CC00FEF718FF184BA2899C4212B20CBF049B39
:1045DC00039B002A4FF019012A6802DA5943520052
:1045EC0001E0594392006423B1FBF2F1B1FBF3F209
:1045FC001201100903FB1011A08900B2002806DA81
:10460C00C9003231B1FBF3F303F0070305E00901F4
:10461C003231B1FBF3F303F00F0343EA020292B21F
:10462C00228107B030BD00BF003801404FF4165353
:10463C0003600C2200238380C38003814281838129
:10464C0070470A8810B54C88038A44EA02028C88A9
:10465C00C98823F4706322431B040A431B0C92B2D7
:10466C0042EA0303038210BD00230380438083804E
:10467C00C380704721B183899BB243F4005304E09B
:10468C00838923F400531B041B0C83817047CBB22A
:10469C0010B55B09012401F01F0114FA01F1A342CA
:1046AC0001D10C3004E0022B01D1103000E01430A9
:1046BC001AB1036843EA010102E0036823EA01012D
:1046CC00016010BD1AB1838A9BB2194303E0838A3F
:1046DC009BB223EA010181827047038A23F00F0306
:1046EC001B041B0C0382038A9BB241EA0303038263
:1046FC007047838923F400631B041B0C838183891B
:10470C009BB241EA03038381704721B183899BB239
:10471C0043F0020304E0838923F002031B041B0C07
:10472C0083817047038A23F020031B041B0C038234
:10473C00038A9BB241EA03030382704721B1038AC7
:10474C009BB243F4804304E0038A23F480431B04AC
:10475C001B0C03827047C905C90D81807047808886
:10476C00C005C00D704783899BB243F00103838160
:10477C007047038BDBB20383038B9BB243EA0123A9
:10478C0003837047038B03F47F430383038B9BB238
:10479C0041EA03030383704721B1838A9BB243F040
:1047AC00200304E0838A23F020031B041B0C838268
:1047BC00704721B1838A9BB243F0100304E0838AD3
:1047CC0023F010031B041B0C8382704721B1838AD6
:1047DC009BB243F0080304E0838A23F008031B0414
:1047EC001B0C8382704731B183896FEA43436FEAB4
:1047FC0053439BB202E083895B045B0C838170475B
:10480C0021B1838A9BB243F4006304E0838A23F4CE
:10481C0000631B041B0C83827047838A23F0040300
:10482C001B041B0C8382838A9BB241EA03038382A1
:10483C00704721B1838A9BB243F0020304E0838A60
:10484C0023F002031B041B0C83827047038819425C
:10485C000CBF002001207047C94389B2018070470A
:10486C0010B5CCB20122640901F01F039A40012C4F
:10487C0001D1838903E0022C0CBF038A838A9BB28B
:10488C0002EA0303028892B243B1090A012313FA24
:10489C0001F111420CBF0020012010BD184610BDC3
:1048AC00090A01238B40DB439BB20380704700BF96
:1048BC0010B5064C18B9236801221A8210BD044B9E
:1048CC001B681B68984720680A3010BD9C010020AB
:1048DC00C001002010B5064C18B9236801221A82B9
:1048EC0010BD044B1B689B68984720680C3010BDAA
:1048FC009C010020C001002008B5264B18B91B688C
:10490C0002221A8208BD2448002202801A681178FB
:10491C0011F07F0113D1527A017812F0200F14BFDD
:10492C0041F0020121F00201017012F0400F0278F7
:10493C0014BF42F0010222F00102027022E00129B0
:10494C0027D0022924D1527902F00F0312F0800FE4
:10495C004FEA830308D003F1804303F5B8431B6887
:10496C0003F03003102B08E003F1804303F5B84348
:10497C001B6803F44053B3F5805F03D1037843F015
:10498C0001030370054B1B681B699847024808BD5F
:10499C00002008BD9C01002098010020C0010020CF
:1049AC00234B2DE9F0471C689846258A267A214F1F
:1049BC009DB9042E11D1204A937853B11F4B19681D
:1049CC001F4B89B2CB185B001D6030233B80957068
:1049DC0028E010223A80072624E0A369E088B4F886
:1049EC00149098478246002000F0FAFE4D458CBF8B
:1049FC0002260426A94538BF4D462A460146504694
:104A0C0000F0C2FC2946002000F006FF238A4FF478
:104A1C0040525B1B2382638AED1830233B80094B89
:104A2C0065821A80D8F800301E72BDE8F08700BF8E
:104A3C009C010020CE01002098010020505C004019
:104A4C0002300020CC01002010B50B4B0B491B6829
:104A5C004978DA7891420AD3997841B99C8844B95B
:104A6C009A72074B1B685B689847204610BD022062
:104A7C0010BD022010BD00BF9C01002028010020A9
:104A8C00C001002038B50F4C0F4B22681B685079C1
:104A9C009B69D178984723689A7A7AB170B91A7958
:104AAC0062B99D7865B9094B1B68DB689847236828
:104ABC0028465A79DA72DA781A7338BD022038BD72
:104ACC00022038BD9C010020BC010020C001002048
:104ADC0010B5364B1B68187810F07F0004D15A7A49
:104AEC0022F020025A7210BD02285AD15A88002A8C
:104AFC005AD11A79002A57D15A792D4C22F08000BC
:104B0C00810001F1804101F5B8410968247812F067
:104B1C00800F14BF01F0300101F44051A04240D28B
:104B2C0000293ED09B7A002B3DD012F0800F4FEA2B
:104B3C00800411D004F1804404F5B844236803F0D8
:104B4C003003102B27D1C4B2204600F0F5FD2046CF
:104B5C00302100F0A0FC1EE004F1804404F5B844C0
:104B6C00236803F44053B3F5805F14D128B9114B7B
:104B7C0093F82C1000F072FE01E000F0C9FD2268E1
:104B8C004BF68F7302EA030383F4405343F4004360
:104B9C0043F080032360084B1B685B699847002037
:104BAC0010BD022010BD022010BD00BF9C010020D2
:104BBC0028010020F8000020C001002010B5234B74
:104BCC00234C196824784A7922F08003980000F16C
:104BDC00804000F5B840006812F0800F14BF00F060
:104BEC00300000F44050A3422BD24C884CBB40B355
:104BFC00897A41B312F0800F4FEA83030BD003F193
:104C0C00804303F5B843196848F6BF7201EA020203
:104C1C0082F010020AE003F1804303F5B8431968EF
:104C2C004BF68F7201EA020282F4805242F4004287
:104C3C0042F080021A60074B1B689B699847002062
:104C4C0010BD022010BD022010BD00BF9C01002031
:104C5C0028010020C001002008B5064B1B685A7AB9
:104C6C0042F020025A72044B1B68DB699847002003
:104C7C0008BD00BF9C010020C0010020054B1A6834
:104C8C00538A18B98988CB1A138270470868C018E0
:104C9C00704700BF9C01002008B50C4B002093F816
:104CAC002C1000F0DBFD0A4B1B68187A082806D183
:104CBC00084B4FF480521A80074B10221A80A0F137
:104CCC000903584240EB030008BD00BFF800002068
:104CDC009C010020CC010020CE0100202DE9F041E8
:104CEC002C4D2C68237A022B4DD0042B4BD0032B4C
:104CFC0001D0052B41D1A369228AABB1A2B1A68AFE
:104D0C00964228BF164630469847238A07469B1B77
:104D1C002382638A0020F318638200F06FFD324611
:104D2C000146384600F047FB238A53B11A4B4FF427
:104D3C00405200201A80014600F06EFD174B3022C5
:104D4C001A80238AA28A9A4202D82B68032202E094
:104D5C001BB12B6805221A720CE02A68062111720D
:104D6C000F4A11680F4A89B28A18520013600B4B14
:104D7C0030221A802B681B7A06E0072B03D10A4BD2
:104D8C001B68DB68984708232A681372BDE8F0415A
:104D9C0082E700BF9C010020CC010020CE01002046
:104DAC00505C004002300020BC0100208A4BF7B55B
:104DBC001A688A4C8A4B92B2D31826685B001F681B
:104DCC00337A092B1AD0BFB207F1005707F54057B9
:104DDC007F003D4615F8013B33707B780A377370C2
:104DEC00B5F8030000F0F3FE7080B5F807002668F4
:104DFC0000F0EDFEB08023687F88DF8022680123FD
:104E0C001372D3885578002B60D1137813F07F037D
:104E1C002ED1092D02D1FFF717FE3BE0052D0DD148
:104E2C0092F90330002B4DDB9378002B4AD19388F9
:104E3C00002B47D1937A002B35D043E0032D0BD1B7
:104E4C00D378012B27D193882BBB537A13F0200FE7
:104E5C0021D0FFF701FF1DE0012D1CD1D378012BD0
:104E6C0019D19388BBB9537A13F0200F13D00AE0F1
:104E7C00012B04D10B2D0ED1FFF704FE0AE0022BFF
:104E8C0009D1012D02D1FFF723FE03E0032D02D13E
:104E9C00FFF794FE38B1534B28461B685B69984763
:104EAC0003280DD070B94C4B30211A684E4B92B27E
:104EBC00D3185B0000221A604C4B1980062302E0C9
:104ECC00092300E0082322681372DEE0062D16D1B8
:104EDC00137813F07F0F40F093809278414B012AA6
:104EEC0002D11B68DB696DE0022A02D11B681B6AC8
:104EFC0068E0032A40F084801B685B6A62E0002D46
:104F0C003AD1518800297BD1536823F47F43B3F500
:104F1C00003F75D1137813F07F0303D19388002BD6
:104F2C004CD06DE0012B0CD12E4B50791B689B693A
:104F3C009847002864D1294B1B689B7A002B3DD1E4
:104F4C005EE0022B5CD15379294803F00F018A00F3
:104F5C0002F1804202F5B8421268007813F0800F1B
:104F6C0014BF02F0300202F44052814248D213F0D6
:104F7C00700F45D112BB43E0082D04D1137813F008
:104F8C007F0F1DD03CE00A2D3AD1137803F07F033C
:104F9C00012B35D1937A002B32D0518800292FD197
:104FAC00536823F47F43B3F5803F29D10D4B5079DF
:104FBC001B689B69984718BB0E4B04E00E4B02E034
:104FCC000E4B00E0E3B12268002151829361002076
:104FDC00984700201FE000BF505C00409C0100205F
:104FEC0004300020BC01002002300020CE01002043
:104FFC0028010020E148000805490008BD480008C8
:10500C00244B22681B6850781B699847032802D1EF
:10501C00214B1B6805E023684FF6FF711A8A8A4200
:10502C0001D1092203E0022800D012B908221A7219
:10503C002BE093F90010002921DAD888019001990E
:10504C008A42144902D9019A1A8210E082420ED285
:10505C000B6893F82C309A4201D2002205E092FBA7
:10506C00F3F003FB102212B901320C4B9A700A6850
:10507C00236892F82C209A82FFF792FC05E0032219
:10508C001A72074B4FF440521A8003B0BDE8F0403F
:10509C0002E600BFBC0100209C010020980100200A
:1050AC00CC01002070B50F4B1D78002312E0DCB250
:1050BC00A20002F1804202F5B842166844F40044A2
:1050CC0040F60F7144F0800406EA010144EA010144
:1050DC0011600133AB42EAD3034B40F080001860FF
:1050EC0070BD00BF280100204C5C004010B5134C73
:1050FC0023681A7A022A01D0042A04D1FFF750FC43
:10510C0023681B7A14E0062A11D15A78052A0AD191
:10511C001A7812F07F0F06D1D878FFF7C3FF084B2F
:10512C001B681B6A9847074B1B689B6898470823AA
:10513C0022681372BDE81040AEE500BF9C01002050
:10514C00C0010020BC010020704700BF08B5064B11
:10515C0006491A1D1A6002221A73054A59621A620C
:10516C001368984708BD00BF9C0100202C0100204B
:10517C00F800002037B50023ADF80630A6E0138800
:10518C00584C03F00F032370002B6ED1564C574D27
:10519C0023689BB22B802B8803F030036B802B8809
:1051AC0003F440532B8021684BF6BF7301EA0303D1
:1051BC0083F4005383F0200343F4004343F0800353
:1051CC002360138813F0100F08D1226848F60F7370
:1051DC0002EA03032360FFF789FF1EE023689BB2FA
:1051EC00ADF80630BDF8063013F4006F08D0226815
:1051FC0040F68F7302EA03032360FFF7D7FD0CE040
:10520C00BDF806301BB2002B60DA226840F68F73B3
:10521C0002EA03032360FFF761FD22684BF6BF73BC
:10522C0002EA03032A8802F4805292B20AB183F490
:10523C0080532A8802F4005292B20AB183F40053CC
:10524C006A8802F0100292B20AB183F010036A88E5
:10525C0002F0200292B20AB183F02003244A43EAFE
:10526C000202214B92B21A603AE09B0003F1804398
:10527C0003F5B8431A6892B2ADF80620BDF80620C3
:10528C0012B2002A0BDA196840F68F7201EA020298
:10529C001A602278174B013A53F822309847BDF820
:1052AC00063013F0800F11D0237848F60F729B0054
:1052BC0003F1804303F5B843196801EA02021A604E
:1052CC0022780D4B013A53F8223098470B4B0C4A7D
:1052DC001B689BB2138013881BB2002BFFF64FAFD9
:1052EC003EBD00BFC4010020005C0040CC0100208A
:1052FC008080FFFF9C00002080000020445C004068
:10530C001842002008B52AE047F6FF7111601B888F
:10531C00184A03F00F0313709B0003F1804303F54D
:10532C00B843196889B211F4004F09D0186840F6D7
:10533C008F7100EA0101196012780F4B013A0BE0F2
:10534C0011F0800F0BD0186848F60F7100EA0101BC
:10535C0019601278094B013A53F822309847084AE1
:10536C00084B116889B21980198809B20029CBDB66
:10537C0008BD00BFC40100209C000020800000205C
:10538C00445C00401842002001F10051013201F54B
:10539C00405110B54900520808E010F8014C10F8C3
:1053AC00023C013A43EA042321F8043C0230043164
:1053BC00002AF2D110BD01F10051013201F540512A
:1053CC004900520804E051F8043B013A20F8023B32
:1053DC00002AF8D170470000014B1860704700BFDD
:1053EC00405C0040014B186880B27047405C004044
:1053FC00014B1860704700BF445C0040014B1868BB
:10540C0080B27047445C0040014B186880B2704712
:10541C00485C0040014B1860704700BF4C5C00407A
:10542C00014B186880B270474C5C00404FF6F87323
:10543C00024A00EA03031360704700BF505C00404F
:10544C00014B186880B27047505C0040800000F13E
:10545C00804000F5B84001607047800000F180404A
:10546C0000F5B840006880B27047800000F18040C1
:10547C0000F5B840026848F68F1302EA03030B43A9
:10548C0003607047800000F1804000F5B840006870
:10549C0000F4C0607047800000F1804000F5B84017
:1054AC00026848F6BF7302EA030301F0100292B2DD
:1054BC000AB183F0100301F0200189B209B183F025
:1054CC00200343F4004343F08003036070478000E3
:1054DC0000F1804000F5B84002684BF68F7302EA89
:1054EC00030301F4805292B20AB183F4805301F4A5
:1054FC00005189B209B183F4005343F4004343F0E3
:10550C0080030360704738B50D460446FFF7A5FFCE
:10551C00012D08D1A40004F1804404F5B84420F412
:10552C008050206038BD022D07D1A40004F18044C6
:10553C0004F5B84420F01000206038BD800000F164
:10554C00804000F5B840006800F0300070478000E3
:10555C0000F1804000F5B840006800F440507047FE
:10556C00800000F1804000F5B840026848F6BF7337
:10557C0002EA030383F0300343F4004343F0800357
:10558C0003607047800000F1804000F5B84002686D
:10559C004BF68F7302EA030383F4405343F4004346
:1055AC0043F0800303607047800000F1804000F5F9
:1055BC00B840026840F60F6302EA030343F4004369
:1055CC0043F4C07303607047800000F1804000F525
:1055DC00B840026840F60F6302EA030343F4004349
:1055EC0043F0800303607047800000F1804000F5B9
:1055FC00B840026840F60F6302EA030343F4004329
:10560C0043F0800303607047800000F1804000F598
:10561C00B840026840F60F6302EA030343F4004308
:10562C0043F4C07303607047800000F1804000F5C4
:10563C00B840026840F60F6302EA030343F40043E8
:10564C0043F4C07303607047800000F1804000F5A4
:10565C00B840026840F60F6302EA030343F40043C8
:10566C0043F0800303607047800000F1804000F538
:10567C00B840006800F03000A0F11003584240EB35
:10568C0003007047800000F1804000F5B8400068CE
:10569C0000F44050A0F58052504240EB020070479D
:1056AC00800000F1804000F5B840026840F68F732E
:1056BC0002EA030303607047800000F1804000F5AC
:1056CC00B840026848F60F7302EA030303607047A0
:1056DC00800000F1804000F5B840026840F60F737E
:1056EC0002EA030343F4404343F080030360704732
:1056FC00800000F1804000F5B840026840F60F735E
:10570C0002EA030343F4004343F0C0030360704711
:10571C00800000F1804000F5B840036813F4804F1E
:10572C0009D0026840F60F7302EA030343F44043C6
:10573C0043F0800303607047800000F1804000F567
:10574C00B840036813F0400F09D0026840F60F739D
:10575C0002EA030343F4004343F0C00303607047C1
:10576C00800000F1804000F5B840036841F400412E
:10577C0040F60F7241F0800103EA020241EA020294
:10578C0002607047800000F1804000F5B84000686E
:10579C0000F00F007047084B4FF6FE721B6801EAD1
:1057AC0002029BB203EBC00303F1005303F5405319
:1057BC005B001A60704700BF505C0040064B074A04
:1057CC001B689BB203EBC0039A184FF6FE73520092
:1057DC0001EA030313607047505C00400430002062
:1057EC00054B1B689BB203EBC00303F1005303F59D
:1057FC0040535B0018887047505C0040044B054ACE
:10580C001B689BB203EBC0039A18520010887047B8
:10581C00505C004004300020044B054A1B689BB2CE
:10582C0003EBC0039A18520011607047505C0040A3
:10583C00023000203E2909D94B0911F01F0F01D16C
:10584C00013B9BB29B0243F4004305E04B0811F073
:10585C00010F18BF01339B02036070470D4B1A6890
:10586C000D4B92B2D31803EBC0035B003E2909D950
:10587C004A0911F01F0F01D1013A92B2920242F47F
:10588C00004205E04A0811F0010F18BF01329202E4
:10589C001A607047505C004006300020054B064AE9
:1058AC001B689BB203EBC0039A185200106880056A
:1058BC00800D7047505C004002300020054B064ABA
:1058CC001B689BB203EBC0039A185200106880054A
:1058DC00800D7047505C0040063000200D4B30B5F9
:1058EC001C681B68C0009BB2A4B20419C0180A4BF8
:1058FC0004F10054C3184FF6FE7501EA050504F5D2
:10590C00405459004FF6FE73640002EA030325600D
:10591C000B6030BD505C004004300020074B4FF64C
:10592C00FE721B6801EA02029BB203EBC00303F197
:10593C00005303F540535B001A607047505C004005
:10594C00064B074A1B689BB203EBC0039A184FF631
:10595C00FE73520001EA030313607047505C004071
:10596C0004300020054B1B689BB203EBC00303F112
:10597C00005303F540535B0018887047505C00409F
:10598C00044B054A1B689BB203EBC0039A185200E8
:10599C0010887047505C004004300020012910B57D
:1059AC0024D1254B25491B68C0009BB259180918F6
:1059BC004B003E2A09D9510912F01F0F01D10139B0
:1059CC0089B2890241F4004105E0510812F0010F3F
:1059DC0018BF013189021960174B1968184B89B22D
:1059EC00CB18181840003E2A1ED912E0022922D1E9
:1059FC001149C0000C68114BA4B20419E3185B00E8
:105A0C001A600B689BB2C0180D4BC3185B001A6070
:105A1C0010BD530912F01F0F01D1013B9BB29B0229
:105A2C0043F40043036010BD530812F0010F18BF7C
:105A3C0001339B02036010BD505C0040023000201B
:105A4C000630002001291BD1134B1968134B89B266
:105A5C00CB1803EBC00040003E2A09D9530912F0C1
:105A6C001F0F01D1013B9BB29B0243F4004305E0A5
:105A7C00530812F0010F18BF01339B0203607047EB
:105A8C00022908D1044B1B689BB203EBC000034BEB
:105A9C00C3185B001A607047505C00400230002055
:105AAC0001291BD1134B1968134B89B2CB1803EB8B
:105ABC00C00040003E2A09D9530912F01F0F01D132
:105ACC00013B9BB29B0243F4004305E0530812F0E8
:105ADC00010F18BF01339B0203607047022908D1E4
:105AEC00044B1B689BB203EBC000034BC3185B0059
:105AFC001A607047505C004006300020054B064A87
:105B0C001B689BB203EBC0039A1852001068800507
:105B1C00800D7047505C004002300020054B064A57
:105B2C001B689BB203EBC0039A18520010688005E7
:105B3C00800D7047505C0040063000200D4BC000BB
:105B4C001A680D4992B28218511849000A8812F449
:105B5C007C4F0DD11B689BB2C018084BC3185B005F
:105B6C0018888005800D002814BF02200020704783
:105B7C0001207047505C00400630002002300020AD
:105B8C0001290FD1800000F1804000F5B840026877
:105B9C0040F60F7302EA030343F4004343F0C003DF
:105BAC000360704702290ED1800000F1804000F59F
:105BBC00B840026840F60F7302EA030343F4404313
:105BCC0043F080030360704741EA00207047C3B282
:105BDC00000A40EA0320704738B507F03FFA00F09E
:105BEC009DF907F03CFA1E4B20225A611D4B4FF4D5
:105BFC0080421A6107F0B6FA1B4C10B107F0B8FAE4
:105C0C001DE01A4D2B68002B14DA164B4FF4804212
:105C1C005A612968164889B207F022FA236823B121
:105C2C00236843F00043236000E02B60114B0022FB
:105C3C001A6004E0012000F0B1F907F08BFA236838
:105C4C00094D002BD2DA2968094889B200F024FBEF
:105C5C0000F002FB054A002313602B60C6E700BF6F
:105C6C00000C01400008014014020020100200202A
:105C7C0018120020080200207047FEE7FEE7FEE73E
:105C8C00FEE77047704770477047FFF73BBB00F06B
:105C9C0033BD704710B5074840F22551FEF7E0FDC3
:105CAC0038B10448FEF75BFDC0B2BDE8104000F00F
:105CBC00B9BA10BD0038014070B507294FF00F0577
:105CCC0002EA050409D88B009D409C40066826EA30
:105CDC00050545EA040303600AE0A1F108039B00F3
:105CEC009D409C40466826EA050545EA040343604E
:105CFC0012F0200F0BD012F0100F4FF0010303D055
:105D0C0013FA01F1016170BD13FA01F1416170BD2B
:105D1C0010B5FDF7A1FA4FF48030FDF7BDFAFDF791
:105D2C001DFC0128044626D11020FCF737FE02206A
:105D3C00FCF71EFE0020FDF7FFFA0020FDF710FB1C
:105D4C004FF48060FDF702FB4FF480304FF480116C
:105D5C00FDF7CEFA2046FDF7D7FA3920FDF7EAFB1E
:105D6C000028FAD00220FDF7D5FAFDF7DDFA8008FD
:105D7C00C0B20228F9D10020FDF708FB0D2001214B
:105D8C00FDF796FB4FF400000121BDE81040FDF734
:105D9C009BBB70B5082104221548FFF78DFF154CED
:105DAC000020FCF78BFC4FF4804609213822104868
:105DBC00FFF782FF20460E2103222661FFF77CFFAE
:105DCC000B4D4FF40043236120232B6120460F2100
:105DDC000322FFF771FF284605210322FFF76CFF12
:105DEC00002128460A466661BDE8704064E700BFA2
:105DFC00000C01400008014013B54FF400514FF066
:105E0C000060FCF76BFA4FF4A060FCF72BFA2A2326
:105E1C0001248DF8043001A8283B8DF806308DF84C
:105E2C0005408DF80740FCF727FA142301A88DF8DC
:105E3C0004308DF805408DF806408DF80740FCF7CE
:105E4C001BFA13238DF8043001A8133B8DF8054081
:105E5C008DF806308DF80740FCF70EFA1CBD2DE9C5
:105E6C00F0410E4D0026BDF818E0BDF81C7069809D
:105E7C004FF400712E80AE806981013629460446AC
:105E8C00A5F806E02F81AA81EB812E82FDF7C6FBD7
:105E9C0020463146BDE8F041FDF749BCD001002059
:105EAC0010B5012186B04FF40070FDF701FB1A48C4
:105EBC00FCF736FA012400234FF46022164801A99E
:105ECC000193039204938DF808408DF809408DF8E6
:105EDC001440FCF753FA1048082122460523FCF71E
:105EEC00CCFA0D482146FCF778FA0B48FCF793FAEC
:105EFC000948FCF795FA0028FAD10748FCF794FA00
:105F0C000548FCF796FA0028FAD103480121FCF762
:105F1C0094FA06B010BD00BF0024014010B5FFF785
:105F2C00F7FE0E480121FDF7D5F8FFF765FFFFF7E7
:105F3C0030FFFFF7B5FF0A4B1A6822F002021A6015
:105F4C001A6842F004021A601A6822F001021A6000
:105F5C0000229A60BDE81040FFF7F8B8000430004A
:105F6C0010E000E0024B9A7C01329A74704700BF3B
:105F7C00D0010020024B9A7C0AB1013A9A74704706
:105F8C00D001002008B50448FCF7C8FA41F6C81344
:105F9C005843000B80B208BD0024014038B50F4CAB
:105FAC00054663690133B3F5803F636114D3002365
:105FBC006361FFF7E7FFB0F5E16F208301D203F0D7
:105FCC000BF94DB1238B4FF40042B3F5E16F044B49
:105FDC0001D95A6138BD1A6138BD00BFD00100200B
:105FEC0000080140490830B5182928BF18210023A2
:105FFC00114A1DE0541814F8014C2409092C01D93C
:10600C00373400E03034C4544C1EA4B294B114198B
:10601C0014F8014CC51804F00F04092C01D93734BD
:10602C0000E0303402390433AC7089B201329BB2D7
:10603C000029DFD130BD00BFE8F7FF1F82B001900F
:10604C001AE0019B0F4A934298BF019A4821514391
:10605C000D4B5960196841F0010119600A4B196820
:10606C0011F4803FFAD0196821F001011960002168
:10607C009960019B9A1A0192019B002BE1D102B00D
:10608C00704700BF400D030010E000E04FF47A733E
:10609C005843D3E713B52523002401A88DF8043009
:1060AC008DF805408DF806408DF80740FCF7E4F8B4
:1060BC001348FEF713FA21464FF48040FDF7F8F928
:1060CC00092104220F48FFF7F7FD0A2104220D488D
:1060DC00FFF7F2FD0A2104220B48FFF7EDFD0A48F9
:1060EC000B210422FFF7E8FD05E0013BD36103F02F
:1060FC0061F8FFF73FFF054AD369002BF5D11CBDB2
:10610C000038014000080140000C0140D001002083
:10611C00F0B5054687B03748374F1E46144600F099
:10612C0015FE364800F012FEFB698BB93448FEF7B9
:10613C00D5F94FF480400121FDF7BAF93148092116
:10614C000B22FFF7B9FD2F480A210422FFF7B4FDFB
:10615C00FB6905A80133FB61252300278DF814305A
:10616C0001238DF815708DF816708DF81730FCF72B
:10617C0083F8012E019503D00AD3022E08D102E038
:10618C004FF4405301E04FF40053ADF80A3001E0F6
:10619C00ADF80A70012C03D00CD3022C0AD102E00A
:1061AC004FF4C06301E04FF48063ADF80C304FF452
:1061BC00805302E00023ADF80C30ADF808300C230E
:1061CC00ADF80E3001A900230D48ADF81030FEF7E4
:1061DC00D1F901220A4840F22551FEF758FA084835
:1061EC000121FEF747FAFFF7BDFE02F0C9FF07B029
:1061FC00F0BD00BF60000020D00100207000002026
:10620C000038014000080140014B20225A607047C1
:10621C0000E100E0024B2022C3F88420704700BF4D
:10622C0000E100E0014608B5044800F0EBFC012851
:10623C0003D0034B4FF400425A6108BD700000209C
:10624C00000801407047034B186AD0F1010038BFB9
:10625C0000207047D001002010B5002414E0B4F5E4
:10626C00801F0C4B01D05A6A6AB100225A6202207C
:10627C001A629A62FFF72CFA02202021FFF70BF921
:10628C004FF0FF3010BD0134FFF7DDFF0028E6D0E2
:10629C00002010BDD00100202DE9F04101F13F0399
:1062AC003F4C9B0911F03F0FE062236202D1236A3D
:1062BC00013323620220A162FFF7CFF810F4804F64
:1062CC00374D31D0AB6AE06A402B94BFAD6A4025A4
:1062DC00AFB2C0213A46FFF757F8022001463A46C2
:1062EC00FFF7DEFB02200146FFF74AFCA36AE06AD7
:1062FC005B1BA362A26A4019294EE0627AB1B36AB1
:10630C00402B94BFB56A4025AEB280213246FFF7D0
:10631C003BF8022001463246FFF794FB30E00220A6
:10632C000146FFF78FFB36E0AB6AE06A402B94BF67
:10633C00AD6A4025AFB280213A46FFF725F802201E
:10634C0001463A46FFF77EFB02200146FFF718FC98
:10635C00A36AE06A5B1BA362A26A4019104EE0625A
:10636C00AAB1B36A402B94BFB56A4025AEB2C02126
:10637C003246FFF709F8022001463246FFF790FB40
:10638C00A36A5B1BA362E36A5D19E56203E002206A
:10639C000146FFF785FB0220BDE8F041FFF7E0B8AE
:1063AC00D0010020F7B540212D48FEF74FFA012807
:1063BC0006462C4C2DD12C4800F013FC2B4DF8B17B
:1063CC00294800F093FC01462548FEF7C4F92378D0
:1063DC006BB9274F3B7853B9234800F00CFCB0F550
:1063EC00C07F04D33E7003203146FFF7C9FB012365
:1063FC002B6323786BB91F4B4FF480425A6108E032
:10640C002B6B33B1237828631BB91A4B4FF48042A2
:10641C001A6123781BBBFFF716FF00B3134D696B92
:10642C0011B1154800F081FC134801A900F078FC6B
:10643C00044648B101982146FFF72EFF0D4B4FF44F
:10644C0080426C635A610AE06B6B43B1074B0146A7
:10645C005863FFF721FF074B4FF480421A61FEBDD2
:10646C00003801402C42002060000020D0010020A8
:10647C005C0000200008014070000020704770474D
:10648C007047024B4FF400425A61704700080140BC
:10649C00024B4FF400425A61704700BF00080140A4
:1064AC007047704710B5034604E011F8014B013AF0
:1064BC0003F8014B002AF8D110BD30B5002307E0DA
:1064CC00C55CCC5C0133A54201D0281B30BD013A20
:1064DC00002AF5D1104630BDC9B2034602E003F8DC
:1064EC00011B013A002AFAD170470000F0B5474B66
:1064FC0091B01B78002B3AD00320FEF7AEFF10F0C2
:10650C00400F434B0DD01B781BB103200121FFF72B
:10651C0037FB0320FFF7F2FA4FF48071044668460C
:10652C000CE01B781BB103200121FFF729FB032092
:10653C00FFF7F4FA4FF4A071044668462246FEF7C2
:10654C003AFF002C60D0324D281D00F054FBFF2880
:10655C0001D800232B702F486946224600F065FBBA
:10656C00A04251D22C4B4FF400425A614CE02B4EBE
:10657C002B4C3268002A03DA2A4A0121116023606D
:10658C0003200121FFF7FCFA0320FEF766FF10F051
:10659C00400F254F08D00320FFF7C0FA05462068AE
:1065AC004FF4A071381807E00320FFF7A7FA05464F
:1065BC0020684FF4807138182A46FEF7FCFE1DB394
:1065CC002368ABB93A78184B0F2A09D80A2A05D197
:1065DC005A789B7807321B02D31808E0356007E025
:1065EC0012F0800F04D199785A7809028B18336015
:1065FC002368ED18256032682168084B914203D35B
:10660C001A6842F000421A6011B0F0BD1D42002021
:10661C005C000020600000200008014010020020F7
:10662C0008020020F4010020181200202DE9F0418E
:10663C002E4C02202368013B2360FEF70EFF10F462
:10664C00804F24D02368002B4DD002200146FFF749
:10665C0097FA2368012B46D9254D2A688AB12B68F5
:10666C00244E402B94BF2C684024A7B23068802164
:10667C003A46FEF789FE022001463A46FFF7E2F958
:10668C0023E002200146BDE8F041FFF7DBB92368A7
:10669C00002B28D002200146FFF772FA2368012B49
:1066AC0021D9134D2A68C2B12B68124E402B94BFCE
:1066BC002C684024A7B23068C0213A46FEF764FE2D
:1066CC00022001463A46FFF7EBF92B681B1B2B60A7
:1066DC0033681C193460BDE8F08102200146BDE826
:1066EC00F041FFF7DDB9BDE8F08100BFF0010020FB
:1066FC00F8010020FC010020294B70B51A68294DC7
:10670C0092B2294C2A802A88218801EA020212F4CA
:10671C00806F05D04FF6FF321A60244B5B689847A8
:10672C002B88228802EA030313F4005F05D01C4B6C
:10673C004DF6FF721A60FFF7ABFE2B88228802EA37
:10674C00030313F4805F08D0154B4EF6FF721A60EA
:10675C00002000F0FBF9FFF7A3FE2B88228802EA49
:10676C00030313F4006F0ED0114B1B7813B100F020
:10677C00CDF902E0022000F0E9F9094B4FF2FF726B
:10678C001A60FFF78EFE2B88228802EA030313F4AB
:10679C00004F03D0BDE87040FEF7ECBC70BD00BFED
:1067AC00445C004018420020C8010020F800002082
:1067BC0050010020034B1B689B7A13B1024B05223E
:1067CC001A6070479C01002028420020014B0422D3
:1067DC001A607047284200207047034B1A78202A11
:1067EC0001D1203A1A7070471C42002070472128B2
:1067FC0008B508D1134B1B681B7803F07F03212BC2
:10680C0011D01F3808BD202817D10E4B0E4A1B681B
:10681C001B7803F07F03212B0CBF134600230B4A7C
:10682C0010700BB90BE00A4B064A002112680020CD
:10683C00936151829847002008BD022008BD0220B8
:10684C0008BD00BF9C010020896800081C42002084
:10685C007168000821B901288CBF02200020704704
:10686C000220704720B9034B08221B681A8270471C
:10687C00014870479C010020B800002010B520B9D9
:10688C000A4B08221B681A8210BD094B01225A7050
:10689C00084B094C4FF400421A61082120686279B8
:1068AC002379A171FFF734FC204610BD9C01002018
:1068BC001C42002000080140B8000020054B1B685A
:1068CC00DB78052B04D8044901EBC301FEF7D6B9DC
:1068DC00002070479C010020C00000200149FEF7F9
:1068EC00CDB900BFE80000200149FEF7C7B900BFD1
:1068FC00F000002010B5104B04461B681A7802F00B
:10690C007F02412A06D188B9FFF7C4FB0B4B204606
:10691C005C7010BD212A09D1022809D0232807D088
:10692C00222807D1DA78054B9A7001E0022010BDBD
:10693C00002010BD022010BD9C0100201C42002034
:10694C00424B434A1B68D27910B500245A729C7290
:10695C00DC722046FEF76AFD20464FF40071FEF70C
:10696C0084FD10212046FEF796FD68212046FEF797
:10697C0025FF70212046FEF70EFF2046FEF734FE61
:10698C00344B204693F86C10FEF768FF2046FEF758
:10699C00F9FD01204FF4C061FEF767FD012078215D
:1069AC00FEF7F9FE01202021FEF775FD012021469E
:1069BC00FEF78DFD02202146FEF757FD0220FEF763
:1069CC0033FE02208021C022FEF788FF02202246DF
:1069DC000146FEF7E3FF0220FEF79AFE0220FEF7C7
:1069EC00ABFE02202146FEF772FD02202021FEF7AD
:1069FC0052FD21460320FEF738FD0320FEF714FE5E
:106A0C0003204FF480714FF4A072FEF767FF402211
:106A1C0001210320FEF7C2FF0320FEF779FE0320BD
:106A2C00FEF78AFE0320FEF763FE03204FF440516D
:106A3C00FEF74DFD03202146FEF72DFD2046FEF707
:106A4C0031FB054B01221A6010BD00BF9C010020D8
:106A5C00F0D10008B80000202842002010B50A48E8
:106A6C003021FFF7BFFA094B00241B689C7200F021
:106A7C0023F8074B074A1C604FF43C431380064A2B
:106A8C001360064B1C6010BD2A0000209C010020E6
:106A9C00445C0040C8010020405C004028420020BB
:106AAC0020B9034B01221B681A82704701487047BA
:106ABC009C0100202042002008B50120FFF7DEFCDD
:106ACC00064B01221A60064A002006491860106025
:106ADC004FF4E0520A801A6008BD00BF405C0040D1
:106AEC00445C0040C801002038B5064D01232B60E2
:106AFC00054B00241C602046FFF7C0FC03232B60D1
:106B0C00204638BD405C0040445C0040064B1A688F
:106B1C0092B242F008021A601A6892B242F0040271
:106B2C001A60FFF7ACBC00BF405C004010B5064CCF
:106B3C004FF6FB73226802EA03032360FFF7A0FC05
:106B4C004FF43C43236010BD405C004010B5204C1A
:106B5C00072818BF20702378052B35D8DFE803F001
:106B6C0003070B101823FFF7E1FF062306E0FFF7DE
:106B7C00DDFF042302E0022363700133237010BD98
:106B8C006378013BDBB263706378FBB9042218E0D5
:106B9C00104B1A6892B242F010021A60052323704F
:106BAC00DB18637010BD6378013BDBB263706378F4
:106BBC0063B9084A4FF6EF73116801EA03031360D7
:106BCC000622034B1A7010BD0623237010BD00BFA4
:106BDC0024420020405C00400130884228BF002045
:106BEC0070478268C3689A4201D3D01A70474068D4
:106BFC001218D01A704710B50446FFF7F2FF6368FD
:106C0C00181A10BD38B504460D46FFF7F4FF0128DD
:106C1C0009D9A3682268D554A0686168FFF7DCFF26
:106C2C00A060012038BD002038BD70B51546044663
:106C3C000E46FFF7E0FF854225D2A3686268206804
:106C4C00D21A954211D9C0183146FFF72BFCA36814
:106C5C00616820685A1AC91A52197118FFF722FC78
:106C6C00A2686368D31A5B190BE0C0182A46314638
:106C7C00FFF718FCA3686268EB189342A36003D17A
:106C8C000023A36000E00025284670BD70B50446C3
:106C9C0015460E46FFF7A5FFE3686268A84238BFA9
:106CAC000546D21A9542216811D9C9183046FFF70A
:106CBC00F9FB6368E2682168981AD21A52193018E5
:106CCC00FFF7F0FBE2686368D31A5B190BE0C91895
:106CDC002A463046FFF7E6FBE3686268EB189342FE
:106CEC00E36001D10023E360284670BD38B504464B
:106CFC00FFF777FF38B1E068236861681D5CFFF728
:106D0C006BFFE06000E00546284638BD8268C3682A
:106D1C009A4236BF4068C3EB0200C3EB00007047D9
:106D2C000268C368D3180B60F0E738B504460D460B
:106D3C00FFF7ECFFE368A84228BF28466268C31837
:106D4C009342E36001D10023E36038BD0023C360AC
:106D5C0083607047003818BF01207047003818BF97
:106D6C0001207047F8B50C4615461F46BDF8186053
:106D7C00002840F0E68002EA010323F4567323F066
:106D8C000703002B40F0DD8021F46A7323F0070326
:106D9C00934340F0D88011F0010F21D012F0010F75
:106DAC000BD06A4B16F0010F4FF4006214BF1A613E
:106DBC005A6166480B21032210E017F0010F0AD02C
:106DCC0016F0010F03D061480B21382206E05F4812
:106DDC000B21282202E05D480B210422FEF76CFFF8
:106DEC0014F0020F21D015F0020F0BD0574B16F0F8
:106DFC00020F4FF4806214BF1A615A6153480A2182
:106E0C00032210E017F0020F0AD016F0020F03D085
:106E1C004E480A21382206E04C480A21282202E07A
:106E2C004A480A210422FEF747FF14F4007F21D0C0
:106E3C0015F4007F0BD0454B16F4007F4FF0400249
:106E4C0014BF1A615A6141480621032210E017F45D
:106E5C00007F0AD016F4007F03D03C48062138226C
:106E6C0006E03A480621282202E03848062104228E
:106E7C00FEF722FF14F4807F13D015F4807F0BD023
:106E8C00324B16F4807F4FF0100214BF1A615A6116
:106E9C002E480421032202E004212C480A46FEF766
:106EAC000BFF14F0040F13D015F0040F0BD0284B6C
:106EBC0016F0040F4FF4007214BF1A615A61244883
:106ECC000921032202E0224809210422FEF7F4FEE4
:106EDC0014F0080F13D015F0080F0BD01C4B16F044
:106EEC00080F4FF4806214BF1A615A6118480A21C6
:106EFC00032202E016480A210422FEF7DDFE14F0FC
:106F0C00100F04D011480D210322FEF7D5FE14F00A
:106F1C00400F04D00D480F210322FEF7CDFE14F0D4
:106F2C00200F04D009480E210422FEF7C5FE14F0F0
:106F3C00800009D0064808210422FEF7BDFE00207F
:106F4C00F8BD0120F8BD0120F8BD00BF000C0140C8
:106F5C000008014010B500285DD111F47C4F5CD1C4
:106F6C0011F0010F07D02E4B12F0010F4FF40060FF
:106F7C0014BF1861586111F0020F07D0284B12F0A2
:106F8C00020F4FF4806014BF1861586111F4007F38
:106F9C0007D0234B12F4007F4FF0400014BF186150
:106FAC00586111F4807F07D01D4B12F4807F4FF095
:106FBC00100014BF1861586111F0040F07D0194B61
:106FCC0012F0040F4FF4007014BF1861586111F0E7
:106FDC00080F07D0134B12F0080F4FF4806014BF4A
:106FEC001861586111F0100F07D00D4B12F0100FF3
:106FFC004FF4005014BF1861586111F040000DD0CF
:10700C0012F04000064B4FF4004402D01C610020EB
:10701C0010BD5C6110BD012010BD012010BD00BF72
:10702C00000C014000080140002856D121F46A737D
:10703C0023F00703002B50D111F0010303D0294B8F
:10704C009B68C3F3C02311F0020F06D0254880685B
:10705C0010F4806F18BF43F0020311F4007F06D0C8
:10706C002048806810F0400F18BF43F4007311F4EF
:10707C00807F06D01B48806810F0400F18BF43F487
:10708C00807311F0040F06D01748806810F4007F4D
:10709C0018BF43F0040311F0080F06D012488068A3
:1070AC0010F4806F18BF43F0080311F0200F06D0C6
:1070BC000C48806810F4804F18BF43F0200311F087
:1070CC00800F06D00849896811F4807F18BF43F0FF
:1070DC00800322B1138000207047012070471046B6
:1070EC00704700BF000C014000080140012310B99B
:1070FC00024A137070471846704700BF2C4200209C
:10710C0010B5044628B9FEF7C5FF034B20461C708A
:10711C0010BD012010BD00BF2C4200202DE9F04114
:10712C000E4690461F469DF81850044670B9094803
:10713C00FFF70CFE0848FFF709FE304641463A4679
:10714C002B46FEF7E5FF2046BDE8F0810120BDE8A7
:10715C00F08100BF600000207000002070B5164662
:10716C00A0B9A9B10D4604460CE080210948FDF7F1
:10717C006DFB0128F9D1074815F8011BFDF7EBFA57
:10718C000134A4B2B442F0D3002070BD012070BD14
:10719C00012070BD0038014038B50D46144670B959
:1071AC0069B10948FFF71DFDA0420AD306482946DC
:1071BC002246FFF76BFD201A18BF012038BD0120B5
:1071CC0038BD012038BD00BF7000002038B50C461A
:1071DC00054690B999B10B48FFF70DFD20600948A1
:1071EC00FFF7FFFC60600848FFF705FDA06006484C
:1071FC00FFF7F7FCE060284638BD012038BD0120C0
:10720C0038BD00BF6000002070000020FEF716BFE4
:10721C0044F24F63984219D842F22733984217D858
:10722C0041F29313984215D840F6C903984213D8EB
:10723C0040F26443984211D840F2322398420FD85E
:10724C00B0F58D7F34BF072006200AE0002008E04F
:10725C00012006E0022004E0032002E0042000E00C
:10726C000520C0007047003818BF0120704710B5CA
:10727C000446C0B90D48FCF79FF90D480D210422B6
:10728C00FEF71AFD0A480E210422FEF715FD0848E8
:10729C000F210422FEF710FD4FF480402146FCF72D
:1072AC0013F9204610BD012010BD00BF003800406E
:1072BC00000C01402DE9F74398469DF828700446D0
:1072CC00002856D14FF47A7606FB01F52A4B12F0C2
:1072DC0020097FB218BF4FF00209002FACBF8027E6
:1072EC0000279D42254B1CD801221A70244A2548A0
:1072FC00B2FBF5F55D60244DFCF75EF94FF40053DD
:10730C006B6128460D210322FEF7D6FC28460F217F
:10731C000322FEF7D1FC28460E213822FEF7CCFCC6
:10732C0025E0187001214FF48040FCF7CDF8164889
:10733C000D210B22FEF7C0FC13480E210B22FEF789
:10734C00BBFC0F210B221048FEF7B6FCB5FBF6F583
:10735C00A8B2FFF75DFFC8F38013024601930948FA
:10736C004FF482713B46CDF80090FEF778FD204635
:10737C0000E00120BDE8FE83DF2202003042002045
:10738C0090D0030000380040000C01402DE9F74F6D
:10739C000C46019300285BD1002959D0002A57D004
:1073AC00924606464EE02C4BA75D1A789846002A6A
:1073BC0037D04FF008090025284B17F0800F4FF4F9
:1073CC00004214BF1A615A6198F80400DFF88CB0BF
:1073DC00FFF71CFF4FF40053CBF8103098F8040063
:1073EC00FFF714FFDBF808306D0098F8040013F475
:1073FC00804FEDB218BF45F00105FFF707FF174BA3
:10740C004FF400525A6109F1FF3998F804005FFA01
:10741C0089F9FFF7FBFEB9F1000F10D07F00FFB226
:10742C00CAE70F4B9F810E4B1A8912F0010FFAD04D
:10743C009D89EDB20A4B1B8913F0800FFAD10AF823
:10744C00015B0136019AB3B29342ACD3002000E049
:10745C000120BDE8FE8F00BF30420020000C01402F
:10746C000038004010B5054B1A8912F0010FFAD004
:10747C009A89034CA181988190B210BD00380040CC
:10748C00003001402DE9F04F8DB09DF85C60144642
:10749C00984A06EB030B84461D469DF864000BF0DE
:1074AC00070A13780BF1070B4FEADB0B0A91BDF8B7
:1074BC0058909DF860700890CDF82CB090464BB366
:1074CC00EA18082A98F801101BDD14FA03F343EAB2
:1074DC000101C9B2D8F8043088F801100020CDF8A9
:1074EC0014C0984798F80030C3F108021441083BC7
:1074FC00ED18002388F80030E4B2EDB2DDF814C0CA
:10750C0008E011FA05F5002345EA0404E4B2D5B20B
:10751C0088F800304FF0000B50462146CDF81CB0D7
:10752C005C465A462B46CA468346C4E0FEB14BB174
:10753C00C3F108047048A642ACBF045D845DAC4046
:10754C00E4B204E0072E9ABF6B48845DFF249B19BC
:10755C00082B05DCDBB2082B07D01D46002606E005
:10756C00083B03F0FF06082301E000252E46B9F185
:10757C00000F38D0072B36D80A9800B3079880B183
:10758C000A9C04EB000E1EF8014CC5F108000441E6
:10759C00A945E4B20DD90A98DDF81CE010F80EE00C
:1075AC0002E00A9890F800E00EFA05F040EA0404B4
:1075BC00E4B2079800F1010E1FFA8EF0079003EB6E
:1075CC000900082806DCC3B2082B0AD01D464FF070
:1075DC00000908E0A9F1080999441FFA89F9082360
:1075EC0001E00025A946FFB1072B1DD863B1424825
:1075FC00C3F1080E7745ACBF10F80E00C05DA84073
:10760C0040EA0404E4B204E0072F9ABF3A48C45D90
:10761C00FF24D819082802DCC3B2002704E0083F75
:10762C00FF1807F0FF07082309EB0600C01930B953
:10763C00013B013010FA03F343EA0101C9B2D8F857
:10764C00043020460692CDF814C09847DDF814C0DB
:10765C00069ABCF1000F2CD04AB3BAF1000F26D019
:10766C000B998A4223D3531AC0B29BB20190A3B197
:10767C00CBF1080E00FA0EFE591ECDF824E01CF8D2
:10768C0001E00998CBEB0A0A1FFA8AFA40EA0E00CD
:10769C00DA4509900CF8010009D9019941FA0BF06F
:1076AC000CF80300ABF108039A441FFA8AFA013272
:1076BC0092B200210B4609EB0600C01909907FF429
:1076CC0035AF089C5B46934652469A4604F0070336
:1076DC00052B4FF0C00511D855FA04F1D8F8043039
:1076EC0089B20692CDF814C09847069AC4B2DDF858
:1076FC0014C01DE03842002052010020DDF820E0CB
:10770C00D8F80430CEF1080115FA01F10692CDF843
:10771C0014C089B209989847C4B20898D8F80430B4
:10772C0055FA00F1099889B29847DDF814C0069A09
:10773C00BCF1000F1CD0DAB10B99C1EB0B0B1FFA8B
:10774C008BF38BB1CAF1080014FA00F0591E1CF827
:10775C000150524540EA05000CF8010008D944FAE2
:10776C000AFA0CF803A003E044FA0AFA8CF800A019
:10777C00089BDC0806E00020D8F804300146984746
:10778C00013CE4B2002CF6D10DB0BDE8F08F10B581
:10779C001F48FAF7F5FF1F48FAF7F2FF1E48FAF7F1
:1077AC00EFFF01200021FBF777FE1C4B4FF0FF325F
:1077BC005A810D2104221A48FEF77EFA0E2104226A
:1077CC001748FEF779FA0F2104221548FEF774FAD0
:1077DC00032104221248FEF76FFA04210A461048CE
:1077EC00FEF76AFA00214FF48050FBF761FE00218E
:1077FC004FF48040FBF768FE01200021FBF76AFC88
:10780C000848FBF7D9FE0848BDE81040FBF7D4BE8A
:10781C004400024058000240300002405201002057
:10782C00000C0140003800400030014038B50546DE
:10783C004FF47A740DE0084B25B19B6813F4807FEC
:10784C0004D038BD9B6813F4807F04D00120FEF770
:10785C00F5FB013CEFD238BD00080140F0B5054600
:10786C008FB00C46FFF793FF8B2D25D94FF480502A
:10787C000121FBF71DFE4FF480400121FBF724FE94
:10788C0001200146FBF726FC4C480D210B22FEF78C
:10789C0013FA4A480E210B22FEF70EFA47480F2125
:1078AC000B22FEF709FA454803210B22FEF704FAD6
:1078BC00424804210B221AE0404E4FF4005333612E
:1078CC0030460D210322FEF7F7F930460E21042233
:1078DC00FEF7F2F930460F210322FEF7EDF93046A0
:1078EC0004210322FEF7E8F9354808210422FEF7AB
:1078FC00E3F9344AABB253811BB28B2B15DD28460E
:10790C00FFF786FC0227024601262F484FF48271AE
:10791C00802300970196FEF7A2FA00212B480A4615
:10792C00802300970196FEF79AFA15B90120FFF70C
:10793C007DFF274E44B9254B7F229A81224B8B2DFC
:10794C009C8136D9234B35E0012C30D18B2D2BD992
:10795C0020462146FBF7A0FD1F4B80220393089283
:10796C0000234FF440521D4803A90C920493059335
:10797C000693079309930A930B930D93FAF77EFFE3
:10798C00174B1848039303A910230593FAF776FFB6
:10799C000D4821462246FBF7F3FE0C4802212246F5
:1079AC00FBF7EEFE104B00E0104BB36003E00F4B07
:1079BC00B3600F4B73600FB0F0BD00BF000C014003
:1079CC000008014052010020003800400030014006
:1079DC0038420020717400080C380040440002400A
:1079EC000C30014030000240857B0008017A000811
:1079FC00CD7A00082DE9F84F04460D4616469A46F6
:107A0C00002754E007F007034FF0010909FA03F9C6
:107A1C005FFA89F9B9F1010F4FEAD70802D10023B7
:107A2C000AF80830DFF894B0234BBBF90A004FF486
:107A3C0000525A6108B9FFF7F9FE15F808304FF4F7
:107A4C00004219EA030F1C4BBBF80A0014BF1A6161
:107A5C005A6116F80830102219EA030F164B14BF9E
:107A6C001A615A6130B100B24FF4FA7393FBF0F023
:107A7C00FEF7E4FA104B4FF400521A619B6813F4B2
:107A8C00804F05D01AF8083049EA03090AF8089023
:107A9C00BBF80A0038B14FF4FA7300B293FBF0F064
:107AAC00FEF7CCFA02E00120FFF7C0FE0137A74237
:107ABC00A8D3BDE8F88F00BF000C01405201002094
:107ACC002DE9F843294D0023B5F80C9004460F46D8
