:020000040800F2
:10200000183F002025C400082DC4000831C4000872
:1020100035C4000839C400083DC4000800000000B1
:1020200000000000000000000000000041C40008A3
:1020300045C400080000000049C400084DC4000861
:1020400051C4000855C4000859C400085DC4000804
:1020500061C4000865C40008078900080B890008EE
:102060000F89000813890008178900087DC400083B
:1020700081C4000885C4000889C400088DC4000814
:1020800091C4000895C4000899C40008EBA9000891
:10209000E9A90008A5C40008A9C400081B89000814
:1020A000B1C40008B5C40008B9C40008BDC4000824
:1020B000C1C40008C5C40008C9C40008CDC40008D4
:1020C000D1C40008D5C40008D9C40008DDC4000884
:1020D000E1C40008A79F0008E9C40008EDC4000897
:1020E0003F890008F5C40008EDA9000800E000BF22
:1020F00008B14FF0FF307047FAE7F9E7F8E7F7E784
:10210000F6E700B10020704710B91AB110607047AF
:102110004FF0FF30704780B502F0A3FB03F0C0FC26
:102120000021DFF85C0C06F0C0FEDFF8580C06F06A
:1021300027FF0021022006F0F1FEDFF87C0C06F0FC
:1021400027FE00F017F8DFF8740C06F019FF0021E5
:10215000042006F0E3FEDFF8680C06F019FEDFF855
:10216000640C06F015FE00F005F8DFF88C0C002179
:10217000017001BD0021012006F0C4BEF0B5A1B080
:10218000FFF7C9FFDFF8700C0178002940F0D2801A
:1021900001210170FFF7EFFF0121042006F0BEFED0
:1021A000DFF81C7C384606F0F3FD06A806F067FE53
:1021B000DFF8480C00F0C6F84FF480740C944FF42C
:1021C00080650D9500200E904FF4005600F0B4F895
:1021D0000121384606F060FEDFF8E87B384606F05D
:1021E000D7FD06A806F04BFEDFF8780C00F0AAF841
:1021F0000C940D9500200E9000F09EF801213846B9
:1022000006F04AFE03A807F05DF80420ADF80C00C4
:102210000020ADF80E000220ADF810000020ADF84F
:102220001200ADF81400DFF8946B03A9304607F0F4
:1022300003F85021304607F074F80421304607F0C7
:102240008DF88021304607F08DF80122294630466E
:1022500007F056F801224FF40071304607F050F8AD
:10226000002030850120B0820146304607F033F867
:102270000121084606F046FE0121022006F04EFE2E
:10228000DFF8346B304606F083FD15A806F0F7FD45
:10229000DFF81C0C15901020179000201890199052
:1022A00080201A901B941C9500201D904FF48050A4
:1022B0001E9000201F9015A9304606F0C5FD012193
:1022C000304606F0E9FD00A806F0E9FF02F0BEFF87
:1022D00006F028FF11A806F0EBFF6020ADF84400DF
:1022E0000120ADF846000020ADF84A000220ADF80C
:1022F0004C0011A9204606F059FF0821204607F09E
:102300001FF80121204607F011F802F074FA06F0D8
:10231000F7FF0121204606F0DEFF0121204606F0EE
:10232000E4FF0121DFF8580A06F0BFFD02F0BAFF12
:1023300003F0B6FB21B0F0BD0F96109006A9384609
:1023400006F082BD06900020089009900A90802037
:102350000B90704770B504464FF48035DFF8D80B0A
:102360000068000505D4012003F0C4FB6D1EF5D103
:102370003DE00A2003F0BAFBDFF8C02B506C4008A8
:102380004000506402209064DFF8B43B1365506C49
:1023900040F001005064DFF8AC0B4FF6FF71018391
:1023A00001210180DFF8A01B4FF47F450D8000253F
:1023B0004D8001250580D56E6D086D00D56602251E
:1023C00015679167D56E45F00105D5661568AD02B4
:1023D000FCD54FF400155560DFF87C5C1668B60438
:1023E00001D46D1EFAD14FF4005656600DB901208C
:1023F00070BD5A88DFF8AC3C93FBF2F32380930066
:102400009C1103EB5464E4112546A3EBC414402C47
:10241000A8BF6D1C4D840D2353439C1103EB5464E2
:10242000E4112546A3EBC414402CA8BF6D1C0D84F9
:1024300002EBC2039C1103EB5463DB118B8412216A
:1024400051438A1101EB5261C911018301210180BD
:10245000002070BD70B5DFF8F01A0C46DFF8DC2AFA
:10246000536C5B085B00536408239364DFF8D03A35
:102470001365556C45F00105556408254E8C24F80C
:10248000026B6D1EFAD12580DFF8B84A0125258040
:10249000D46E64086400D466092414679167D46E0E
:1024A00044F00104D4661468A402FCD54FF400146F
:1024B0005460DFF8A44B1568AD0401D4641EFAD152
:1024C0004FF4005555600CB9012070BD002204780E
:1024D0006400047033F812508E8CB5423CBF44F057
:1024E00001040470521C082AF1DB002070BD2DE9A4
:1024F000FA4E8146934619F00F0100F08580C8001E
:102500005FEA094248BF401CDFF8305A6A6C520843
:1025100052006A6480B2A864DFF8240A2865686CF7
:1025200040F0010068640026DFF81C7A4FF40014C4
:10253000DFF810AA1EE022F8020BACF101004FFAFE
:1025400080FCBCF1000F1DD5002022F8020B0120F9
:10255000AAF80000E86E40084000E86609202867F5
:10256000AF67E86E40F00100E86628688002FCD59D
:102570006C60761CB6B28E420DD20098335C3A463F
:102580004FF0070C012000FA0CFE13EA0E0F14BFE7
:10259000788C388CCFE7C9F3811615E020213846B6
:1025A00009F006FA0120AAF80000E86E4008400091
:1025B000E86610202867AF67E86E40F00100E86623
:1025C00028688002FCD56C603046461E80B2002828
:1025D000E4D1DFF8840A2968890401D4401EFAD1C5
:1025E0004FF40051696078B1C9F3032420000DD085
:1025F000002600E0761CB6B2A64207D206EB0B001E
:10260000FFF728FF0028F5D0012000E00020BDE8FA
:10261000F68E80B518B9FFF7B1FD002002BD05E0C8
:1026200080B518B9FFF777FD002002BD4FF0FF30ED
:1026300002BD80B520B90846FFF78CFE10B14CE111
:102640004FF0FF3002BD70B516461A46049D059C3A
:10265000069B60B90BB14FF4004046EA052343EAFC
:1026600084131843FFF743FF18B105F0E7B84FF0A4
:10267000FF3070BD2DE9F041804600F0DCF82E619E
:1026800000F0DEF84FF40060686100F0CFF800F071
:10269000D6F82E6100F0D4F800F0D1F82E6100F0E9
:1026A000CFF800F0CCF82E6100F0CAF800F0C7F8BF
:1026B0002E6100F0C5F8382200F0B9F800F0BFF83C
:1026C0002E6100F0BDF800F0BBF8A8680005F5D554
:1026D000002708247F0800F0B2F82E6100F0B0F85F
:1026E000A868000548BF47F08007641EF2D188F84B
:1026F000007038E02DE9F041044600F09CF82E61AE
:1027000000F09EF800F08FF800F099F82E6100F0CC
:1027100097F86F6100F093F82E6100F091F800F0E7
:102720008EF82E6100F08CF800F089F82E6100F030
:1027300087F84FF00808E0074CBF2F616F6100F089
:102740007EF82E6100F07CF86408B8F10108F2D13F
:10275000382200F06CF800F072F82E6100F070F88A
:10276000A8680005F7D500F06AF82E6100F068F857
:102770000020BDE8F08138B570B900F01AF84FF4C8
:102780000055656103220D2100F017F8012003F0C8
:10279000ADF92561002032BD00F09CBC10B538B900
:1027A00000F007F804220D2100F007F8002010BD0A
:1027B0001DE2DFF80C4C38220B21204603F070B9E3
:1027C0002DE9F0410C46002829D100F075F82E6162
:1027D00000F036F800F027F800F031F82E6100F034
:1027E0002FF800F02CF82E6100F02AF84FF00808BE
:1027F000E0074CBF2F616F6100F021F82E6100F0FF
:102800001FF86408B8F10108F2D1382200F00FF87F
:1028100000F015F82E6100F013F8002001E04FF0F1
:10282000FF30BDE8F0814FF400672F6103220B21D8
:10283000284603F035B9DFF8885B4FF400566E6127
:10284000002003F057B92DE9F041884600282FD128
:1028500000F032F82E61FFF7F3FF4FF400676F616D
:10286000FFF7E4FFFFF7EBFF2E61FFF7E9FF2F61B2
:10287000FFF7E5FF2E61FFF7E3FF3822FFF7D7FFF1
:10288000002708247F08FFF7DAFF2E61FFF7D8FF43
:10289000A868000548BF47F08007641EF2D188F899
:1028A0000070FFF7CCFF2E61FFF7CAFF002001E0A8
:1028B0004FF0FF30BDE8F081DFF8045B4FF40056C5
:1028C0006E6103F017B980B520B90846FFF7D2FE54
:1028D00010B102E04FF0FF3002BD6FF0050002BD05
:1028E00080B520B90878FFF705FF10B1F5E74FF084
:1028F000FF3002BD80B538B9012006F0D1FF1020AD
:1029000006F0CEFF002002BD90E680B538B9012068
:1029100007F00EF8102007F00BF8002002BD85E646
:1029200030B585B00C46154628BB02A9012007F03A
:1029300086F860B900A9102007F081F838B900982E
:102940000399884222BF02980199884202D26FF00F
:10295000060012E045F004022146012007F08AF843
:102960002A4600984FF47A71B0FBF1F1102007F07D
:1029700081F8002001E04FF0FF3005B030BDF0B528
:1029800050BB069C0025DFF8E06BDFF8807C0598E3
:1029900011E0A6F804C0B6F800C05FEA0C6CFAD4E7
:1029A00018B1B7F800C000F801CB1AB1B6F804C0EE
:1029B00002F801CB6D1CB5EBD40F0BD21BB113F891
:1029C00001CBA7F800C0002914BF11F801CB4FF0CC
:1029D000000CDEE70020F0BD02F01AB8FFF788BB5C
:1029E000FFF786BB2DE9F0470C4615461E4600282A
:1029F00040F0C98005EA0400DFF8141C084203BF58
:102A000024EA0500DFF80C1C08426FF0060040F0D5
:102A1000BC80DFF8AC89089FE00721D5E80715D511
:102A20004FF40069F00709D5072200F0B0F8F80765
:102A300054BFC8F81490C8F8109011E0F8074CBFC4
:102A4000C8F81090C8F81490032207E0F00704D5E6
:102A5000F80754BF2822382200E0042200F097F83B
:102A60004FF48069A00714D5A80707D5B8074CBF55
:102A7000C8F81090C8F81490032207E0B00704D5F6
:102A8000B80754BF2822382200E004220A2100F0AF
:102A90007FF8A00516D5A80509D5B80547BF402081
:102AA000C8F810004020C8F81400032207E0B00561
:102AB00004D5B80554BF2822382200E0042206219C
:102AC00000F066F8E0050FD5E80509D5F80547BF21
:102AD0001020C8F810001020C8F81400032200E0ED
:102AE0000422042100F054F8DFF84CAC600717D53D
:102AF000680709D54FF4007079074CBFCAF8100079
:102B0000CAF81400032207E0700704D5780754BF01
:102B10002822382200E004220921504602F0C0FF9A
:102B2000200715D5280707D538074CBFCAF81090DD
:102B3000CAF81490032207E0300704D5380754BFC1
:102B40002822382200E004220A21504602F0A8FF81
:102B5000E00603D503220D2100F01AF8600603D524
:102B600003220F2100F014F8A00603D504220E2141
:102B700000F00EF8200604D504220821504602F089
:102B80008FFF002001E04FF0FF30BDE8F0870B2100
:102B9000404602F085BF10B548BBDFF8A00BCA075E
:102BA00044BF4FF4006202604FF480628B0748BF5D
:102BB00002608B0544BF40230360CB0544BF102354
:102BC0000360DFF87C3B4C0744BF4FF400741C608B
:102BD0000C0748BF1A60CA0644BF4FF40052026097
:102BE000490644BF4FF400410160002010BD4FF082
:102BF000FF3010BD10B548BBDFF8480BCA0744BF13
:102C00004FF4006202604FF480628B0748BF02609D
:102C10008B0544BF40230360CB0544BF10230360F2
:102C2000DFF8243B4C0744BF4FF400741C600C07D2
:102C300048BF1A60CA0644BF4FF4005202604906FA
:102C400044BF4FF400410160002010BDCFE770B5D4
:102C5000002848D1880A800201D007F017BADFF8AF
:102C6000E40ACB0705D54FF40063D4074CBF0360DB
:102C700043604FF480638C0703D594074CBF036017
:102C800043608C0505D5940547BF4024046040246B
:102C90004460CC0505D5D40547BF1024046010243A
:102CA0004460DFF8A44A4D0705D54FF40075560778
:102CB0004CBF256065600D0703D515074CBF236029
:102CC0006360CB0605D54FF40053D4064CBF0360B8
:102CD0004360490605D54FF4004152064CBF0160E0
:102CE0004160002070BD01F0B2B830B5002844D179
:102CF000DFF82009014201D001F0C6BE00238E4852
:102D0000CC0703D50468240548BF01238C0704D5EC
:102D10000468640548BF43F002038C0504D50468C9
:102D2000640648BF43F40073CC0504D50468640608
:102D300048BF43F48073DFF81C4D4D0704D5256868
:102D4000AD0548BF43F004030D0704D525686D05A4
:102D500048BF43F008038D0604D50068400448BF0F
:102D600043F02003080604D52068C00548BF43F09F
:102D7000800302B11360002030BD01F088BE000066
:102D800000081A000004004038B50024DFF87C5C1D
:102D900069480068C0060CD4A88802F0ABFEA88879
:102DA0000419A4B268880028F2D08442F0D302202B
:102DB00032BD002032BD00006C000240000800401F
:102DC000440002400800024038B50024DFF83C5CB3
:102DD0005948006840040CD4A88802F08BFEA888EB
:102DE0000419A4B268880028F2D08442F0D30220EB
:102DF00032BD002032BD0000103B002038080040EA
:102E0000F8B500244C4D4FF48046AE60DFF8FC7BF3
:102E1000388802F06FFE1020A860FFF7B5FFA8B950
:102E2000FFF7D2FFA0B12868400411D400F01CF8CD
:102E30001020E86000F018F81020A860FFF7A4FF49
:102E400020B92046441CC0B20A28ECD30220F2BDAF
:102E500000F00AF8EE6000F007F81020E8600020AB
:102E6000F2BD00003408004038884004000C02F035
:102E700041BE70B5DFF8CC4810206060DFF88C5B95
:102E8000288802F037FE4FF480466660288802F0FA
:102E900031FE10202060FFF777FF30B9288800F05E
:102EA00056F82660FFF790FF00B1022070BD0000C9
:102EB000340400402DE9F041804608244FF4804559
:102EC000DFF8486B1C4F00F0C9F85FEA086004D5D2
:102ED000BD60FFF779FF08B119E0FD604FEA4808CF
:102EE00000F0BCF81020B860FFF74EFF78B900F092
:102EF0002DF81020F860641EE5D100F0AFF8BD6039
:102F000000F0ACF81020B860FFF73EFF08B10220D7
:102F100010E000F01BF8F0883968490405D510214D
:102F2000F96002F0E7FD012004E01021F96002F0F1
:102F3000E1FD0020BDE8F081080C014000000240E6
:102F4000EC36002014040040CC3A002030884004C5
:102F5000000C02F0CFBD2DE9F74F044698460D9DB9
:102F600000202880FFF74CFF28B944F00100FFF74C
:102F7000A1FF002866D0FFF77CFF032060E0FFF789
:102F8000E5FF1020E060F08802F0B4FD2888401CC6
:102F900028802888BDF80810884244D29DF8301057
:102FA00039B1BDF80810491E884208BF4FF0010B27
:102FB00001D04FF0000B0199471800203870C4F879
:102FC00008904FF0080AFFF7C1FF1020A060FFF73C
:102FD000DBFE20BBFFF7BAFF38784000387021686D
:102FE000490444BF40F0010038701020E060BAF19D
:102FF000010AE8D100F032F8BBF1000F05D0C4F8A7
:103000000890FFF7E1FE50B901E0C4F80C9000F021
:1030100025F81020A060FFF7B7FE0028AFD0FFF71B
:1030200028FF02200CE0B8F1010F08D1FFF721FFC3
:103030002888BDF80810884238BF012000D300203E
:10304000BDE8FE8F0C988DF83000DFF8404C4FF44F
:103050008049DFF8B8699CE7FFFF0F00308802F075
:1030600049BD80B5DFF8DC06102101604FF48041D6
:103070000160FFF789FE10B9FFF7A6FE00B101203D
:1030800002BD10B560B9CE4C07220421204602F0E3
:1030900007FD07220E21204602F002FD002010BD90
:1030A000A5E5000000A08C0038B598B9FFF7D9FF5E
:1030B00000280CBF00246FF00504C14D0422042138
:1030C000284602F0EDFC04220E21284602F0E8FC1E
:1030D000204632BD4FF0FF3032BD80B5B0B94FF45D
:1030E0007A7090FBF1F080B2810801D100B101212A
:1030F000DFF81809018003B9012343800121818091
:10310000C280FFF7AEFF18B1FFF7E7BB4FF0FF300B
:1031100002BD30B585B00400084611461A46089B2A
:10312000099D0BD103B1012302AC01940095C0B2FB
:10313000FFF711FF20B16FF0050001E04FF0FF3005
:1031400005B030BD2DE9F0410C4615469846069F66
:1031500018BB07B101270026FFF752FE20B904F083
:10316000FE00FFF7A7FE20B1FFF783FE6FF005001A
:1031700015E0B6B2464507D2705DFFF79BFE022808
:10318000F2D0761C0128F4D1012F08BFFFF771FEA1
:10319000B0B24045EAD3002001E04FF0FF30BDE877
:1031A000F08138B5DFF89C454FF40061002814BF6A
:1031B000216061604FF400552560002002F09AFC08
:1031C00065600020BDE8324002F094BC70B5DFF8C5
:1031D000BC4A4FF40055A5602668002002F08AFC26
:1031E000E560002002F086FCF00A00F0010070BDEE
:1031F0002DE9F04104460F4616461D46DFF8C08112
:1032000000F03AF80120FFF7CCFF2046FFF7C9FF96
:103210002846FFF7C6FF082407F08000FFF7C1FF2C
:103220007F00641EF8D17DB1282200F026F8002628
:103230000A24FFF7CBFF40EA4606641EF9D100F0EE
:103240001BF80127069C0CE0082406F08000FFF71D
:10325000A8FF7600641EF8D10327F3E72046FFF7A6
:10326000A0FF3846471EC0B20028F7D1282200F040
:1032700004F8F0B2BDE8F08103220B21404602F0D1
:103280000FBC38B54E4C00F0D2F816250020FFF7E1
:1032900088FF6D1EFAD128220B212046BDE8384058
:1032A00002F0FEBB30B583B00C46002864D101A902
:1032B00001F046FC30B944B9BDF8040040F2097190
:1032C000884202D36FF005003EBD3D4D00F057F837
:1032D000012C0FD101F0DEFB00F074F84FF4806494
:1032E0002C6103220A21284602F0DAFB00F06AF87A
:1032F0006C6122E00CBB282200F042F800F065F877
:1033000000F060F800224FF48071012005F024FDE8
:1033100001220821012005F081FC052002F0E6FBD6
:103320004FF47A7402E00A2002F0E4FBA86800057A
:1033300001D5641EF7D100F022F84FF40050686107
:1033400003220D21284602F0ABFB00200090002351
:10335000024650210120FFF74BFFFFF792FFFFF7D6
:1033600090FFFFF78EFFFFF78CFFFFF78AFF282201
:1033700000F006F800203EBD4FF0FF303EBD0322B6
:103380000B21284602F08CBB10B5B8B90C4C0129B2
:103390000DD14FF48060206100F014F838220A212A
:1033A00000F047F800F05EF801F08CFB04E019B97A
:1033B00000F00BF800F056F8002010BD17E40000F4
:1033C000000C0140012002F091BB042208210120E1
:1033D00005F024BC38B548BBDFF8E84C282200F0E3
:1033E00027F8FFF7F3FE6425A068000505D40A203E
:1033F00002F080FB6D1EF7D109E042F21075A06863
:10340000000506D50A2002F075FB6D1EF7D107F006
:1034100006BD4FF40060606100F009F82824002028
:10342000FFF7BFFE641EFAD1002032BD52E6032230
:103430000B21204602F034BB002808BF00F001B881
:10344000C0E310B560B900F0EAFD38220A21FFF7A9
:10345000F0FF2822FFF7ECFF00F004F8002010BD79
:10346000FFF7C5BB04220D21204602F019BB10B5A1
:1034700082B00C4611461A46B8B9200702D5FFF7AC
:1034800000FF10E004F0010004F00403A40700931F
:1034900006D50123FFF7ACFE049921B1087002E0C4
:1034A0000023FFF7A5FE002016BD4FF0FF3016BD2C
:1034B00070B504464FF47A75DFF8986504E0C005EE
:1034C0000AD4012002F016FB2846451E20B1002C2C
:1034D0003068F4D1C005F4D470BD2DE9F84F04462E
:1034E0000D46DFF8E46BF089ADF800000020F081B4
:1034F0004FF00808DFF894774FF400494FF4005A72
:10350000F0894FEA500BA6F80EB0C7F80CA0B069CE
:1035100008B9FFF7CDFFE0074CBFC7F80890C7F820
:103520000C90E80747BF1020B8601020F860B06921
:1035300008B100F071F8C7F808A03868400444BF2B
:103540004BF08000F081B06910B100F065F802E046
:103550000120FFF7ADFF64086D08B8F10108CFD175
:10356000BDF80000BDE8F28F083800402DE9F74FA4
:103570001C460027DFF814574FF4004B4FF4005857
:10358000DFF844AB03E00120FFF792FF7F1C0098B7
:10359000874238D2FE08012007F0070188405FFA11
:1035A00080F9B9F1010F04BF00203055C5F80C8037
:1035B000DAF8180008B9FFF77BFF0198305C49463C
:1035C000084214BFC5F808B0C5F80CB00298305CCA
:1035D000084219BF1020A8601020E860DAF818002F
:1035E00008B100F019F8C5F808802868400403D530
:1035F000305D49EA00003055DAF818000028C2D0E2
:1036000000F00AF8C2E7BDE8F78F00000C30014077
:10361000A0FCFFFF50FCFFFF4FF4FA7191FBF0F0AC
:1036200080B202F067BA2DE9F84F80460D46164683
:103630001F464FEA4830040C4FF400592CD0DFF8F5
:103640009C0C84640765416C41F001014164446352
:10365000C663016B41F0010101630021DFF8802C9A
:1036600013889B07FCD54B5D9380491C89B2A1420E
:10367000F6DB01688904FCD5C0F80490016889056F
:10368000FCD54FF400714160416C49084900416428
:10369000016B49084900016318F0070F39D0DFF8C2
:1036A00074AC0021504605F059FCDFF818BACBF88D
:1036B0001090032200F02FF804220E2100F02CF8C5
:1036C00003220F2100F028F80322042100F024F83F
:1036D000E319A219611908F00700FFF747FF01215C
:1036E000504605F03BFC0B2200F015F80B220E2192
:1036F00000F012F80B220F2100F00EF80B2203212C
:1037000000F00AF80B2204215846BDE8F84F02F0F9
:10371000C7B9BDE8F18F0D21584602F0C1B910B507
:10372000DFF8BC3B1A88D207FCD59A88DFF8604CDA
:1037300021809880104610BD00080140140C014003
:1037400014080140100C0140100801402DE9F34F0E
:1037500085B015469B464FF00009CA461098ADF853
:103760004000BDF84080119C0BEB040080B200F0DB
:1037700007010091C01D0004C00C0490DFF84869E7
:10378000707BB8B1317B00EB0B02092A0CDB05FA28
:1037900000F001433173C9B200F03BF9707BC0F116
:1037A0000801CD40083802E001FA0BF10D438344D3
:1037B00086F80D90E9B200275FFA8BFB5A46009815
:1037C000C0F108008DF80C00129D53E0A2F1080032
:1037D00045190822E4B2BDF840000019EDB22818DE
:1037E00004D10120521E90400143C9B2384672698B
:1037F0009047C0B200220021059B002B3AD0BAF1BD
:10380000010FA2BFB8F1010F049B9A452EDB029B6A
:10381000012B17DBDDF814C003EB0C0ECDF804E030
:103820001EF801CC9DF90CE000FA0EFE4EEA0C0CDD
:10383000DDF804E00EF801CCDDF800C0A8EB0C08C0
:103840001FFA88F82BB1012B10DBDDF800C0C4454E
:103850000CDADDF800C020FA0CF0DDF814C003F833
:103860000C000098404408381FFA80F80AF1010063
:103870001FFA80FA0498AAEB000080B20290BDF80B
:10388000403003EB040EAE44BEF1010FC0F27D8068
:10389000F4B1012A0DDBC2F1080E7445A3BFC2F1D9
:1038A000000EB6449EF80800A05D00FA0BF0C7B207
:1038B00003E0082C2CBFFF27A75D1019092847DA61
:1038C000A218D2B200249346BBF1080F08BFA3464A
:1038D000BDF8400068B3082A2BDADDF818C0BCF147
:1038E000000F17D0B9F1010F09DBCC441CF8010C13
:1038F000CBF1080E40FA0EF0C7B29B4506DA0698E7
:1039000019F8000000FA0BF03843C7B209F10100C2
:103910001FFA80F9D318092B1EDABDF840309A1827
:10392000D2B20023ADF840309346BBF1080F08BF78
:103930009B46002D28D0082A26DA012A19DBC2F17D
:1039400008039D42A3BF53429B191B7AAB5D0AE05B
:10395000A2F1080004193CE7BDF84000083A10182D
:10396000ADF8400035E703FA0BF343EA0700C7B2AE
:1039700003E0082D2CBFFF27AF5D50190928BFF6C3
:1039800025AFAA18D2B2002524E7C020139C40FA24
:1039900004F504F00701062904D200F039F85FFAB3
:1039A00080F90AE0C4F1080100FA01F189B200F0DF
:1039B00030F85FFA80F900F02BF80598C8B1B8F13B
:1039C000010F16DB029B012B0EDB1818019010F87B
:1039D000010C9DF90C1009FA01F10843019901F855
:1039E000010C0098404504DA009849FA00F0059966
:1039F0005854E40802E0002100F00BF82046441E71
:103A0000E4B20028F7D103F0E4B80000F23A002055
:103A1000A9B200207269104780B5DFF8400C05F0AC
:103A2000B7F9DFF83C0C05F0B3F9DFF8380C05F016
:103A3000AFF90021012005F065FADFF88C064FF0A0
:103A4000FF318161012005F073FF102005F070FF48
:103A5000002002BD080801402DE9F0438FB0074661
:103A60000E4602A9012005F0EAFF60B900A9102066
:103A700005F0E5FF38B903980099814222BF01990A
:103A8000029A8A4202D26FF006008FE0814228BF7C
:103A900008464FF47A75B0FBF5F9FFF7BDFF4F45C7
:103AA00006D3012005F0FCFE102005F0F9FE17E01A
:103AB000DFF8104600F0ADFA00F07BF804220E218A
:103AC00000F077F803220F2100F073F8032204219D
:103AD00000F06FF804220821DFF8540C01F0E0FF39
:103AE000DFF8E445A7614F450CD387223946012012
:103AF00005F0C0FF83220098B0FBF5F1102005F01F
:103B0000B9FF03E017B90120FFF7D2FCDFF8045832
:103B1000DFF8208CDFF8200C4EB97F21A98100212D
:103B2000A8F80C104F453FD3DFF8100C3CE0DFF84D
:103B3000101C012E37D14F4533D30121012005F050
:103B4000E1F9DFF8000C0490002005900690079042
:103B500008908020099000200A900B900C904FF460
:103B600040500D9000200E9004A9DFF8F00A05F0F7
:103B70006BF9DFF81C0804901020069004A9DFF808
:103B8000E40A05F061F901221146404605F0F0F91A
:103B900001220221284605F0EBF9DFF8D00C206164
:103BA00003E0216101E02161606100200FB0BDE808
:103BB000F083204601F074BFFEF79ABA002808BFD0
:103BC000FFF72ABF4FF0FF3070470A4600B92CE1DB
:103BD000F8E758B9DFF8980C0A7802604A78426032
:103BE0004A8882608988C16000207047EAE710B582
:103BF000144640B9FFF7E9FF18B92146FFF7E9FF7E
:103C000018B101F0BABE4FF0FF3010BD38B50C4608
:103C1000154688B905E014F8011B00205269904749
:103C2000083DDFF8A424EDB2082DF4D215B1557388
:103C300020781073002032BDFFF74CBA30B589B040
:103C40000C46C0B9202100A807F0B2FE00E0641BBA
:103C50007CB1B4F5807F8CBF4FF48075E5B22A4605
:103C600000A90020FFF7D2FF0028F0D06FF0050078
:103C700003E0002001E04FF0FF3009B030BD20B973
:103C8000DFF8EC0B026105F064B89BE7080C01401B
:103C90002DE9F04B86B08846164699460E9CF11DDC
:103CA0004903002855D1DFF8C87BB8610D0C052DFC
:103CB0002CBF04222A46414607F1180007F08CFE6B
:103CC0000020ADF81000D7F814C05FEA0C000ED049
:103CD00004A802900195CDF8008007F11C03BA6991
:103CE00000210020E04738BBBDF8100008B9C346EA
:103CF00001E007F11C0BCDF80C90F868C0B20290FF
:103D0000B868C0B201900096042303225946584671
:103D1000FFF71CFDDCB10020ADF810003C6920006D
:103D200010D004A802900195CDF800B04346BA69BE
:103D300000210020A04710B16FF005000BE0BDF896
:103D4000100020B92A465946404607F045FE00209B
:103D500001E04FF0FF3006B0BDE8F08B2DE9F047F1
:103D600086B08946174698460E9CF91DCD1000284E
:103D70004BD1ADF81000DFF8F86AD6F814C05FEA4E
:103D80000C000FD004A80290ADB20195CDF80090C0
:103D900006F11C03B26901210020E04740BBBDF8D9
:103DA000100008B9CA4601E006F11C0ACDF80C80E3
:103DB0007068C0B202903068C0B2019000970323CF
:103DC000012251465046FFF7C1FCE4B10020ADF896
:103DD00010003469200011D004A80290ADB2019502
:103DE000CDF800A04B46B26901210020A04710B1D8
:103DF0006FF005000BE0BDF8100020B9AAB25146E3
:103E0000484607F0E9FD002001E04FF0FF3006B022
:103E1000BDE8F087FEF76CB9002808BFFFF7FCBDCE
:103E2000D0E60A4600B900E0CCE60021104613E6D1
:103E300070B50C46154650B9002603E0315D00F020
:103E400017F8761CB6B2AE42F8D3002070BD4FF022
:103E5000FF3070BD38B50C46154620B1FFF73AB9B2
:103E6000294600F005F82046441E0028F8D132BD4E
:103E70000020954A526910472DE9FC470D460A99E2
:103E8000DDF83080D21DD610002838D115B96FF07A
:103E9000080036E00BB146F4004600240027DFF8A6
:103EA0002892300408D52878D9F8142090470127A3
:103EB00001247004400C461E761E06E00021904747
:103EC0007F1C0CB10AF8010C641C31464E1EBFB2B7
:103ED000785DA4B204EB050AD9F8142089B2002950
:103EE000ECD19DF82C1090470CB10AF8010C41461A
:103EF0000020D9F8142090476055002001E04FF0D1
:103F0000FF30BDE8F687FEF7F3B8002808BFFFF7DB
:103F100083BD57E60A4608B9012187E752E610B586
:103F2000029C68B9002918BF002A00D013B96FF0AD
:103F3000080010BD2046644C2469A047002010BD35
:103F4000FEF755BE2DE9F041044688460026DFF80D
:103F5000E87C4FF4005503E0015500F044F8761C6E
:103F6000B6EBC80F0FD2FD6000F03DF8BD60F00861
:103F7000015D012206F007039A403B681B054CBF18
:103F800011439143E8E7BDE8F0812DE9F84380460D
:103F90008946DFF8286703220B21304601F080FDB7
:103FA00000254FF400674FF4005405E000F01BF8C3
:103FB000346100F018F86D1CB5EBC90F0CD27461B8
:103FC000E80810F80800012105F0070291400842B6
:103FD00014BF37617761E9E738220B213046BDE82D
:103FE000F84301F05DBD002001F084BD10B570B94B
:103FF00000F015F8032200F02AF800F00AF800F0AB
:1040000027F84FF40060206103220B2123E0FEF724
:10401000EEBD4FF40050206103220D217047DFF800
:104020009C464FF480606061704710B568B900F03D
:1040300049FDDFF88846382200F009F838220B21C4
:1040400000F006F804220D2105E0FEF7D0BD0A219C
:10405000204601F025BDFFF7FBFF002010BD70B525
:1040600082B058BB00A900F06BFD28B9BDF8000074
:1040700040F20971884202D36FF0050076BD00F06E
:1040800009FD0A2001F032FD07244FF48065DFF8B6
:104090002C663561012001F02DFD7561012001F0D4
:1040A00029FD641EF5D13561642001F01FFD382221
:1040B0000B21304601F0F4FC002076BD4FF0FF30BC
:1040C00076BD0000000C0140BC12002080B50B46FC
:1040D000114620B91846FFF735FF002002BDFEF754
:1040E000A5BA80B50B46114620B91846FFF74DFF1B
:1040F000002002BDFEF79ABAF0B583B016461F46FF
:10410000099C20BB8DF80110089D2046441E80B2FA
:10411000C0B101210DF10100FFF737FF012100A817
:10412000FFF710FF37B19DF800003840B84201D1C9
:10413000002008E0002DE8D09DF800002842E4D1DE
:10414000012000E0022006B130700020FEBD00F02A
:1041500008BEF8B50446DFF86455102068610322F4
:10416000042100F046F84FF400466E6103220F214F
:1041700000F03FF804220E2100F03BF84FF4005706
:104180006F6103220D2100F034F8322001F0AEFC03
:10419000102028612E612F614FF4006604B34FF4A4
:1041A00080646C6103220A2100F023F82E6103224F
:1041B00000F01EF800F060F92C6100F05DF96E610E
:1041C00000F05AF96C6100F057F92C6100F054F9D5
:1041D000382200F00DF80120BDE8F24001F086BC65
:1041E0002E6138220B212846BDE8F84001F058BC6A
:1041F0000B21284601F054BCDFF8E41C4FF40042C8
:1042000008B10A6070474A6070472DE9F84F82464E
:104210000D46DFF8246A706800F4004B4FF0000888
:104220000120691E00FA01F94FF400544FF40047D1
:1042300013E0012D04BF1020B060F4604FEA4A0A79
:104240004FEA480800F0A7F8B46000F0A4F830681E
:10425000400448BF48F001086D1EEDB22DB11AEAC6
:10426000090F14BFB760F760E3E7BBF1000F14BF9D
:10427000B760F760F46000F08EF8B46000F08BF87F
:104280001020F060F46000F086F8B46000F083F86D
:104290004046BDE8F28FF8B504460D46DFF8406CA5
:1042A000102030604FF40057776000F074F83760EA
:1042B00000F071F810207060776000F06CF83760E3
:1042C00000F069F8776000F066F8376000F063F896
:1042D00029462046BDE8F44097E700000000024070
:1042E00008380040FDF704BF10B588B9DFF8F44B7B
:1042F0004FF480602060322001F0FCFB1020206031
:104300004FF4004020604FF400502060002010BDAA
:10431000FEF76DBC0030014080B520B90846FFF7BC
:1043200018FF002002BDFEF781B92DE9F0410C46CF
:10433000154648BB14B96FF0080027E094F80080D8
:10434000DFF89C7B102038604FF4005600F022F814
:104350003E6000F020F800F01DF83E6000F01BF811
:104360001020786000F016F83E6000F014F800F0BD
:1043700011F83E6000F00FF808214046FFF745FFB6
:1043800005B12070002001E04FF0FF30BDE8F08162
:104390000C3001407E60002001F0ACBB38B50C460B
:1043A00011461D4648B90CB900F0FABE2068FFF767
:1043B00072FF05B12060002032BDFEF78BBE80B5D4
:1043C00020B90846FFF718FF002002BDFEF72EB9FE
:1043D00010B50C4670B907E00120FFF70DFFFFF79D
:1043E000DAFF0020FFF708FF2046441E80B20028B5
:1043F000F2D110BDFEF7FBBB70B5002839D1DFF854
:10440000EC4C4FF4004020601020206007264FF451
:1044100000552560FFF7BFFF6560FFF7BCFF761E04
:10442000F7D110206060FFF7B6FF2560FFF7B3FFFC
:1044300010202060FFF7AFFF00F01CF81020206074
:10444000052001F057FB00F015F81020206007262A
:104450002560FFF7A0FF6560FFF79DFF761EF7D18F
:1044600010206060FFF797FF2560FFF794FF0020A2
:1044700070BDECE410206060012001F037BB2DE935
:10448000F84F894616469B460B9A0C9928BB4FF469
:10449000004801B14046104300F400410129ACBF7F
:1044A0000125002547047F0CDFF840AC0A9C04E09E
:1044B0001DB1CAF80480CAF800803846471E80B291
:1044C00040B121464846FFF7E6FE30405845EFD15F
:1044D000002004E06FF0050001E04FF0FF30BDE880
:1044E000F28FDFF8FC094FF48061DFF8742C12784A
:1044F0000AB10160704741607047DFF8E4094FF48A
:104500008061DFF85C2C12780AB14160704701606D
:10451000704770B5DFF8C8494FF40041002814BF58
:1045200021606160DFF8385C688801F0E3FA4FF4DD
:104530000056266068884004000C01F0DBFA6660D3
:104540006888BDE8704001F0D5BA2DE9F84F0546FE
:10455000894614461F46DDF83080FFF7C2FF012070
:10456000FFF7D7FF00264FF0010A08E0A9F101008C
:10457000801B0AFA00F02840FFF7CBFF761CB6B28A
:104580004E45F3D3002507E0781E401B0AFA00F0E1
:104590002040FFF7BEFF6D1CADB2BD42F4D3002535
:1045A0000A9F0B9C07E0601E401B0AFA00F038408F
:1045B000FFF7AFFF6D1CADB2A542F4D30020009011
:1045C0000027DFF874564FF400590D9CDFF8906B0C
:1045D0001BE0708801F08EFAC5F8089070884004DE
:1045E000000C01F087FAC5F80C90D5F800B070887F
:1045F00001F080FA5FEA4B4006D50098611EC91BA6
:104600000AFA01F1084300907F1CBFB2A742E0D331
:10461000E01D811000EB5170C21000A9404607F068
:10462000DBF9FFF76AFFBDE8F18FFDF761BD10B55B
:1046300090B9224C04220A2100F016F804220D2120
:1046400000F012F804220F2100F00EF804220E21CF
:1046500000F00AF8002010BDFEF7C9BA440002407D
:104660005800024030000240204601F019BA70B5EF
:104670000C4600BBDFF8E85A2A70FFF73EFF0F4EEA
:1046800003220A2100F01CF84FF40050706103224D
:104690000D2100F015F803220F2100F011F804227B
:1046A0000E2100F00DF804B90124FA2090FBF4F07B
:1046B0006880002070BDFFF7CABB0000000C0140FD
:1046C000304601F0EDB9F0B585B00400084611465A
:1046D0001A460A9B0B9F0C9E0D9C0E9D07D10395BD
:1046E000029401960097FFF730FF002001E04FF0A1
:1046F000FF3005B0F0BD38B50C461546A8B9FFF738
:10470000F0FE02E0204601F0F5F9DFF8580A0068F3
:10471000400403D46D1EADB2002DF3D1FFF7EDFEC2
:104720000DB1002032BD06F07ABBFEF7D3BC00000D
:104730000008014000380040DB3400081F37000843
:104740006D3500080C38004000B97047F0B58FB0E7
:1047500001284CD1012104F0D5FB0121042004F0F3
:10476000DDFBDFF8147C384604F012FB03A804F0EC
:1047700086FB00F003FE04F067FB0121384604F0DD
:104780008BFBDFF8E47C384604F002FB03A804F05E
:1047900076FB00F0DEFD04F057FB0121384604F003
:1047A0007BFB00A804F08EFD00F004FE04F044FD45
:1047B0005021204604F0B5FD0421204604F0CEFD32
:1047C0008021204604F0CEFD01222946204604F037
:1047D00097FD00F010F804F093FD002020850120E3
:1047E000A0820121204604F076FD002001E04FF078
:1047F000FF300FB0F0BD01224FF40071204670472A
:1048000080B510B1012814D029E000F02AF801F099
:1048100047F90021DFF8C00B04F047FBDFF8BC0BC1
:1048200004F0AEFB0021022004F078FBDFF8B00BAF
:104830000DE0DFF8380C04F0A3FB0021042004F0A5
:104840006DFBDFF8340B04F0A3FADFF81C0C04F066
:104850009FFA0021012004F055FB002002BDFDF766
:10486000E5BE04220421DFF8BC0C7047273600089F
:104870009039002010B510B101281AD01BE0DFF8E4
:10488000F00B90FBF1F04FF6FF7180B2884208BF49
:104890004FF6FE70DFF8DC2B10801088DFF8043D47
:1048A000188301241C8052881AB1504390FBF1F008
:1048B0001884002010BDFEF79AB930B593B00C46AD
:1048C00010B1012863D064E00121012004F01AFB3B
:1048D0000121022004F022FBDFF8045B284604F0EB
:1048E00057FA07A804F0CBFA00F0B9FC284604F008
:1048F000ABFA0121284604F0CFFA00A804F0CFFC5F
:104900000020009001908DF80800DFF8D05A00A92F
:10491000284604F007FC03A804F0CAFC00F0B8FC29
:10492000A0074CBF00200220ADF8140003A92846C0
:1049300004F03CFC0821284604F002FD0121284631
:1049400004F0F4FC01224FF40071284604F0D8FC76
:104950000121284604F0BFFC0121284604F0C5FCD3
:10496000DFF8C05BDFF8700AE10706D5012104F02B
:104970009CFA102028610B2205E0012104F095FA31
:10498000102028610F220421284601F089F8002018
:1049900001E04FF0FF3013B030BDF0B5C0BB40F2C6
:1049A0000120814200D212B96FF00600F0BDDFF89D
:1049B000C44A02EB410030F8020C60800025DFF8A9
:1049C000E80B0BE032F8156027887F1C7E434FF61A
:1049D000FF7796FBF7F620F815606D1C8D42F1DB32
:1049E000DFF8C02B01231380DFF8C02BD36E5B08E8
:1049F0005B00D36611679067D06E40F00100D0660F
:104A000010688002FCD54FF4001050600020F0BD0B
:104A10004FF0FF30F0BD30B51346012833D140F2DE
:104A20000110814200D203B92EE0DFF8802B506CD8
:104A30004008400050649164DFF86C0B1065546CC2
:104A400044F0010454649468640864009460D16084
:104A500000EB41045461946844F0010494604FF009
:104A6000FF341568AD0401D4641EFAD14FF400552B
:104A7000556034B18A000146184606F0ADFF0020AB
:104A800030BD04F0ABBE02E06FF0060030BD4FF069
:104A9000FF3030BD10B5DFF82C4C6088B0F5E16F09
:104AA0000CD2207850B900224FF48071012004F01C
:104AB00053F901220821012004F0B0F82078401CAD
:104AC000207010BDDFF8FC0B017841B1491E017068
:104AD000C9B221B904220821012004F09FB870470F
:104AE00038B558BBDFF8DC4B207800B960706078CF
:104AF00040F6E442914214D118B901206070FFF7EA
:104B0000C9FF0A2000F0F2FF0A250020A080002043
:104B100000F020F8A0880228F9D36D1EF5D10020FE
:104B200032BD49B90028ECD0002060702078002800
:104B3000E7D0FFF7C7FFF9E706F071B9FEF7CABA89
:104B400030B919B1DFF87C0B40880880002070472D
:104B5000FFF738B810B500283DD1DFF8684BA088C2
:104B600010B1012804D02CE0082103F028F925E039
:104B70000821002003F033F958BB082103F03BF96A
:104B800041F6C8114843000B6080608840F209710B
:104B9000884203D300224FF4004102E04FF4004268
:104BA0001146002004F0D8F86088B0F5E16F05D216
:104BB00001E0FFF787FF20780028FAD1A088401C89
:104BC00006E0401CA08080B2B0F5804F01D30020E9
:104BD000A080002010BDFEF70AB80178DFF83C2D58
:104BE0009278002A19BF01F08002490001F0010209
:104BF00049080170DFF8F4044FF400410AB1016084
:104C00007047416070470278DFF8103D9B7823B110
:104C1000520031B142F0010203E0520809B142F002
:104C2000800202707047DFF83C15096849044CBFE8
:104C300001210021E7E70000080C0140F1B582B036
:104C400000208DF800000824A54D4FF40056DFF831
:104C5000CC7C7878C0075CBF02A8FFF7BEFF00F0ED
:104C600025F8787881074CBF6E602E60C0075CBF66
:104C700000A8FFF7D8FF00F019F87878C00744BF04
:104C800002A8FFF7AAFF00F011F8787881074CBF5F
:104C90002E606E60C00744BF00A8FFF7C4FF00F09D
:104CA00005F8641ED5D19DF80000FEBD7868C0B23D
:104CB00000F020BFFDF71CBA002804BF012004F05B
:104CC00037BEFEF77FBFF0B583B006460C461546EB
:104CD00000A9012004F0B3FE08B105F0B5BC002E18
:104CE0003FD1DFF8386C4FF47A770198B0FBF7F0DA
:104CF00084422AD20120307004F01AFEDFF8200C22
:104D000007FB04F1B0FBF1F07060E80980F00100EE
:104D1000B07005F003007070DFF808484FF40051E0
:104D200080074CBF2161616103220D21204600F004
:104D3000B7FE03220F21204600F0B2FE04220E210E
:104D4000204600F0ADFE0020FEBD002030700120A6
:104D500004F0A6FD45F004022146012004F08AFE7D
:104D6000FEBD4FF0FF30FEBD002804BF012004F05F
:104D700017BFFEF727BF002804BF012004F012BFB1
:104D8000FEF720BFF8B50C4615461E4668BBDFF897
:104D90008C0B007820B38CB93DB90027B74222D2E2
:104DA000FF20FFF74BFF7F1CF8E70027B7421AD21E
:104DB000FF20FFF743FF78557F1CF7E73DB9002739
:104DC000B74210D2385DFFF739FF7F1CF8E70027A4
:104DD000B74208D2385DFFF731FF78557F1CF7E7FF
:104DE000012004F023FF0020F2BD4FF0FF30F2BDA0
:104DF000F0B500220025DB4B4FF4005409E000F031
:104E00001BF8A5EBC60E0CFA0EFC27EA0C0737546C
:104E10006D1C8D420FDA9C60DC601E687606EED554
:104E200000F00AF8A5EBC60E0CFA0EFC4CEA0707D8
:104E30003754521CECE726E0AE1005EB5676F61020
:104E4000375C4FF0010C7047F0B5002200254FF49D
:104E50000053234C4FF0010C04E0102666602360E1
:104E600063606D1C8D420EDAAE1005EB5676F610BF
:104E7000375CA5EBC6060CFA06F63742EDD01026D5
:104E80002660521CEBE702F00100F0BD2DE9F0476F
:104E900004468A4600260027DFF8C8824FF40059EE
:104EA000DFF8F85B07E000F01FF891430155A88890
:104EB00000F020FE7F1C574510DAC8F80890A8883B
:104EC00000F018FEC8F80C90D8F800004006EAD5AB
:104ED00000F00AF811430155761CE8E73AE00000BB
:104EE000100C0140140C0140B81007EB5070C010BA
:104EF000015D0122A7EBC0039A4070472DE9F047FE
:104F000080468946002600274FF40054774DDFF88D
:104F10008CAB0CE010206860BAF8040000F0EAFDE9
:104F20002C60BAF8040000F0E5FD6C607F1C4F4572
:104F300010DAB81007EB5070C01010F808100122FA
:104F4000A7EBC00002FA00F00142E3D01020286075
:104F5000761CE1E706F00100BDE8F0872DE9F1419C
:104F600085B00C4600F004080026DFF8307BDFF83F
:104F7000405600F084F8082105A8FA6890470422FA
:104F800000F080F820688DF800002068000A8DF895
:104F900001002068000C8DF802002068000E8DF8DA
:104FA0000300BA685FEA080015D0032102A8904701
:104FB000202100A8BA6890478DF80400012103A8B9
:104FC000BA68904700F055F8397803A8BA68904756
:104FD00000F055F812E03878C11C89B202A8904759
:104FE00000F04DF8202100A8FA6890478DF80400E1
:104FF000012101A8FA68904700F03BF800200490D6
:10500000082104A8FA689047042200F03BF85FEA00
:1050100008000ED09DF800009DF8011040EA012024
:105020009DF8021040EA01409DF8031040EA01603B
:105030002060029800F007000290012804D00228A6
:1050400009D004280ED00FE09DF80400C00754BF1B
:10505000012011200AE0761C7888B6B2864288D3F7
:10506000422003E0842001E040F0200006B0BDE8CB
:10507000F0819DF8041040188DF80400704710204E
:10508000286103220421284600F00ABDFDF730B84C
:1050900010B518B900F023F8042229E0FDF7A7BDE8
:1050A00010B5D0B9DFF8F4090F2938BF017042807C
:1050B00023B9DFF8A01BDFF8A02B05E0DFF89C1B6D
:1050C000DFF8E82C5B1E8380C260816000F007F887
:1050D0004FF40050206103220AE0FDF788BDDFF89D
:1050E000D04404220421204600F0DABC100C014018
:1050F0000D21204600F0D4FC002010BD70B50C46F8
:105100001546C8B914B96FF0080070BDDFF8146413
:105110001020306103220421304600F0C1FC2946F2
:105120002046DFF87829D2689047042204213046CF
:1051300000F0B6FC002070BDFEF789BE80B50B46BE
:10514000114650B913B96FF0080002BD1846DFF8D8
:105150004C2992689047002002BDFDF767BA000015
:10516000083B0020080C014038B50D4611461C468E
:10517000A0B901B914E0A80800EB550000EBD50078
:1051800000EB151045EA401000F0BF0040F0810030
:10519000FFF7E4FE04B12070002032BDFDF79ABF96
:1051A0006FF0080032BDDFF8080C017801B17047DC
:1051B00010B592B00121017000F0F9F80121022030
:1051C00003F0ACFEDFF8EC4B204603F0E1FD07A84E
:1051D00003F055FE00F043F8204603F035FE0121B0
:1051E000204603F059FE00A804F059F800F02EF80C
:1051F00003F098FF03A804F05BF800F049F80220E0
:10520000ADF8140003A9204603F0D0FF0821204682
:1052100004F096F80121204604F088F801224FF4AA
:105220008071204604F06CF80121204604F053F808
:105230000121204604F059F80121674803F035FEAA
:1052400000F030F800F02CFC12B010BD00200090EF
:1052500001908DF80800614C00A920467047DFF8E6
:105260003C0D07901020099000200A900B908020A0
:105270000C904FF480700D904FF480600E900020E1
:105280000F904FF4805010900020119007A97047A4
:105290006020ADF80C000120ADF80E000020ADF844
:1052A00012007047C248102101610F22042170478B
:1052B000F0B58FB0DFF8EC0B0021C186012100F0C2
:1052C00076F80121042003F029FE2B4F384603F025
:1052D0005FFD03A803F0D3FD00F050F803F0B4FD28
:1052E0000121384603F0D8FD5F4F384603F050FDEA
:1052F00003A803F0C4FD00F02CF803F0A5FD012184
:10530000384603F0C9FD00A803F0DCFF00F052F8B6
:1053100003F092FF5021204604F003F804212046B8
:1053200004F01CF88021204604F01CF801222946D4
:10533000204603F0E5FFFFF75EFA03F0E1FF0020EF
:1053400020850120A0820146204603F0C4FF0FB053
:10535000F0BDDFF84C0C03900020059006900790FC
:105360008020089009940A9500200B900C960D90CF
:1053700003A938467047000044000240DFF8380DAA
:1053800003900020059006900790802008904FF42D
:10539000807409944FF480650A9500200B904FF4B7
:1053A00000560C960D9003A9384670470021012045
:1053B00003F0A8BD0420ADF800000020ADF8020005
:1053C0000220ADF804000020ADF80600ADF808009A
:1053D000264C00A92046704700081A00000400402F
:1053E0006C00024070B5714C606C40084000606415
:1053F0000A20A064DFF8AC0A2065606C40F0010070
:105400006064484D00F03CF84FF47A7000F072FB95
:10541000042600F031F84FF4FA7000F06BFB00F056
:105420002FF84FF4FA7000F065FB761EF1D10426D8
:1054300000F022F8FA2000F05DFB00F021F8FA20DD
:1054400000F058FB761EF3D100F016F8DFF86C0C74
:105450002168890401D4401EFAD14FF400516160E3
:10546000401E8041C00F70BD08000240000800408F
:10547000401901000C3B00203822062128460FE38A
:105480004020686103220621284609E330B54821FF
:1054900091FBF0F2114643085043C0F148008342AB
:1054A000B8BF491C4148426C520852004264022273
:1054B0008264DFF8F0290265436C43F00103436422
:1054C000384B1C8B89B2CD016D1C1D8301251D80BD
:1054D000C9011183002151831D80016B49084900D6
:1054E00001630221416302F11801C163016B41F0C4
:1054F0000101016301688905FCD54FF40071416029
:10550000DFF8B81B0568AD0401D4491EFAD14FF489
:10551000005545601C830120188011B15088D08649
:10552000002030BD000C014030B5DFF87839DC8E4A
:105530006CB9482494FBF0F4A5B24443C4F1480488
:10554000B4EB500FA4BF6D1CADB2EC01A4B204FBD0
:1055500001F0811100EB5161C9110D46A0EBC111A1
:105560004029A8BF6D1C1D8604FB02F0811100EBD1
:105570005161C9110A46A0EBC1114029A8BF521CB4
:105580005A86188E598E08189886DFF87C1C80B2CF
:1055900000EBD0020A8301220A804008988600208E
:1055A00030BD000014040040EC3200200000024036
:1055B000000C01402DE9F047DFF8E83803F1180846
:1055C00001F10309B3F830A0DFF840EC00E0521E0F
:1055D000DEF844506D086D00CEF84450CEF8489087
:1055E000CEF85030DEF8445045F00105CEF8445076
:1055F00028F802AB00244E1E00E06E1E75B2002D8E
:105600000AD440FA05F7FF0743BF5F8E28F8027BF4
:10561000641C28F802ABF0E7E50746BF5D8E28F86A
:10562000025B28F802AB002528F8025BDFF8D85BA4
:1056300001262E80DEF830506D086D00CEF8305017
:10564000CEF8349003F11805CEF83C50DEF8305017
:1056500045F00105CEF83050DEF80050AD05FBD521
:105660004FF40075CEF80450DFF8504ADEF80050D1
:10567000AD0401D4641EF9D14FF40055CEF80450A6
:10568000DEF844506D086D00CEF844500A25CEF87F
:1056900048509D1CCEF85050DEF8445045F00105AE
:1056A000CEF8445044B19D8E03EB4106B688B54216
:1056B00004D292B2002A8AD1012000E00020BDE885
:1056C000F0870000FA3A00202DE9F04782B00D0083
:1056D000164618BF002E35D00027044602E04C4481
:1056E0004F44BFB2AF422FDAE81BFF28CCBF4FF0C8
:1056F000FF095FFA80F900F0BCF80220FFF75AFFBB
:1057000000BB002208214846FFF754FFD0B900F043
:10571000C9F8B8B900F0C0F8A0B900F0B8F888B975
:105720004FF0000A01E008F1010A5FFA8AF8C84563
:10573000D5DA0022082108EB0700805DFFF73AFF69
:105740000028F0D0012000E00020BDE8F6872DE918
:10575000F84F5FEA0108914618BFB9F1000F00F059
:10576000838000260446DFF83C77DFF8A05A02E089
:1057700054445644B6B2464578DAA8EB0600FF28F2
:10578000CCBF4FF0FF0A5FFA80FA00F072F80120F8
:10579000FFF710FF002867D1002208215046FFF7CD
:1057A00009FF002860D100F07DF800285CD100F0EE
:1057B00073F8002858D100F06AF8002854D13CE072
:1057C000002307EB430CBCF804C08C450BD292F8C5
:1057D00000C04FF0010EC3F1070B0EFA0BFE4EEAAC
:1057E0000C0C82F800C05B1C082BEAD3696C4908DA
:1057F000490069640B21A9642F65696C41F00101BE
:105800006964798E398300217983DFF8FC190122DC
:105810000A80296B4908490029630221696307F15D
:105820001801E963296B41F00101296329688905A1
:10583000FCD54FF400716960401CC0B2504597DA46
:10584000811901EB0902DFF874382968890401D451
:105850005B1EFAD14FF400516960002111701BB139
:10586000B98E7B888B42ABD3012000E00020BDE8DD
:10587000F28F8DF80040200A8DF80100200C8DF881
:105880000200200E8DF80300002203217047002241
:1058900008210098C0B28DE600220821009800047B
:1058A000000E87E60022082100980002000E81E623
:1058B000FCF71EBC80B570BBFEF7D3FF00F0F0F81C
:1058C0000021DFF8080D03F0F0FADFF8040D03F013
:1058D00057FB0021022003F021FBDFF8D80403F07E
:1058E00057FAFFF763FDDFF8EC0C03F049FB0021EA
:1058F000042003F013FBDFF8E00C03F049FADFF8B3
:10590000DC0C03F045FAFFF751FDDFF8A404002199
:105910000170084602BDFCF789BE0000003B002074
:1059200090D0030070B50C4615461E4648B9FFF7E7
:105930003AFC324629462046FFF7F6FD18B101F041
:105940007DBF4FF0FF3070BD80B530B9002203211C
:10595000FFF730FE18B1FCF7C0BF4FF0FF3002BDBB
:1059600010B5144630B90A4621461846FFF7ACFE7A
:1059700010B102E04FF0FF3010BD6FF0050010BD18
:1059800010B5144630B90A4621461846FFF7DFFE27
:1059900010B1F2E74FF0FF3010BD80B528B90846CE
:1059A000FFF774FD18B1FCF798BF4FF0FF3002BD50
:1059B00080B530B9FFF77CFCFFF714FD18B1FCF798
:1059C0008CBF4FF0FF3002BD002804BFDFF8040D8C
:1059D00002F082B8FEF7F6B8002804BFDFF8F40C36
:1059E00002F095B8FEF7EEB810B560B9DFF8E80C34
:1059F00000F190042271C0F8901063716430BDE82A
:105A0000104002F095B8FDF7F2B800B583B058B970
:105A100011B96FF008000EBD0091019200A9DFF8E6
:105A2000BC0C02F040F80EBD4FF0FF300EBD134627
:105A300048B911B96FF0080070470A461946DFF8F7
:105A4000A00C05F082BFFEF7BDB838B50C46D0B942
:105A50000CB9FFF7A5BBDFF8805C05F1680005F025
:105A60003EFF206005F1680005F02FFF606005F142
:105A70007C0005F034FFA06005F17C0005F025FFF7
:105A8000E060002032BDFDF725BB002804BFDFF831
:105A9000440C02F05EB8FEF795B80000D812002062
:105AA00070B502F00F030F24082908D28D00066894
:105AB000AC4026EA0404AB402343036009E0A1F1B3
:105AC0000805AD004668AC4026EA0404AB40234319
:105AD0004360930607D5012303FA01F1D20601D5ED
:105AE000016170BD416170BD02F082BA4004400C9A
:105AF00002F0A8BA4004400C02F09DBA02F0CABA03
:105B000002F04CBB02F0ABBA02F0ACBA02F0B2BA8F
:105B10000020704700207047002070472DE9F041B9
:105B200082B0044688460020DFF8E85C06E0296C75
:105B30004A1C2A6406220A54F01980B2404580F2B9
:105B40008680025D02F0F80102F0070203195E7818
:105B50009B7846EA0326C71CBFB2D5F824E00EF5B1
:105B6000FC73286B07EB040C51B108292ED01029C7
:105B700017D0282930D0382959D0482960D0D6E705
:105B800052B90020DEF8F8118847286C411C2964BE
:105B9000296B00224254CFE7296C4A1C2A64012257
:105BA000C9E792B99CF80420385D9CF8011040EADE
:105BB00001209CF8021040EA01409CF8031040EAE2
:105BC000016100209B689847DFE7E5E71AB90020EC
:105BD00059688847D9E7DFE702BB00AA395D002092
:105BE0001B6A9847286C411C2964296B0022425487
:105BF000286C009A4254286C296B40180099090AB5
:105C00004170286C296B40180099090C8170286C30
:105C1000296B40180099090EC17004E0296C4A1CD8
:105C20002A6401220A54286C001D286484E732B9D2
:105C30009CF80120395D0020DB689847A5E7ABE7B9
:105C400022B9395D00201A6990479EE7A4E7BDE8B4
:105C5000F3810000F14D0008494E00088D4E000808
:105C60002DE9F24F84B004460020DFF8A87B08E05D
:105C7000386C411C3964396B052242540AEB06002A
:105C800080B2BDF81010884280F28E80015D01F074
:105C9000F80201F0070801194B78897843EA012AD4
:105CA000C61CB6B232B1082A14D0282A16D0582AF7
:105CB00059D0DDE74046FCF7ACFC0028386C04D036
:105CC000411C3964396B0122D7E7411C3964396BB7
:105CD0000022D2E74046FCF7A3FCEEE7396C481CF3
:105CE00038648DB20020ADF80C000BE0BDF80C005C
:105CF00009F00F010818ADF80C00386C0BF00F011B
:105D000008183864BDF80C00504529DA8019015D87
:105D10000019407841EA0029BDF80C00801CADF85C
:105D20000C004FEA292B4FEAD93002904FEAA91014
:105D300000F0030001900BF00F000090386C396BFD
:105D4000431809F00F02BDF80C00801901194046F4
:105D5000FCF779FC0028C9D0386B012129548DE764
:105D6000386B0021FAE703A94046FCF762FC0028E3
:105D7000386C05D0411C3964396B012242540FE064
:105D8000411C3964396B00224254386CBDF80C2038
:105D90004254386C396B4018BDF80C10090A417038
:105DA000386C801C386469E770E30000FD4E000821
:105DB000113B0020300002402DE9F843044688469C
:105DC0000021DFF8507A06E0386C421C3A64052264
:105DD0004254711989B2414562DA085D00F0F80257
:105DE00000F007000B195E789B7846EA0326C91C71
:105DF0008DB2396B42B1082A15D0282A16D0302A24
:105E000039D0382A33D0DFE7FCF7B5FC0028386CEE
:105E100004D0411C3964396B0122D9E7411C396433
:105E2000396B0022D4E7FCF7B9FCEFE72A5D02F0FA
:105E3000070912064A4615D53B6C5918491CFCF750
:105E400042FD0028386C04D0411C3964396B0122B2
:105E500003E0411C3964396B00224254386C4844D9
:105E60003864B6E72919491CFCF73AFDCEE7295DED
:105E7000FCF7A6FCCAE73A6C5118491CFCF7E3FC96
:105E80000028386C04D0411C3964396B012203E0CE
:105E9000411C3964396B00224254386C401CDFE7E6
:105EA000BDE8F1836C3A00202DE9F04383B004464D
:105EB00088460021DFF85C5907E0286C421C2A6400
:105EC0000622425409EB070189B2414563DA085DB5
:105ED00000F0F80200F007000B195E789B7846EAA4
:105EE0000329CF1CBFB2296B07EB040C32B1082A7F
:105EF00025D0102A11D0282A24D0DEE7FCF7FAFC9E
:105F00000028286C04D0411C2964296B0122D8E7A1
:105F1000411C2964296B0022D3E73A5D9CF80110EB
:105F20009CF8023041EA03219CF8033041EA034126
:105F30009CF8043041EA0361FCF7F2FCE0E7FCF76F
:105F4000E4FCDDE73A5D9CF8013042EA0322D31D10
:105F50009E1003EB56735B031E0C2B6C03F1010EBA
:105F6000019206EB0E0252180092F2191219931CBC
:105F70000EEB01020CF10201FCF701FD0028286C78
:105F8000296B14BF012200224254286C7100491C65
:105F90000818286496E7BDE8F78300003404004041
:105FA000340800402DE9F04383B0044688460021C0
:105FB000DFF8605807E0286C411C296406218155F0
:105FC00009EB070189B2414573DA085D00F0F80278
:105FD00000F007000B195E789B7846EA0329CF1C76
:105FE000BFB22E6B07EB040C42B1082A34D0102A42
:105FF00011D0302A33D0382A52D0DCE7FCF7EEFC3F
:106000000028286C03D0411C29640121D7E7411CDA
:1060100029640021D3E700F053F89CF804309CF881
:10602000056043EA06239CF806609CF807C046EA30
:106030000C26019600960A40FCF7D4FC0028286C38
:1060400005D0411C2964296B01224254B8E7411C48
:106050002964296B0022F8E7FCF7C2FCD0E701AA0B
:10606000395D9CF8013041EA0321FCF73EFE00282F
:10607000286C296B02D0012242540DE000224254C8
:10608000286C296B401801994170286C296B4018C5
:1060900001990904090E8170286CC01C28648FE7DF
:1060A00000F00EF80192FCF7D2FD0028286CC8D150
:1060B000CDE7BDE8F783000038080040FFFF0F0080
:1060C000395D9CF8012041EA02219CF802209CF8ED
:1060D000033042EA032270472DE9F04383B00446BF
:1060E0008846002106E0306C411C31640621815451
:1060F000E91989B2414580F28580085D00F0F80316
:1061000000F007000A195678927846EA0225CF1C5B
:10611000BFB2DFF80067326B07EB040C43B1082B0A
:106120002DD0102B14D0302B2FD0382B58D0DAE7AD
:10613000FCF7A7FF0028306C05D0411C3164316B9F
:1061400001224254D4E7411C3164316B0022F8E74C
:106150009CF804109CF8052041EA02239CF80210E8
:106160009CF8032041EA0222395D9CF801C041EA13
:106170000C21FCF7B2FF0028306CDED1E3E7FCF71E
:1061800093FF0028306CD8D1DDE7395D9CF80130F1
:106190009CF802E043EA0E299CF803309CF804C006
:1061A000BCF1000F18BF4FF0010CCDF804C00093F4
:1061B0004B46D6F840C06244521CFCF7AAFF0028A8
:1061C000306C04D0411C3164316B012203E0411C6E
:1061D0003164316B00224254306C4844306487E7AC
:1061E0009CF8031000919CF801109CF8022041EAF1
:1061F00002230CF10402395DFCF7A4FF0028306C87
:106200009BD1A0E7BDE8F7831404004000000240E2
:106210002DE9F24F82B006460027DFF8F84506E088
:10622000216C4A1C226406220A545744BFB2BDF8AE
:10623000080087423DDAB85D00F0F80100F0070978
:10624000B8194278807842EA002AFF1CBFB2206B5E
:1062500051B1082919D028291ED0302956D0382903
:106260005CD0402962D0DBE74846FDF7E5F800281E
:10627000206C05D0411C2164216B01224254D4E7DB
:10628000411C2164216B0022F8E74846FDF7D9F84C
:106290000028206CEED1F3E703219AFBF1F808EB1C
:1062A0004801BAEB010106D0216C4A1C2264042289
:1062B0000A54BDE8F78F1FFA88F80025AB4602E0C4
:1062C0006D1C0BF1010B226BC34516DA0BEB4B0077
:1062D000C0198119236CADB2EB189A18521C0092A8
:1062E0008B784A78815D4846FDF7C1F80028E7D0F1
:1062F000206C216B0122425402E0206C0021815469
:10630000206CAAB2511C081820648EE7B95D48467B
:10631000FCF7C8FF0028206CACD1B1E7B95D484656
:10632000FDF732F80028206CA4D1A9E74846FDF714
:1063300051F80028206C9DD1A2E72DE9F34F83B0DE
:106340000020DFF8D06408E0306C411C3164316B10
:106350000622425408EB050080B2BDF810108842B6
:1063600080F294800399415C01F0F80201F0070B80
:10637000039941184B78897843EA0128C51CADB2CE
:106380000398281842B1082A38D0102A14D0282A95
:1063900038D0382A71D0D7E75846FDF70DFC0028D1
:1063A000306C04D0411C3164316B0122D1E7411CB7
:1063B0003164316B0022CCE70399695C427841EA91
:1063C0000221827841EA0241C27841EA02610279FF
:1063D0008DF8042042798DF805208279C37942EA4C
:1063E0000322ADF80620027A407A42EA0020ADF896
:1063F000080001AA5846FDF7FAFBD0E75846FDF71A
:10640000DDFBCCE7316C481C30648CB24FF00009E6
:106410000DE0306C5246F91C336B00F0E1F8306C43
:106420005044306409EB0A00C01C1FFA80F9C145D2
:1064300020DA09EB050003994718405C797840EAB7
:1064400001204204520CD11D09044FEAD14A000434
:1064500006D500F01EF8FDF71BFC0028D9D005E09A
:1064600000F017F8FDF77AFC0028D2D0306B01213C
:1064700021546FE7306B0021FAE70399695C4A1CED
:1064800092B2411C5846FDF7C1FB88E705B0BDE854
:10649000F08F01200090BB78F91C584670472DE919
:1064A000F04784B0044688460021DFF8345B07E0FB
:1064B000286C411C29640621815509EB070189B22A
:1064C000414580F28180085D00F0F80200F007008D
:1064D0000B195E789B7846EA0329CF1CBFB22E6B5E
:1064E000391952B1082A27D0102A13D0282A29D0C6
:1064F000382A59D0402A5FD0DAE7FDF78BFC002814
:10650000286C03D0411C29640121D5E7411C296472
:106510000021D1E700F0EBF8FDF783FC0028286CA0
:1065200005D0411C2964296B01224254C5E7411C56
:106530002964296B0022F8E7FDF76EFC0028286C1F
:10654000EFD1F4E700F0CEF8D30B5604760CF21935
:106550009A18121903EB070C0CEB040A92F803C00B
:10656000CDF808C09278019289780091F20092B239
:106570000AF10201FDF780FC0028286C05D0411CBF
:106580002964296B012242540AE0411C29642B6BC7
:106590000021C154286C32460AF1020100F020F8B3
:1065A000286C3018286488E75FFA89F2FDF740FC10
:1065B0000028286CB5D1BAE700F054FCFDF74AFC7E
:1065C0000028286CADD1B2E7BDE8FF8700081A00AB
:1065D000000400400008004044000240080002405F
:1065E000C01805F0F9B92DE9F04782B00446884695
:1065F0000021DFF8EC5907E0286C411C29640621D2
:10660000815509EB070189B2414561DA085D00F067
:10661000F80200F007000B195E789B7846EA032920
:10662000CF1CBFB22E6B391932B1082A23D0102AE1
:106630000FD0282A25D0DFE7FDF765FC0028286C5D
:1066400003D0411C29640121DAE7411C296400219F
:10665000D6E700F04CF8FDF75DFC0028286C05D06B
:10666000411C2964296B01224254CAE7411C296458
:10667000296B0022F8E7FDF748FC0028286CEFD1D1
:10668000F4E700F02FF88B7842EA0342CB7842EA35
:106690000362D31D4FEAD30A00922A6C9219531C4D
:1066A0000AEB07021219121D091DFDF738FC00281C
:1066B000286C04D0411C2964296B012203E0411C91
:1066C0002964296B00224254286C5044286498E7BE
:1066D000BDE8F387DC10002078100020E0100020D7
:1066E000F41000203A5D4B7842EA032270473A5D8D
:1066F0004B7842EA03228B7842EA0342C97842EAA5
:10670000016170472DE9FC41044688460021DFF80D
:10671000D07807E0386C411C3964062100F80C1071
:10672000711989B2414572DA085D00F0F80200F093
:1067300007000B195E789B7846EA0326C91C8DB2C8
:10674000D7F830C0291952B1082A18D0282A1CD0ED
:10675000302A20D0382A35D0402A3AD0DAE7FDF75F
:1067600045FC0028386C05D0411C3964396B012286
:106770004254D5E7411C3964396B0022F8E7FDF734
:1067800054FC0028386CEFD1F4E7FDF768FC0028D2
:10679000386CE9D1EEE73246396C6144491CFDF7AB
:1067A00095FC0028386C04D0411C3964396B0122F7
:1067B00003E0411C3964396B00224254386C3018B4
:1067C0003864ADE73246FDF78CFC0028386CCBD13D
:1067D000D0E7CA780B7942EA032201928A780092C4
:1067E0004B78396C61444A1C295DFDF785FC002813
:1067F000386C04D0411C3964396B012203E0411C20
:106800003964396B00224254386C401CD8E7BDE82B
:10681000F3810000000000202DE9F24F8AB0044609
:1068200000200890079083460021DFF8B47707E046
:10683000386C411C3964062141550698811989B28A
:10684000BDF82800814280F2D2800A5D02F0F80093
:1068500002F007080A195378927843EA0222069256
:10686000CE1CB6B23D6B311948B108282BD0102888
:1068700013D028282ED0402800F0A980D8E7404621
:10688000FDF7D3FE0028386C03D0411C3964012188
:10689000D2E7411C39640021CEE7325D487889781F
:1068A00040EA01214046FDF7E2FE0028386C05D0A1
:1068B000411C3964396B01224254BEE7411C3964E2
:1068C000396B0022F8E74046FDF7B1FE0028386C2E
:1068D000EED1F3E70025A94608E00AF10700811090
:1068E00000EB517009EBE0001FFA80F9386B069954
:1068F0008D4263DAA919095D8DF814106A1C92B2F1
:106900009119095D531C9BB29A19125D5B1C9BB2D5
:106910009D1915F804A05B1C9DB29DF814307BB145
:1069200000F068F893F801E04CEA0E2C93F802E0CE
:106930004CEA0E4CDB784CEA036308932B1D9DB2A6
:1069400079B100F057F893F801E04CEA0E2C93F877
:1069500002E04CEA0E4CDB784CEA036307932B1DF4
:106960009DB292B105EB060B0BEB04031BF804B0D0
:1069700093F801C04BEA0C2B93F802C04BEA0C4B86
:10698000DB784BEA036B2B1D9DB2CDF810A03B6C5E
:106990004B441818401C03900292CDF804B00091AB
:1069A000079B9DF8142008994046FDF78CFE0028AF
:1069B00093D0386C396B0122425402E0396C0022CA
:1069C0000A54386C09F101010818386435E78878F1
:1069D000CA7840EA0222305D497840EA0121404607
:1069E000FDF789FE0028386C7FF462AF66E70BB0D4
:1069F000BDE8F08F05EB060C0CEB04031CF804C09B
:106A000070472DE9F34F85B00020DFF8D45508E03A
:106A1000286C411C2964296B0622425404980019F1
:106A200080B2BDF81810884280F2D3800599415C8D
:106A300001F0F80201F00708059941184B788978B0
:106A400043EA01210491C41CA4B20598271882B11D
:106A5000082A24D0102A1CD0282A2AD0382A22D04A
:106A6000402A74D0482A00F0A780502A00F0AD8058
:106A7000CEE74046FDF736FC0028286C04D0411CC8
:106A80002964296B0122C8E7411C2964296B002273
:106A9000C3E70598215C4046FDF73EFCECE7404625
:106AA000FDF722FCE8E70598215C4046FDF787FCEE
:106AB000E2E70026296C481C28641FFA81F91CE0D3
:106AC000002003905246F019411C03A804F084FFF3
:106AD00001235A4603A94046FDF760FC30BB286CF1
:106AE000524603A92B6BC01804F076FF286C504463
:106AF000286406EB0A00401C86B20498864223DA1A
:106B000031190598085C00F07F0B0BF107021206A3
:106B10004FEAD26A0006D3D4059801EB000A01229D
:106B20000AF101014046FDF700FC20B1286B01216C
:106B300009F8001072E7286C411C2964296B9AF847
:106B400001204254B01CD7E7286B0021F0E7787889
:106B5000B97840EA0126F878397940EA0120797954
:106B600040EA0140B97940EA01600390F879397A46
:106B700040EA0120797A40EA0140B97A40EA0162AC
:106B8000F87A397B40EA0120797B40EA0140B97B01
:106B900040EA016306F400400128ACBF0120002058
:106BA00002907004400C01900598205C00900399BD
:106BB0004046FDF764FC5FE70598205C797840EA81
:106BC00001214046FDF704FC56E74046FDF714FC62
:106BD00052E707B0BDE8F08F2DE9F04182B00446DE
:106BE0008846002106E0306C421C32640622425482
:106BF000E91989B241455DDA085D00F0F80200F05C
:106C000007000B195E789B7846EA0325CF1CBFB2BC
:106C1000DFF8CC63316B42B1082A06D0102A04D0C9
:106C2000302A0DD0382A2FD0DDE70028306C03D170
:106C3000421C32640022DAE7421C32640122D6E7A9
:106C400000A9FDF77DFF0028306C08D0411C31649D
:106C5000316B012242540020ADF8000004E0411CD9
:106C60003164316B00224254306C316BBDF800202E
:106C70004254306C316B4018BDF80010090A417065
:106C8000306C801C3064B3E7395D3A19527841EAC0
:106C90000221ADF80010BDF80010FDF721FF00281B
:106CA000306C03D0411C3164316BC7E7411C316447
:106CB000316BBFE7BDE8F3812DE9F8430446884610
:106CC0000021C74F06E0386C421C3A640622425449
:106CD000711989B2414556DA085D00F0F80200F0FA
:106CE00007000B195E789B7846EA0326C91C8DB213
:106CF000396B2B1952B1082A1BD0102A15D0302A13
:106D000022D0382A18D0582A36D0DCE7FDF71CFDEF
:106D10000028386C04D0411C3964396B0122D6E755
:106D2000411C3964396B0022D1E7295DFDF7C5FDAF
:106D3000EEE7FDF765FDEBE79A1C295D5B7841EA1C
:106D40000321FDF72AFEE3E72A5D5B7842EA032987
:106D50003A6C51184A1C4946FDF75DFE0028386C14
:106D6000396B14BF012200224254386C4FEA89016A
:106D7000491C08183864ABE7295D5A7841EA0221BA
:106D8000FDF778FDC4E7BDE8F1832DE9F84304463B
:106D900088460021924D07E0286C411C2964062199
:106DA000815509EB070189B2414559DA085D00F0C8
:106DB000F80200F007000B195E789B7846EA032979
:106DC000CF1CBFB239192E6B52B1082A2FD0102A0E
:106DD00013D0282A31D0702A21D0782A23D0DBE79B
:106DE000FDF768FF0028286C03D0411C29640121AD
:106DF000D6E7411C29640021D2E700F033F8FDF703
:106E000062FF0028286C05D0411C2964296B0122EF
:106E10004254C6E7411C2964296B0022F8E7395D1A
:106E2000FDF7A2FFDEE7395DFDF7A5FFDAE7FDF725
:106E300043FF0028286CE7D1ECE74B462A6C9219F7
:106E4000521CFDF79FFF0028286C296B14BF0122FC
:106E500000224254286C09F1010108182864A0E7B7
:106E6000BDE8F1833A5D4B788E7843EA0623CE780D
:106E700043EA0643097943EA016170472DE9F04787
:106E800082B0044688460021554D07E0286C411C1D
:106E900029640621815509EB070189B2414580F239
:106EA0009D80085D00F0F80200F007000B195E7885
:106EB0009B7846EA0329CF1CBFB22E6B391952B119
:106EC000082A2ED0102A13D0282A52D0302A37D0A0
:106ED000382A2CD0DAE7FEF7D9F80028286C03D03E
:106EE000411C29640121D5E7411C29640021D1E717
:106EF000CA780B7942EA03234A78897842EA012268
:106F0000395DFEF7CDF80028286C05D0411C2964B6
:106F1000296B01224254BEE7411C2964296B0022DF
:106F2000F8E7FEF7B5F80028286CEFD1F4E7FFF793
:106F3000D9FB891CFEF7E2F80028286CE6D1EBE7C4
:106F40003A5D497842EA012A5246296C8919491C5E
:106F5000FEF7F4F80028286C296B14BF01220022E8
:106F60004254286C0AF10701C910491C081828640A
:106F700091E74A788B7842EA0322CB7842EA0342CF
:106F8000097942EA01610091296C89194B1C00AA18
:106F9000395DFEF7E9F80028286C296B02D0012240
:106FA000425418E000224254286C296B4018009982
:106FB0008170286C296B40180099090AC170286CEF
:106FC000296B40180099090C0171286C296B401835
:106FD0000099090E4171286C801DC8E7BDE8F38750
:106FE000000000202DE9F047044688460021DFF824
:106FF000685C07E0286C411C29640621815509EB77
:10700000070189B2414580F28780085D00F0F802EF
:1070100000F007000B195E789B7846EA0329CF1C25
:10702000BFB239192E6B72B1082A2CD0102A17D092
:10703000302A3ED0382A2CD0502A5AD0582A5ED036
:10704000602A63D0D6E7FEF733FC0028286C03D013
:10705000411C29640121D1E7411C29640021CDE7AD
:107060008B784A78395DFEF75DFC0028286C05D0E6
:10707000411C2964296B01224254C0E7411C296448
:10708000296B0022F8E7FEF715FC0028286CEFD1E9
:10709000F4E700F043F84B7942EA03633A5D4E7837
:1070A00042EA0622891DFEF75BFC0028286CDFD12E
:1070B000E4E73A5D4B7842EA032A00F02FF8497979
:1070C00042EA01635246296C8919491CFEF758FCB3
:1070D0000028286C04D0411C2964296B012203E09C
:1070E000411C2964296B00224254286C50442864B6
:1070F00085E7FEF729FC0028286CB9D1BEE7395D89
:10710000FEF74BFC0028286CB2D1B7E7FEF750FC25
:107110000028286CACD1B1E7BDE8F0878A78CB783D
:1071200042EA03220B7942EA034270472039C9B28E
:10713000602900D3704710B5CA10135C012401F018
:10714000070104FA01F11943115410BD2DE9F24F62
:1071500084B082469AF800007F2814BF00260326D8
:1071600006E04A1C3A6406220A547019C61CB6B2DC
:10717000BDF81000864280F22D8106EB0A0460788B
:10718000A17840EA0120C51EDFF8CC7A386B16F8EA
:107190000A10212900F09380222900F095802329EC
:1071A00000F09780252900F09980262900F09B8027
:1071B000282900F0A780292900F09A802A2900F0C8
:1071C0009C80402900F0A380412900F0A58042293D
:1071D00000F0AC80432900F0AE80452900F0B0807B
:1071E000462900F0B280472900F09B80482900F032
:1071F000B680582900F0AE80602900F0B580612982
:1072000000F0B780622900F0C8807E29396CA8D1CF
:107210004A1C3A6400220A5401A800210B460EC001
:10722000212100F007FA222100F004FA232100F0C6
:1072300001FA252100F0FEF9262100F0FBF92921B1
:1072400000F0F8F92A2100F0F5F9282100F0F2F910
:10725000402100F0EFF9472100F0ECF9412100F066
:10726000E9F9422100F0E6F9432100F0E3F9452174
:1072700000F0E0F9462100F0DDF9582100F0DAF9DC
:10728000482100F0D7F9602100F0D4F9612100F025
:10729000D1F97E2100F0CEF97F2100F0CBF9B86A58
:1072A00010B1622100F0C6F9386C0C2201A93B6BC9
:1072B000C01804F091FB386C0C30386455E7A9B263
:1072C000E01CFFF762FD50E7A9B2E01CFEF704FFE7
:1072D0004BE7A9B2E01CFEF765FE46E7A9B2E01C49
:1072E000FFF7EAFC41E7A9B2E01CFEF717FC3CE718
:1072F000A9B2E01CFFF776FE37E7A9B2E01CFEF763
:10730000D3FD32E7A9B2E01CFFF786FA2DE7A9B258
:10731000E01CFFF7C4F828E7A9B2E01CFFF70DF85E
:1073200023E7A9B2E01CFFF75EF91EE7A9B2E01C53
:10733000FEF76EFF19E7A9B2E01CFEF73DFD14E76A
:10734000A9B2E01CFFF7DEF90FE7A9B2E01CFFF7D6
:1073500095FD0AE7A9B2E01CFFF753FB05E7A9B2C8
:10736000E01CFEF77DFC00E7A9B2E01CFFF734FC4F
:10737000FBE6E078217940EA0120010404D54004CD
:10738000400CFEF7B3FB01E0FEF7B4FB386C411C88
:107390003964396B00224254E7E697F920104FEA2E
:1073A000011E0EEB0703E2784AB1022A00F09D802D
:1073B00032D3042A00F01B81C0F0D280D5E6491CEC
:1073C00087F82010C9B20229396C05D34A1C3A64E7
:1073D00003220A54FFF75AB84A1C3A6400220A549E
:1073E00097F920100A01D051D0193A6C42607219F5
:1073F000D21C02812279637942EA03224281A27976
:10740000E37942EA032282810122827307EB810041
:10741000806A3863002050E7002904D5396C4A1C83
:107420003A640522D5E702290ADB396C4A1C3A6422
:1074300003220A5497F82000401E87F82000C9E76D
:10744000997BD9B13A6C014658685EF80730FFF76E
:10745000C7F897F920000001C15939633A6CC01987
:10746000406880183864386C421C3A6400224254E8
:1074700097F82000401E87F8200076E65989B1B9B8
:107480003A6C014658685EF80730FFF7A9F897F99B
:1074900020000001C15939633A6CC0194068801856
:1074A0003864386C421C3A6402224254C2E7481ED7
:1074B0005881988940B1010404D54004400CFEF77E
:1074C00015FB01E0FEF716FB97F9200007EB001112
:1074D00001228A7307EB8000806A386300203864D9
:1074E0000889401BC61EB6B23FE60229FCDA00F04E
:1074F0009AF8A8BF0422E3794FF0000EF446E04664
:1075000011E04FEAC80908EB06045444247A04FA4F
:1075100009F4A644941944445444247A04FA09F41E
:10752000A44408F101089045EBDB4FF00009C84680
:107530000BE03C6C641E641A4444245C4FEAC80BA4
:1075400004FA0BF4A14408F101089045F1DB0EEABE
:10755000090013B160455FD107E66045FCD15BE0EF
:107560000229F9DA00F05FF8A8BF042294F807C0F6
:107570004FF0000EF046C14614E04FEAC90409EB93
:10758000060BD3449BF808B00BFA04FBDE4402EB75
:10759000060BCB44D3449BF808B00BFA04F4A04488
:1075A00009F101099145E8DB0024A1460FE00094B0
:1075B0003C6C641E641A4C4414F800B04FEAC904D1
:1075C0000BFA04F4DDF800B05C4409F101099145BF
:1075D000EDDB0EEA0400BCF1000F02D0404502D002
:1075E000C3E54045FCD0002098735881BDE50229D1
:1075F000FCDAA179E27941EA022204F108013B6C4C
:107600005B1E94F804E064794EEA04241B1B1818EE
:1076100004F01EFA002805D097F9200007EB0010AF
:1076200000218173A1E52179627941EA0221A279E1
:10763000052A704701A879E5002000F010FCDFF86A
:107640001846606AD0F81C028047606AD0F82402AD
:10765000804700F02CF800F0C1F8FCE7DFF8301CA0
:1076600001F19002837913710368C1F8903000230F
:1076700053710379012B02D0022B02D003E0602367
:1076800000E0402353714079012803D0022805D03F
:10769000082008E0507940F0030002E0507940F003
:1076A000020050710920107101F1640040E230B510
:1076B00085B0DFF8E00BDFF8E01B01600068002117
:1076C00000F4E060C0F5E060000AC0F1040001FAD7
:1076D00000F00001DFF8C41B0870DFF8C40B2021A4
:1076E0000160002001F06DFA012001F06AFA022029
:1076F00001F067FA4FF400421146002001F02CFB24
:10770000002001F05EFA01220F21002001F086FA2C
:1077100020222021012001F01FFB012001F051FA5D
:1077200001220521104601F079FA002220210120D2
:1077300001F012FB4FF480421146002001F00CFBD7
:10774000002001F03EFA01220E21002001F066FA2D
:10775000DFF8500BDFF8384B04F16801416004F1A9
:107760007C01816004F1640000F0B6F90FF264005E
:1077700003F09CFD04F0A1F8054612E002A8019078
:10778000002000902B460222A168204603F024FB33
:10779000D8B92420616800FB051002994979017469
:1077A0006D1C2078EDB28542E8D320462169096836
:1077B000884750B920690069804730B96069010085
:1077C00001D0804708B9002001E06FF0050005B046
:1077D00030BD0000000000000000000070B5DFF8C0
:1077E000B04A04F1640000F0B4F994F84E0024218A
:1077F000626801FB0025261DF068C0688047E8B973
:10780000B069010001D08047C0B994F84D0098B12B
:1078100000260EE00C20E96800FB0610006830B17D
:107820004269100003D021463046904730B9761C9B
:10783000F6B2287A8642EDDB002070BD6FF00500BD
:1078400070BD2DE9F041884690F84E10242243681F
:1078500002FB013108EB010292F91120002A05D444
:107860000C23C96803FB0211496811B96FF00500C8
:1078700048E0DFF8E453EA6B002A03D50122AA634B
:1078800000226A63061D887820B14046F168D1F86D
:10789000841088474046F168D1F8A410884707460D
:1078A000DFF8FC4C3A46686B01194046F368D3F8A0
:1078B000A83098474046F168D1F8AC10884707B324
:1078C000686B98B92078102809D20A2805D1607809
:1078D000A17800EB0120C01D07E0EF6306E08028DF
:1078E00004D26078A17800EB0120E863686B381857
:1078F0006863E86B696B814203D3E86B40F000403A
:10790000E8630020BDE8F08138B500F0BCF84568B8
:10791000FEF7EAF8002000F038F90022DFF8401BFB
:10792000002000F07CF9FF220821002000F096F9E9
:107930000821002000F029FAC74800F128010022A0
:1079400013460CC1114600EB810200EB812303F6C4
:1079500078039362491C0229F5D3241DDFF8E81C43
:107960002878E268926F904788B9A87848B168781B
:10797000E168896C884750B92878E168C96F884701
:1079800028B92878E168D1F8AC10884708B16FF0C1
:10799000050032BDF8B500F076F84668AE4DE86BEC
:1079A00000286BD500224FF48041002001F0D4F96B
:1079B000E96BDFF8EC7B3878102820DAA0B10228D8
:1079C00001D004D326E015203870012015E000A96D
:1079D0000020FDF7B5F8BDF800003870BDF80000D4
:1079E000000A7870022008E020207870312205F12A
:1079F0004401B81C03F0F0FF332028640AE080281B
:107A000008DA2F634FF0FF3085F8200089B238463E
:107A1000FFF79CFB286C00281DBF286C40F000403D
:107A20002864E86300206863286C00281FD57078FC
:107A30001821DFF8182C01FB00200760296C89B29F
:107A40004160012181730021016176783146204631
:107A500003F0F6F940B92069C068804731462046F6
:107A600003F03CFA0128F6DA0020E86328644FF4BA
:107A700080421146002001F06FF902E00020FDF77E
:107A800069F80020F2BD0C460C2194F84E20242306
:107A9000656803FB0252D26801FB00207047002199
:107AA0000174C16098E138B504460D462A686968DA
:107AB00003F01DFF696888423CBF0121217432BD7B
:107AC000E0B58DF8001000A901910121029101A9F2
:107AD0001830FFF7E8FF07BD10B50446201DFFF77B
